:020000040800F2
:10000000B00700205D020008011800088B160008E8
:10001000B1160008E50400083D1C000800000000BF
:100020000000000000000000000000009718000819
:10003000E704000800000000951800081D190008DA
:1000400077020008770200087702000877020008AC
:10005000770200087702000877020008770200089C
:10006000770200087702000877020008770200088C
:10007000770200087702000877020008770200087C
:10008000770200087702000877020008770200086C
:10009000770200087702000877020008770200085C
:1000A000770200087702000877020008770200084C
:1000B000770200087702000877020008770200083C
:1000C000770200087702000877020008770200082C
:1000D00077020008F91B0008770200087702000881
:1000E000770200087702000877020008770200080C
:1000F00077020008770200087702000877020008FC
:1001000077020008770200087702000877020008EB
:1001100077020008770200087702000877020008DB
:1001200077020008770200087702000877020008CB
:1001300077020008770200087702000877020008BB
:1001400077020008770200087702000877020008AB
:10015000770200087702000877020008770200089B
:10016000770200087702000877020008770200088B
:1001700077020008770200087702000800000000FC
:10018000770200087702000877020008770200086B
:10019000770200087702000877020008770200085B
:1001A00077020008770200087702000800F002F8E2
:1001B00000F03CF80AA090E8000C82448344AAF1C5
:1001C0000107DA4501D100F031F8AFF2090EBAE8C3
:1001D0000F0013F0010F18BFFB1A43F0010318477B
:1001E0005C1C00007C1C0000103A24BF78C878C159
:1001F000FAD8520724BF30C830C144BF04680C602D
:10020000704700000023002400250026103A28BF74
:1002100078C1FBD8520728BF30C148BF0B60704778
:100220001FB501F0FDFD1FBD10B510BD00F014F9A4
:100230001146FFF7F5FF01F06FFD00F046F903B43A
:10024000FFF7F2FF03BC01F019FD000030BF72B6EA
:10025000704762B6704780F3088870470948804746
:1002600009480047FEE7FEE7FEE7FEE7FEE7FEE798
:10027000FEE7FEE7FEE7FEE704480549054A064BB0
:100280007047000021190008AD010008B0010020EE
:10029000B0070020B0030020B0030020704700002A
:1002A0000FB4044910B503AA029800F0A7F810BCD7
:1002B0005DF814FB20000020032A40F2308010F08B
:1002C000030C00F0158011F8013BBCF1020F6244F1
:1002D00098BF11F801CB00F8013B38BF11F8013B82
:1002E000A2F1040298BF00F801CB38BF00F8013B2F
:1002F00011F0030300F02580083AC0F0088051F89F
:10030000043B083A51F804CBA0E80810F5E7121DA9
:100310005CBF51F8043B40F8043BAFF30080D207C8
:1003200024BF11F8013B11F801CB48BF11F8012B94
:1003300024BF00F8013B00F801CB48BF00F8012BB7
:10034000704710B5203AC0F00B80B1E81850203A41
:10035000A0E81850B1E81850A0E81850BFF4F5AF65
:100360005FEA027C24BFB1E81850A0E8185044BFEF
:1003700018C918C0BDE810405FEA827C24BF51F85C
:10038000043B40F8043B08BF7047D20728BF31F850
:10039000023B48BF11F8012B28BF20F8023B48BFA1
:1003A00000F8012B70474FF0000200B51346944649
:1003B0009646203922BFA0E80C50A0E80C50B1F1BD
:1003C0002001BFF4F7AF090728BFA0E80C5048BFD1
:1003D0000CC05DF804EB890028BF40F8042B08BF6F
:1003E000704748BF20F8022B11F0804F18BF00F86B
:1003F000012B70477047704770477047074B70B5C7
:100400000D467B4400F011F80446284600F020F821
:1004100010B14FF0FF3070BD204670BDFF180000D6
:1004200001694A1C02610878704700B58FB0CDE9B8
:1004300001310021059105497944CDE903101146A8
:10044000684600F02EF80FB000BD0000E5FFFFFF8A
:10045000007B00F080007047754600F03FF8AE4624
:1004600005006946534620F00700854618B020B5C0
:10047000FFF702FFBDE820404FF000064FF00007F5
:100480004FF000084FF0000B21F00701AC46ACE83C
:10049000C009ACE8C009ACE8C009ACE8C0098D46A9
:1004A00070472DE9F04106460024D6E90170F56851
:1004B0008046304603E04146B847641C3046A847B2
:1004C0000028F8D12046BDE8F08110B50446AFF30E
:1004D00000802046BDE81040FFF7B1BE00487047DD
:1004E0004C010020FEE7704710B586B00C000346B3
:1004F00020D000F055F902461819401E00F050F9BE
:100500000021801A401C00910191B3F1016F01D3C9
:10051000022100E001210291CDE903200220059093
:1005200000F076FA694601A800F0DCF9044600F014
:1005300027FA14B1002006B010BD0120FBE700002F
:10054000002229B1012922D0022923D04FF4407280
:100550000B2800D9001D11490B6823F440730B6070
:100560000B6813430B600A6822F0F8020A600A68FD
:10057000F82393FAA3F3B3FA83F3984040F0020010
:1005800002430A60086840F48030086070474FF406
:100590008072DDE74FF40072DAE70000103C0240A1
:1005A0001348016889050FD5016821F400710160C5
:1005B000016841F400610160016821F4006101609B
:1005C000016841F400710160016849050FD50168B7
:1005D00021F480610160016841F48051016001688B
:1005E00021F480510160016841F48061016070472D
:1005F000003C02400D48026822F44072026002682A
:10060000026003290AD0012901680CD041F400419D
:100610000160016841F4803101607047016848F26F
:1006200004021143F4E741F00401F1E7103C0240F9
:10063000064A136823F44073136013681360136849
:1006400043F001031360017070470000103C02404A
:10065000084910B50C6824F440740C600C6844F42C
:1006600040740C600C6844F001040C60026043604C
:1006700010BD0000103C0240074A136823F4407389
:100680001360136843F480731360136843F001032D
:100690001360018070470000103C0240074A136855
:1006A00023F440731360136843F4007313601368FA
:1006B00043F001031360016070470000103C0240EA
:1006C0001F490868C043C2061E4805D4C26942F0EB
:1006D0001002C26110220A600A68D243920605D451
:1006E000C26942F00802C26120220A600A68D2434D
:1006F000520605D4C26942F00402C26140220A6077
:100700000A68D243120605D4C26942F00202C261ED
:1007100080220A600A68D243D20506D4C26942F038
:100720000102C2614FF480720A600A68D2439207E4
:1007300005D4C26942F02002C261022008607047FD
:100740000C3C02402400002070B5134904460020F0
:10075000C86100F05FFA0546104E09E0601C07D042
:1007600024B100F057FA401BA04201D9032070BD0C
:100770003068C043C003F1D53068C00701D0012004
:10078000306031684FF4F970884301D0002070BDAB
:10079000FFF796FF012070BD240000200C3C0240B2
:1007A0003A49884201D2002070473949884201D233
:1007B000012070473749884201D2022070473649EC
:1007C000884201D2032070473449884201D2042074
:1007D00070473349884201D2052070473149884229
:1007E00001D2062070473049884201D20720704765
:1007F0002E49884201D2082070472D49884201D2F3
:10080000092070472B49884201D20A207047B0F175
:10081000016F01D20B2070472749884201D20C207A
:1008200070472649884201D20D20704724498842EA
:1008300001D20E2070472349884201D20F20704711
:100840002149884201D2102070472049884201D2B4
:10085000112070471E49884201D2122070471D495D
:10086000884201D2132070471B49884201D21420CC
:1008700070471A49884201D21520704718498842AA
:1008800001D2162070471720704700000040000872
:100890000080000800C000080000010800000208F5
:1008A00000000408000006080000080800000A080C
:1008B00000000C0800000E0800401008008010081E
:1008C00000C0100800001108000012080000140801
:1008D000000016080000180800001A0800001C0894
:1008E00000001E082DE9F047044623480E46017E0D
:1008F00001290AD00121804601764CF25039484640
:10090000FFF722FF020003D030E00220BDE8F087AD
:100910004FF0FF3030602068184F012801D0A568E3
:100920001DE0207C6168FFF765FE4846FFF70CFF7D
:100930000246386848F204018843386014E0217C9C
:100940002846FFF7FDFD4846FFF7FEFE0200386827
:1009500020F0FA00386001D0356005E06D1CD4E964
:1009600002100844A842EAD8FFF71AFE002188F8CE
:1009700018101046CAE7000024000020103C024076
:100980000348016841F00041016000207047000009
:10099000103C02402DE9F0471B4E05461446307EC0
:1009A0001F468946012808D0012030764CF2503885
:1009B0004046FFF7C9FE18B114E00220BDE8F087F9
:1009C0009DB1012D16D0022D19D022463B46484636
:1009D000FFF73EFE4046FFF7B7FE0C490A6822F0DB
:1009E00001020A6000213176E8E7E1B24846FFF7EC
:1009F0001FFEEFE7A1B24846FFF73EFEEAE72146B9
:100A00004846FFF74BFEE5E724000020103C02407B
:100A100006480068002807DA044805490C380160D8
:100A2000044901600020704701207047103C0240DB
:100A300023016745AB89EFCD2DE9F84FDFF8A09191
:100A4000002209F1040A0AF1040B4FF00F080BF120
:100A5000040E01260B6896403340B34271D14C68B6
:100A6000022C01D0122C11D1D40800EB84073D6A6E
:100A70005407E40E08FA04FC25EA0C05D1F810C06E
:100A80000CFA04FC4CEA050CC7F820C007685400B7
:100A9000032591F804C0A5400CF0030CAF430CFAF9
:100AA00004FC4CEA070CC0F800C04F68012F05D0C9
:100AB000022F03D0112F01D0122F11D18768D1F846
:100AC0000CC0AF430CFA04FC4CEA070CC0F808C099
:100AD0004768B7430E79C6F3001696403E4346601A
:100AE000C668AE438D68A5403543C5604C68E400D8
:100AF0006FD53C4C256845F480452560246822F07C
:100B0000030504F480440094374C2E19D6F8087875
:100B10009407250F08FA05F4A743344CA04201D1ED
:100B200000242EE0324CA04201D1012429E0314CB6
:100B3000A04201D1022424E02F4CA04202D1032480
:100B40001FE046E02D4CA04201D1042419E02C4CBA
:100B5000A04201D1052414E02A4CA04201D1062470
:100B60000FE0294CA04201D107240AE0274CA04203
:100B700001D1082405E0264CA04201D1092400E05F
:100B80000A24AC403C43C6F80848D9F800404D461A
:100B90004E689C43F60300D51C432C60DAF80040F5
:100BA00055464E689C43B60300D51C432C60DBF8C9
:100BB00000405D464E689C43F60200D51C432C6005
:100BC000DEF8004075464E689C43B60200D51C43D3
:100BD0002C60521C102AFFF43CAFBDE8F88F0000D7
:100BE000003C014044380240003001400000024017
:100BF0000004024000080240000C024000100240C5
:100C00000014024000180240001C02400020024074
:100C100000240240014800687047000014000020D2
:100C200002480168491C0160704700001400002060
:100C30000B4810B5016841F400710160016841F48E
:100C400080610160016841F480710160052000F05D
:100C500047F80F2000F006F800F015F8002010BD4E
:100C6000003C024010B5044600F094F94FF47A714C
:100C7000B0FBF1F000F0A8FB00222146501E00F06E
:100C80000FF8002010BD704700F01F0201219140B5
:100C90004009800000F1E020C0F80011704700001A
:100CA000F0B40E4B1B68C3F30223C3F10704042CFA
:100CB00000D904241D1D072D01D2002300E0DB1EF6
:100CC000012606FA04F56D1E0D409D409E40761EDD
:100CD000164045EA0601F0BC00F093BD0CED00E0C3
:100CE000064A00F0070110684FF6FF03184040EA7B
:100CF0000120034908431060704700000CED00E03C
:100D00000000FA052DE9F8431D48016841F08051C3
:100D100001600068012700F080500090380490FACC
:100D2000A0F0DFF86080B0FA80F048F82070FFF79C
:100D300071FF04464FF47A75134E04E0FFF76AFF23
:100D4000001BA84213D87068C003F7D54FF40030D9
:100D500090FAA0F0B0FA80F048F82070FFF75AFF40
:100D6000044607E0FFF756FF001BA84202D9032004
:100D7000BDE8F88370688003F4D50020F8E7000030
:100D80004038024000000E42007000402DE9F05F44
:100D9000DFF8F8A104460F46DAF80000DFF8F0812A
:100DA00000F00F02C8B27A49814641F2883608F154
:100DB0000808BA4261D202468AF80020DAF8000038
:100DC00000F00F00B8427DD12078800707D5D8F811
:100DD0000020A36822F0F0021A43C8F8002020780F
:100DE000C0072DD0606801281AD002281BD0032824
:100DF00019D009688907002964DAD8F80010474635
:100E000021F003010143C8F80010FFF703FF054676
:100E1000606801280FD0022818D003281CD027E0D2
:100E200009688903E7E709688901E4E7FFF7F2FE4B
:100E3000401BB04258D83868C0F381000128F5D172
:100E400088E0FFF7E7FE401BB0424DD83868C0F39A
:100E500081000228F5D17DE03868FFF7DBFE401BFA
:100E6000B042F9D940E0FFF7D5FE401BB0423BD875
:100E7000386810F00C0FF6D16CE02078800707D5A9
:100E8000D8F80020A36822F0F0021A43C8F8002026
:100E90002078C0074CD06068012828D0022829D0CB
:100EA000032827D009688907002949DAD8F80020E3
:100EB00022F003020243C8F80020FFF7ABFE05460C
:100EC000606800E03CE001281DD0022829D00328FA
:100ED00038D0B3464646306810F00C0F28D0FFF7E4
:100EE00099FE411B5945F6D90320BDE8F09F0968DA
:100EF0008903D9E709688901D6E7FFF78BFE411B13
:100F0000594502D9F0E7B34646463068C0F3810040
:100F10000128F2D10CE0FFF77DFE411B594502D9B3
:100F2000E2E7B34646463068C0F381000228F2D1BA
:100F30008AF80090DAF8000000F00F00B84209D0FB
:100F40000120D2E744462068FFF764FE401BB04210
:100F5000F9D9C9E72078400707D5D8F80010E2682A
:100F600021F4E0511143C8F800102078000708D59B
:100F7000D8F80010226921F4604141EAC201C8F8A2
:100F800000100F20FFF76EFE0020AEE7003C02408D
:100F90000038024010B500F043F808490968F02213
:100FA00092FAA2F201F0F001B2FA82F2D140044AC0
:100FB000515CC8400349086010BD00000838024079
:100FC0002A1E00080000002010B5FFF7E3FF0749C4
:100FD00009684FF4E05292FAA2F201F4E051B2FA39
:100FE00082F2D140024A515CC84010BD083802402C
:100FF0002A1E000810B5FFF7CDFF074909684FF416
:10100000604292FAA2F201F46041B2FA82F2D14057
:10101000024A515CC84010BD083802402A1E000830
:1010200030B51948006810F00C01184812D0184C5F
:1010300004290ED008290DD1134A121F1168136814
:1010400001F03F015D0247F6C07304D5B4FBF1F037
:1010500003E0204630BDB0FBF1F01168194093FA6F
:10106000A3F3B3FA83F3D940484311684FF44032F5
:1010700092FAA2F201F44031B2FA82F2D140491C54
:101080004900B0FBF1F030BD083802400024F40004
:1010900040787D012DE9F84F04460078DFF8FCA286
:1010A000BF4DC0074FF0000648D0DAF80010504698
:1010B000C1F38101012908D00068C0F38100022832
:1010C0000AD1281D0068400206D52868800335D55E
:1010D0006068002873D031E0DFF8C49209F102099A
:1010E00089F80060FFF796FD074641F2883804E072
:1010F000FFF790FDC11B41457AD828688003F7D4DB
:10110000207989F80000606860B1FFF783FD074629
:1011100004E0FFF77FFDC11B4145EDD8286880033F
:10112000F7D50BE0FFF776FD074604E0FFF772FD09
:10113000C11B4145E0D828688003F7D42078DFF848
:101140006492800744D5DAF80010504611F00C0F75
:101150004FF0F80809D00068C0F3810002280BD1D5
:101160008E48001F0068400206D42868800714D506
:10117000E068012823D110E0E068D0B10120C9F86F
:101180000000FFF747FD074604E0FFF743FDC01BE3
:101190006428B1D828688007F7D5286898FAA8F29B
:1011A0002169B2FA82F220F0F800914008432860E9
:1011B0000EE0C9F80060FFF72DFD074605E0EAE004
:1011C000FFF728FDC01B642812D828688007F7D4D1
:1011D0002078000725D5DFF8C4817348616908F1DC
:1011E0006C0881B101210160FFF714FD074605E09D
:1011F0007EE0FFF70FFDC01B642879D8D8F8000007
:101200008007F6D50DE00660FFF704FD074604E011
:10121000FFF700FDC01B64286AD8D8F800008007DB
:10122000F6D42078400753D55C483830016841F047
:10123000805101600068DFF8748100F080500090F8
:10124000D8F8001041F48071C8F80010FFF7E2FCF4
:10125000074604E0FFF7DEFCC01B642848D8D8F836
:101260000000C005F6D5DFF834B10BF1680B8BF840
:101270000060FFF7CFFC074641F2883804E0FFF733
:10128000C9FCC11B41457ED8DBF800008007F6D4BD
:10129000207A8BF80000A06868B1FFF7BBFC074616
:1012A00004E0FFF7B7FCC11B41456CD8DBF8000038
:1012B0008007F6D50CE0FFF7ADFC074604E0FFF72A
:1012C000A9FCC11B41455ED8DBF800008007F6D4BD
:1012D000A069E8B3DAF80010C1F3810102295AD0FD
:1012E000022806D0C9F86060FFF794FC04464DE080
:1012F00049E04F46C9F86060FFF78CFC064604E001
:10130000FFF788FC801B64283DD828688001F7D44B
:10131000D4E90701084347F6C07191FAA1F1626A66
:10132000B1FA81F18A40A16A4FF0FF3303EB51011A
:101330004FF4403393FAA3F3B3FA83F399400A438B
:1013400010434FF0706292FAA2F2B2FA82F200E019
:101350001FE0E16A914008431049091F086001201D
:101360003866FFF757FC044604E0FFF753FC001B08
:10137000642808D828688001F7D50AE0FFF74AFCFE
:10138000001B642802D90320BDE8F88F286880017B
:10139000F4D40020F8E70120F6E700000838024006
:1013A0000038024000004742800E47420070004073
:1013B0004FF0E0210428086903D020F00400086100
:1013C000704740F00400FAE710B5401EB0F1807F8E
:1013D00001D3012010BD4FF0E02460610F216017A0
:1013E00000F00FFA0020A06107202061002010BD4E
:1013F000704790F83900704738B5016804460868AE
:10140000CA68C0F3000002F4807238B132B10868D3
:1014100048680090E06B40F00100E06308684A69AA
:10142000C0F3400002F0010238B132B108684868E8
:101430000090E06B40F00400E06308684A69C0F384
:10144000800002F0010238B132B1086848680090AB
:10145000E06B40F00200E06308684A69C0F3C00036
:1014600002F0010238B132B1086848680090E06BC0
:1014700040F00800E0630868C968C0F3401001F05C
:10148000200118B111B1204600F074FA20680168FB
:10149000C068C1F3C01100F0800019B110B120463E
:1014A00000F076FB21680868CA68C0F3801002F07B
:1014B0004002012568B162B1CA68204622F04002AC
:1014C000CA6094F8391032290CD080F8395000F0F5
:1014D000DBF8E06B002804D084F839502046FFF791
:1014E00087FF38BD222180F83910F0E770B504007D
:1014F00004D094F83900002510B106E0012070BD39
:1015000084F83850204600F021F8022084F8390091
:101510002068C16821F40051C160204600F07EFAC5
:101520002068016921F4904101612068416921F03E
:101530002A0141612068C16841F40051C160E5633E
:10154000012084F83900002070BD000010B500684B
:101550001A4986B088422FD11948016841F001012B
:101560000160006800F00100059015481430016822
:1015700041F0100101600068012100F010000590A9
:101580004FF4007000900220CDE901010390072084
:101590000C4C049069462046FFF74EFA2115009145
:1015A00069462046FFF748FA2520FFF76DFB032226
:1015B00011462520FFF774FB06B010BD0010014056
:1015C000303802400000024090F83930012B01D041
:1015D000122B2BD131B32AB390F83830012B25D000
:1015E000012380F8383081628285C2850022C2637F
:1015F00090F83910122917D0222180F8391001688B
:10160000CB6843F48073CB6001684B6943F00103FE
:101610004B6180F838200068C16841F02001C1604A
:1016200000207047012070473221E6E70220704712
:1016300030B50068114988420CD1114A5088010424
:1016400008D41146440409784FF0000306D50A294E
:1016500001D0538030BD40F400400DE00D2909D089
:10166000C0F30D04074D401C80B229555080C72897
:10167000EFD830BD40F48040508030BD00100140B4
:101680001C000020440000207047FEE710B50168F0
:10169000064A1140B1F1005F07D144680068FEF7C7
:1016A000DAFDA446BDE81040604710BD0000FE2FE3
:1016B000FEE700002DE9F0430746ADF2044D8846F1
:1016C0001646900503D06FF3090606F5806621A043
:1016D000FEF7E6FD31464046FEF706FF25A0FEF781
:1016E000DFFD2CA0FEF7DCFD06F2FF304FEA90296B
:1016F00000251CE0A80200F580604FF48064B04231
:1017000002D9684206EB80246946C4F38F020020A8
:1017100004E057F8203041F82030401C9042F8DBBC
:10172000A208404600F08BFAA04427446D1C4D45AA
:10173000E0D31EA0FEF7B4FD21A0FEF7B1FD3146B7
:101740003846FEF7D1FE26A0FEF7AAFD0DF2044DA5
:10175000BDE8F0833E20537461727420657261733A
:10176000652061707020666C6173682E2E2E2E2E9F
:101770002E0D0A003E204572617365206170702055
:10178000666C61736820646F776E2E2E2E2E2E2E5F
:101790000D0A00003E20537461727420636F7079EB
:1017A0002E2E2E2E2E2E0D0A000000003E20436FFE
:1017B000707920646F776E2E2E2E2E2E2E0D0A003D
:1017C0003E20537461727420657261736520737278
:1017D0006320666C6173682E2E2E2E2E2E0D0A004D
:1017E0003E2045726173652073726320666C61737D
:1017F0006820646F776E2E2E2E2E2E2E0D0A00007E
:1018000070470907090E002806DA00F00F0000F102
:10181000E02080F8141D704700F1E02080F80014EB
:101820007047000010B59CB06C216846FEF7BBFD08
:101830000B480090002001900A4802900A484FF09F
:10184000016403906C212046FEF74EFE002804D070
:101850001B226946204600F0F2F91CB010BD0000C2
:10186000314F4154000002080000120810B5040076
:101870000AD06C2908D16C224FF00161FEF71CFDE3
:1018800003492068884201D0002010BD012010BD0E
:10189000314F41547047704770B51E4C92B00025CF
:1018A000266846F080562660246804F0805411941F
:1018B000194C266846F44046266024680DF1240C35
:1018C00004F44044119401240094019402240694E9
:1018D0008CE80D006605CDE907616846FFF7DAFB85
:1018E00000B1FEE7FFF70EFA00B1FEE70CA90F20EA
:1018F00081E831004FF4A0500F904FF480501090C9
:1019000005210CA8FFF742FA002800D0FEE712B02C
:1019100070BD00004038024000700040FFF780B901
:101920001048016841F4700101600F48016841F0FE
:10193000010101600C4A00210832116002680B4B62
:101940001A400260031D0A4A1A60026822F48022CB
:10195000026005480C300160024958068039086071
:101960007047000088ED00E000380240FFFFF6FEFF
:101970001030002410B590F83910222903D03229F4
:1019800001D0022010BD8168B1F5805F11D00169DE
:10199000002901681FD0496801F07F03816A4A1C51
:1019A00082620B70C18D491E0904090CC18518D0D3
:1019B0002FE00269816A002A0268526805D0D2B21B
:1019C0000A80816A491C8162ECE7C2F308020A803E
:1019D000816A891CF7E74A68816A4B1C83620A7036
:1019E000E0E70168CA6822F02002CA6090F8391066
:1019F000322910D00168CA6822F48072CA60016876
:101A00004A6922F001024A61012180F83910FFF78A
:101A10000FFE002010BD1221F7E700002DE9F04174
:101A2000044600680169E26821F440510A430261FA
:101A30002068C16849F20C6291432369A268E56994
:101A40001A4363692B431A430A43C2602068416901
:101A500021F44072A16911434161E0696426322595
:101A6000B0F5004F484A494920681DD0884201D04E
:101A7000904269D1FFF7BEFA00EBC00101EB001004
:101A80006168B0468900B0FBF1F1B1FBF8F6FFF7F1
:101A9000B1FA00EBC00101EB001061688900B0FBF6
:101AA000F1F7FFF7A7FA68E0884201D0904219D118
:101AB000FFF7A0FA00EBC00101EB00106168B0462F
:101AC0004900B0FBF1F1B1FBF8F6FFF793FA00EB38
:101AD000C00101EB001061684900B0FBF1F7FFF7AE
:101AE00089FA18E0FFF770FA00EBC00101EB001073
:101AF0006168B0464900B0FBF1F1B1FBF8F6FFF7C1
:101B000063FA00EBC00101EB001061684900B0FB13
:101B1000F1F7FFF759FA00EBC00101EB0010616823
:101B20004900B0FBF1F1B1FBF8F06FF01801484348
:101B300007EB800005EB0011B1FBF8F0216866F3BC
:101B40001F108860BDE8F081FFF73EFA00EBC0018E
:101B500001EB00106168B0468900B0FBF1F1B1FB08
:101B6000F8F6FFF731FA00EBC00101EB00106168F5
:101B70008900B0FBF1F7FFF727FA00EBC00101EB9A
:101B8000001061688900CCE700140140001001409A
:101B900090F83910122903D0322901D00220704761
:101BA0008168B1F5805F016A0BD04A1C026202684D
:101BB00009785160C18C491E0904090CC1840ED0FA
:101BC00017E009880268C1F3080151600169002922
:101BD000016A02D0491C0162ECE7891CFBE701683D
:101BE000CA6822F08002CA600068C16841F0400102
:101BF000C16000207047000070B500240C4D0D48F6
:101C0000FFF7FAFB02E0641CAC4204D80948FFF776
:101C1000F0FB0128F7D1002402E0641CAC4206D896
:101C2000012205490348FFF7CFFC0028F5D170BD1C
:101C3000FFFF01000C0100201C000020FEE72DE941
:101C4000F04116460F4680460025FEF7E1FE0024CF
:101C50000AE057F8242008EB840100230220FEF755
:101C600099FE050002D1641CB442F2D3FEF788FE4F
:101C700015B10020BDE8F0810120FBE7704700B5F9
:101C80009BB06C216846FEF78EFB6C216846FFF71F
:101C9000EDFD10B10198012800D000201BB000BD5F
:101CA00010B504460420FFF783FB0148046010BD13
:101CB0001800002070B5054600244FF47A7603E042
:101CC000304600F005F8641CAC42F9D370BD00004A
:101CD00070B54FF0E02500216C69094AAB691268C4
:101CE0005043AA699A42FCD002D2A3EB020302E05D
:101CF000A4EB02063344194413468142F1D370BD6C
:101D00001800002003490A685206FCD5C2B24A6096
:101D1000704700000010014010B5FEF789FF08234E
:101D2000022219214FF4B470FFF7B6FD6820FFF7C7
:101D3000B7FF4FF4E13000F057F812A0FEF7B0FA09
:101D40004FF4FA70FFF7B6FF4FF00160FFF797FF0F
:101D5000114C58B111A0FEF7A3FA4FF4002221460E
:101D60001A48FFF7A7FCFFF75DFD02E018A0FEF799
:101D700097FA1AA0FEF794FA2046FFF787FC002096
:101D800010BD0000426F6F746C6F61646572205308
:101D9000746172740D0A00000000020850656E64E0
:101DA000696E6720696D61676520666F756E642C6A
:101DB000207374617274696E67204F54412075708E
:101DC000646174652E2E2E0D0A00000000001208BA
:101DD0006E6F206E6F206E6F0D0A0000737461725B
:101DE00074206E6F770D0A000B4910B5094AC1E9DE
:101DF000002000208860C860086188610C2048616C
:101E00000846FFF773FBBDE8104001220349024872
:101E1000FFF7DABB001001400C0100201C0000207D
:101E20004FF04070E1EE100A704700000000010220
:101E30000304010203040607080900005C1E0008F1
:101E40000000002024000000E8010008801E0008B7
:101E5000240000208C070000040200080024F40085
:101E6000000000000000000001020304060708094A
:101E70000000000000000000000000000000000062
:04000005080001AD41
:00000001FF
