:020000040802F0
:1000000090F700207D020208AD8202083338020812
:10001000AB820208C91402086D8E020800000000BD
:10002000000000000000000000000000C501020800
:10003000351502080000000019020208C1880208F4
:100040009702020897020208970202089702020824
:100050009702020897020208970202089702020814
:100060009702020897020208970202089702020804
:1000700097020208970202089702020897020208F4
:1000800097020208970202089702020897020208E4
:1000900097020208970202089702020897020208D4
:1000A00097020208970202089702020897020208C4
:1000B00097020208970202089702020897020208B4
:1000C00097020208970202089702020897020208A4
:1000D00097020208698D0208AD8D02089702020896
:1000E0009702020897020208970202089702020884
:1000F0009702020897020208970202089702020874
:100100009702020897020208970202089702020863
:100110009702020897020208970202089702020853
:100120009702020897020208970202089702020843
:100130009702020897020208970202089702020833
:100140009702020897020208970202089702020823
:100150009702020897020208970202089702020813
:100160009702020897020208970202089702020803
:100170009702020897020208970202080000000096
:1001800097020208970202089702020897020208E3
:1001900097020208970202089702020897020208D3
:1001A000970202089702020897020208DFF810D0AF
:1001B00000F09EFE00480047BDB80208AFF3008083
:1001C00090F700202A4B19680868B0E8F04F80F3D8
:1001D0000988BFF36F8F4FF0000080F311887047DC
:1001E0000000000006480068006880F3088862B6D6
:1001F00061B6BFF34F8FBFF36F8F00DF00BF00BF4B
:1002000008ED00E0DFF80C00016841F470010160C6
:10021000704700BF88ED00E0EFF30980BFF36F8FF8
:10022000134B1A681EF0100F08BF20ED108A20E94A
:10023000F04F106008B44FF0500080F31188BFF306
:100240004F8FBFF36F8F0FF04DFF4FF0000080F323
:10025000118808BC19680868B0E8F04F1EF0100F4C
:1002600008BFB0EC108A80F30988BFF36F8F704726
:1002700068000020EFF305807047000006488047C3
:1002800006480047FEE7FEE7FEE7FEE7FEE7FEE77B
:10029000FEE7FEE7FEE7FEE7D9880208AD010208A7
:1002A000A0F14101192900D82030704740EA01032C
:1002B0009B0703D009E008C9121F08C0042AFAD21C
:1002C00003E011F8013B00F8013B521EF9D27047E0
:1002D000D2B201E000F8012B491EFBD27047002288
:1002E000F6E710B513460A4604461946FFF7F0FF35
:1002F000204610BD30B505462A460B4612F8010BC4
:1003000013F8014B08B1A042F8D01CB1002802D06C
:100310006D1CF1E7284630BD10B5044604E00B78AB
:1003200000F8013B03B1491C521EF8D2204610BD13
:10033000421C10F8011B0029FBD1801A704710B530
:10034000002200E0521C835C8C5CA34201D1002B94
:10035000F8D1D8B2E1B2401A10BD30B50446002041
:10036000034600E05B1C934203D2E05CCD5C401B83
:10037000F8D030BD034611F8012B00F8012B002AFC
:10038000F9D11846704730B505460020034600E015
:100390005B1C934205D2EC5CC85C201A01D1002C96
:1003A000F6D130BD0FB400B58DB010A909900B90F7
:1003B00000914FF0FF300A9000200C900548069005
:1003C000054807906A4609A80F9900F0D1FB0DB0C7
:1003D0005DF814FB8D0B0208AB0B02082DE9FF4FF3
:1003E000087883B09946FF2805D0491C2D2804D0F1
:1003F0000024002008E000200BE00124F9E700EBD6
:10040000800003EB4000491C0B78FF2BF7D104B1AF
:10041000404200230293147819461D462D2C01D02A
:100420002B2C04D1521C2D2C13D000240294AA464C
:100430001478FF2C0FD00A25A3FB057801FB05815A
:100440004FF0000C03FB0C11521CE3194AEB0101A5
:10045000EEE70124EAE7814453EA010002D019F5EE
:10046000C87F06DA03980021C0E9001107B0BDE893
:10047000F08F0025AE4E2F46DFF8B882184600F008
:10048000F7FCCDE90001B9F1000002DAC9F100047E
:1004900000E004460023A74A1AEB030B42EB045A80
:1004A00012E0E00707D02A4633463846414600F0BE
:1004B000F9F9074688462A4633461046194600F0A1
:1004C000F1F905460E466410002CEAD1DDE9000181
:1004D000B9F1000F5A46534606DA00F05AFC3A4684
:1004E000434600F056FC05E000F0DCF93A4643468E
:1004F00000F0D8F9029A0AB181F00041039AC2E9EA
:100500000001B3E72DE9FF4F1F468DB0D7E9014643
:100510004FF0FF382E2045464FF000090B90B96987
:100520006D1C0E988847396A824688470028F6D1A4
:10053000BAF1FF3F0AD024F4D064002E11DDBAF1E5
:100540002B0F08D0BAF12D0F0BD102E0404611B0AD
:100550008DE744F48064B9696D1C0E988847824623
:10056000761E6946600501D52D2000E02B208DF810
:10057000000001F1010B0DF1200809E0B9696D1CC3
:100580000E98884782460F9844F40074761E0560E2
:10059000002E02DDBAF1300FF0D00B998A453ED122
:1005A00044F0800406E00F99681CA9F1010944F4A5
:1005B00000740860B9696D1C761E0E9888478246E3
:1005C0003028F0D02BE00B998A4505D1200603D4C2
:1005D00044F08004761E18E0504608F09BFF08B3F4
:1005E0000DF11301761E44F400748B4508D2AAF174
:1005F00030000BF8010B200607D5A9F1010003E03C
:10060000200602D409F101008146A00502D50F9908
:10061000681C0860B9696D1C0E9888478246002ED8
:10062000D1DC53E0002E51DDBAF1650F02D0BAF1F2
:10063000450F4BD1A00549D5B9696D1C24F4407410
:10064000761E0E9888478246002E0CDD2B2804D09B
:10065000BAF12D0F07D144F48074B9696D1C0E985E
:1006600088478246761EE00501D52D2100E02B212A
:1006700008F8011BCDF82C8021E00DF12901761E30
:1006800044F4007488450CD2AAF1300010F0FF0049
:1006900088F8000002D10B99884509D908F10108B2
:1006A00006E0E00501D5244801E042F20F708146E2
:1006B000B9696D1C0E98884782460F980560002E18
:1006C00004DD504608F026FF0028D6D1F9690E98BF
:1006D0008847FF208BF8000088F800000020069073
:1006E00007904B466A4608A906A8FFF777FEA005C3
:1006F00002D46FF001002AE714F0240F0AD0E007BB
:1007000014D1DDE906123868031D3B600068C0E9BA
:1007100000120BE0DDE9060100F0CEFB0146E00728
:1007200004D13868021D3A600068016028460EE76F
:10073000000014400000F03FF1D8FFFF70B50646FE
:1007400008F09EFD046805460A220021304600F0AC
:100750008BFA2C6070BD2DE9FE4F804681EA0300C4
:10076000C00F0C46009021F0004123F00045B8EB8B
:100770000200A94105D24046214690461C460B4640
:10078000024623F00040104347D0270DC7F30A006C
:10079000C3F30A510290401A019040286BDAC3F368
:1007A000130040F4801B0098924620B10023D2EB46
:1007B000030A63EB0B0B01985946C0F14002504607
:1007C00000F09FF906460D4650465946019A00F042
:1007D000B7F910EB08006141002487EA115284EA5E
:1007E000E7731A4340D0009A62B3019A012A4FEA94
:1007F000075215DC001B61EB02014FF0004202EAD8
:100800000752CDE90042001C41F5801132462B46CB
:1008100000F071FA03B0BDE8F08F40462146F9E7D9
:10082000001B61EB0201001C41F5801300185B41C5
:100830002018A2F5001747EB030140EAD570B6195E
:100840006D4111E06D084FEA360645EAC0754FEA82
:100850000752001B61EB0201001C41F580114908A1
:100860004FEA30000019514132462B4603B0BDE833
:10087000F04F00F031BA0098012240000023D0EB85
:10088000020263EBE073009821464FEAE074B8EB94
:10089000000061EB0401E9E783F000435BE781F0CE
:1008A000004158E72DE9FE4F81EA030404F00044BB
:1008B00021F0004100944FF0000B23F0004350EA78
:1008C00001045ED052EA03045BD0C3F30A54C1F3BF
:1008D0000A552C44A4F2F3340194A0FB0254C1F352
:1008E000130141F48011C3F3130343F4801301FB9C
:1008F000024400FB034E840A970A44EA815447EA03
:100900008357A4FB076802958D0A05FB07854FEA0C
:10091000932C04FB0C542705029D4FEA065847EA26
:100920001637B5EB08056EEB070C870E920E47EAFB
:10093000811742EA8312A7FB0201B6EB0B0164EBBD
:1009400000042B0D43EA0C335E1844EB1C50DA46CE
:100950005146E7FB0201C5F313044FEA0B3343EAA8
:1009600014534FEA0432019C43EA0603A4F10C0439
:100970000294009CCDE900B400F0BDF903B0BDE8DD
:10098000F08F00200146F9E70EB540F233410291A5
:100990000021CDE900110A460B4600F0ACF903B086
:1009A00000BD70B5C1F30A5201F000450024C1F347
:1009B000130140F2FF3341F480119A4201DA002022
:1009C00070BD40F233439A42A2F2334203DC5242FA
:1009D00000F0A6F800E090402C43F1D0404270BDFA
:1009E000C1F30A5210B5C1F3130140F2FF3341F4D1
:1009F00080119A4201DA002010BD40F233439A423E
:100A0000A2F2334203DC524200F08AF810BD90405B
:100A100010BD000030B5041E71F1000404DB4FF07E
:100A20000044404264EB0101141E73F1000405DB35
:100A30001C464FF00043524263EB04038B4208BF55
:100A4000824230BD30B5041E71F1000404DB4FF06A
:100A50000044404264EB0101141E73F1000405DB05
:100A60001C464FF00043524263EB0403994208BF17
:100A7000904230BD30B50B460146002020220124B3
:100A800009E021FA02F59D4205D303FA02F5491B5C
:100A900004FA02F52844151EA2F10102F1DC30BD72
:100AA0002DE9F05F0546002092469B4688460646A3
:100AB000814640241BE0284641464746224600F036
:100AC0002FF853465A46C01A914110D31146184682
:100AD000224600F016F82D1A67EB01084F46224611
:100AE0000120002100F00DF817EB00094E41201EF7
:100AF000A4F10104DFDC484631462A464346BDE8FE
:100B0000F09F202A04DB203A00FA02F1002070470F
:100B10009140C2F1200320FA03F31943904070473B
:100B2000202A04DB203A21FA02F00021704721FA42
:100B300002F3D040C2F120029140084319467047A9
:100B4000202A06DBCB17203A41FA02F043EAE07391
:100B500006E041FA02F3D040C2F12002914008437E
:100B600019467047026811441378016018467047AF
:100B7000D16004495161044911620021116111469B
:100B800000F0D6B9650B02081D0F0208426842B199
:100B9000016811F8013B23B1521EC0E9001218464A
:100BA00070470121C160881E704742685AB1C3680E
:100BB000016843B983688B4205D0491E521CC0E9C5
:100BC0000012002070474FF0FF3070470FB4002331
:100BD00000B589B00CA900910B996FF00042CB6071
:100BE0001E4B06931E4B07930423CDE901321D4A89
:100BF000089202466B460020FFF784FC09B05DF8BE
:100C000014FB70B586B006464FF0FF300091CDE979
:100C10000101002015460C4604903246694604A89E
:100C2000FFF7D4FF02460498211825B108B1084601
:100C300000E020462860049800280DD0002A02DD3C
:100C40000098884208D0081B0094CDE90104324680
:100C5000694604A8FFF7BAFF06B070BD8D0B020805
:100C6000AB0B02081D0F02082DE9F04791460F4615
:100C700080460446002614F8015B2DB100F04AF9C5
:100C80000068405DC007F6D12B2D02D02D2D18D065
:100C9000641E4A463946204600F0E2FA27B1396818
:100CA000A14201D1C7F8008071054FF002040BD5B5
:100CB0004042002803DD08F0E3FA0460A007BDE825
:100CC000F08746F48066E4E70028F8DA08F0D8FAFE
:100CD00004606FF00040F2E710B5141E73F10004D9
:100CE00008DA401C41F1000192185B411A4301D11E
:100CF00020F0010010BD2DE9F04D92469B4611B148
:100D0000B1FA81F202E0B0FA80F220329046FFF7A9
:100D1000F8FE04460F4640EA0A0041EA0B0153463A
:100D20005A46084313D0114653EA010019D0C8F1BE
:100D300040025046FFF7F4FE05460E46504659461F
:100D40004246FFF7DEFE084305D0012004E02046BE
:100D50003946BDE8F08D0020054346EAE0762C4395
:100D600037430A986305E40AA0EB08000022FD0A55
:100D700044EA47540A3002D500200146E9E701055C
:100D800010196941DDE9084500196941BDE8F04DD8
:100D9000A2E72DE9F04D81EA030404F0004B21F0B5
:100DA000004514464FF0000A23F0004150EA0502C6
:100DB00020D054EA01021DD0C5F30A570246C5F3FC
:100DC0001303C1F31300C1F30A5640F4801543F432
:100DD0008013A7EB0608101BD64608F2FD3873EB0C
:100DE000050002D308F1010801E092185B41B8F157
:100DF000000F03DA00200146BDE8F08D00204FF41B
:100E00008011064684460EE0171B73EB050705D3D9
:100E1000121B63EB050306434CEA010C49084FEA39
:100E2000300092185B4150EA0107EDD152EA03000D
:100E300012D082EA040083EA0501084305D0101BA2
:100E4000AB4106D20122002306E000224FF000430E
:100E500002E06FF0010253101AEB06004CEB085150
:100E600010EB0A0041EB0B01BDE8F04DFFF734BF7A
:100E70000EB540F2334202920022CDE90022134621
:100E8000FFF739FF03B000BDC1F30A52C1F31301EC
:100E900040F2FF3341F480119A4202DA0020014609
:100EA000704740F233439A42A2F2334202DC52428C
:100EB000FFF736BEFFF725BE01F0004330B421F046
:100EC000004150EA010206D00A0DA2F56072C1F39A
:100ED0001301002A02DC30BC00207047440F44EAB2
:100EE000C104C100E01830BC00EBC25000F007BAEA
:100EF000064C074D06E0E06840F0010394E8070067
:100F000098471034AC42F6D3FFF754F9AC5C0308B1
:100F1000CC5C030800487047D058030810B504465D
:100F2000FFF7F8FF0068005D00F0010010BD000051
:100F30002DE9F34F8BB04FF0000801F10C000C4687
:100F40004FF0010B46460DF1080A0190626901213C
:100F500001989047051E2DD0252D2CD0216A884759
:100F6000C0B16269012101989047216A8847002831
:100F7000F7D1411E62690198904700E0761CA16993
:100F80000B988847216A88470028F7D1E1690B98B8
:100F90008847DBE7A1690B9888470746A84201D13B
:100FA000761CD3E7E1690B9888477F1C02D1B8F122
:100FB000000F6FD047E1002762693D46394601982E
:100FC00090472A2804D162690121019890470125A0
:100FD000DFF888926269012101989047A0F1300101
:100FE0000A290AD24F45E5DC07EB870100EB4107F0
:100FF000303FDFD445F01005ECE7E90601D46FF08F
:1010000000476C280AD04C2814D0682815D06A28CC
:101010000DD074281CD07A281AD01DE062690121F5
:10102000019890476C2802D045F0040514E045F083
:1010300002050DE045F020050AE0626901210198F2
:101040009047682802D045F0080505E045F40065A2
:101050006269012101989047C4E9015765283DD094
:1010600019DC58287AD00CDC452837D004DC252838
:1010700026D0412831D131E046282FD047282CD125
:101080002CE05B2877D0612828D063287CD06428A6
:1010900023D15AE0D1E06F2848D008DC66281DD063
:1010A00067281BD0692821D06E2816D127E0702828
:1010B00045D0732868D0752847D078280DD14DE0E9
:1010C000A1690B988847054625283FF469AFE16977
:1010D0000B9888476D1C3FF46AAFB4E023466A461C
:1010E0006FF001000B99FFF70DFA9FE045F040000B
:1010F0006060A80723464FF0000236D43EE0E807C0
:101100007FF447AF2068011D21600068290501D5E3
:1011100006701BE7290701D5068017E7A90703D545
:10112000F117C0E9006111E706600FE745F04000E4
:101130006060A80723464FF0080216D41EE040F670
:101140000E0125EA0100606016E045F04000606095
:10115000A80723464FF00A0207D40FE045F04000ED
:101160006060A80708D5234610226FF001000B9994
:10117000AFF300805AE007E0234610226FF0010031
:101180000B99AFF3008051E04FF000094F464B46FA
:10119000632802D05B2807D041E02079C00601D443
:1011A0000120A06001273AE062690121019890477F
:1011B0005E2805D14FF001096269494601989047C0
:1011C000216939B900210A46534643F82120491CB8
:1011D0000829FADBB0B3216969B9C11700EBD16204
:1011E00053110AEB830122F01F02821A01200B68BF
:1011F000904003430B6062690121019890475D288C
:10120000E8D1B9F1000F09D00020514651F8202053
:10121000D24341F82020401C0828F7DB02AB2246CD
:1012200000976FF001000B99AFF3008000280CDAF3
:10123000401C08D1BBF1000F05D04FF0FF300DB0BE
:10124000BDE8F08FFFE74046F9E7E90701D108F173
:10125000010806444FF0000B78E60000CCCCCC0C23
:101260002DE9F05F82460078002715468B460AF18B
:101270000104B946302801D09DB113E014F8010BE8
:101280000127782803D0582801D045B10AE00DB1D4
:10129000102D07D10027102514F8010B02E00825B6
:1012A00000E00A250026B0460EE005FB080005FB1D
:1012B00006F1012701EB10461FFA80F8B6F5803FD2
:1012C00000D3B94614F8010B294600F04FF8002866
:1012D000EBDABBF1000F05D00FB1641E00E05446FD
:1012E000CBF80040B9F1000F06D007F0C9FF02218A
:1012F0000160C81EBDE8F09F48EA0640FAE70029F1
:10130000A8BF7047401C490008BF20F0010070478B
:1013100010B4B0FA80FC00FA0CF050EA010404BFEB
:1013200010BC704749B1CCF1200421FA04F411FA41
:101330000CF118BF012121430843A3EB0C01CB1D85
:101340004FEA00614FEA102042BF002010BC7047F6
:1013500000EBC35010440029A4BF10BC7047401CD0
:10136000490008BF20F0010010BC70473A2800D2A5
:10137000303820F02002412A01D3A2F13700884200
:1013800001D34FF0FF30704730B58C1810F8012BA7
:1013900012F00F0301D110F8013B120906D110F829
:1013A000012B03E010F8015B01F8015B5B1EF9D132
:1013B00001E001F8013B521EFBD1A142E6D300201F
:1013C00030BD10B502F056FA0421002000F05EF89E
:1013D000322009F0F1FC0321002000F057F8002032
:1013E00000F037F8032801D0012010BD002010BD07
:1013F0002DE9FC4190460D46064600246F4604F157
:101400000A00C0B200F025F83855641CE4B2062C7E
:10141000F5D39DF800004FF00001020601D53180A0
:1014200004E09DF8012062F39F003080BDF80220A7
:10143000A8F800209DF80400420602D52980BDE8E6
:10144000FC819DF8051001F03F0161F31F10288019
:10145000F5E710B5044602F0B5FA3C2002F082FA36
:1014600002F0F0FA204602F07DFA02F0EBFA02F008
:10147000A9FA3D2002F076FA02F0E4FA002002F028
:101480003DFA044602F0BEFA204610BD70B50C4687
:10149000054602F097FA3C2002F064FA02F0D2FA14
:1014A00050B9284602F05EFA02F0CCFA204602F06B
:1014B00059FA02F0C7FA18B102F0A4FA012070BD7F
:1014C00002F0A0FA002070BDFEE7000010B588B061
:1014D0000024164800940194029403940494059403
:1014E000016841F00101016000684FF0804100F0A7
:1014F000010006900E48016041F29311C0E9011409
:10150000611EC16001F0FCFE4FF4805000906946FE
:10151000074801F01EFF049404A90548059401F052
:10152000C7FE034801F008FF08B010BD4038024074
:1015300094010020704770B586B00E00054620D09B
:1015400000F06CFA0446A819401E00F067FA00216A
:10155000001B401C00910191B5F1016F01D30221E4
:1015600000E001210291CDE903400220059000F046
:1015700093FB694601A800F0F9FA044600F044FB29
:1015800014B1002006B070BD0120FBE7002229B194
:10159000012922D0022923D04FF440720B2800D910
:1015A000001D11490B6823F440730B600B68134353
:1015B0000B600A6822F0F8020A600A68F82393FABE
:1015C000A3F3B3FA83F3984040F0020002430A60A9
:1015D000086840F48030086070474FF48072DDE79F
:1015E0004FF40072DAE70000103C02401348016833
:1015F00089050FD5016821F400710160016841F48B
:1016000000610160016821F400610160016841F43A
:1016100000710160016849050FD5016821F48061FE
:101620000160016841F480510160016821F480513A
:101630000160016841F4806101607047003C024034
:101640000D48026822F440720260026802600329B9
:101650000AD0012901680CD041F400410160016801
:1016600041F4803101607047016848F2040211437F
:10167000F4E741F00401F1E7103C0240064A136828
:1016800023F44073136013681360136843F001037D
:101690001360017070470000103C0240084910B50B
:1016A0000C6824F440740C600C6844F440740C60C2
:1016B0000C6844F001040C600260436010BD00003F
:1016C000103C0240074A136823F440731360136808
:1016D00043F480731360136843F0010313600180C7
:1016E00070470000103C0240074A136823F440731F
:1016F0001360136843F400731360136843F001032D
:101700001360016070470000103C02401F490868E8
:10171000C043C2061E4805D4C26942F01002C2612D
:1017200010220A600A68D243920605D4C26942F0C8
:101730000802C26120220A600A68D243520605D418
:10174000C26942F00402C26140220A600A68D243C0
:10175000120605D4C26942F00202C26180220A6008
:101760000A68D243D20506D4C26942F00102C261BE
:101770004FF480720A600A68D243920705D4C269A6
:1017800042F02002C2610220086070470C3C024017
:10179000D001002070B5134904460020C86100F054
:1017A00087FB0546104E09E0601C07D024B100F00D
:1017B0007FFB401BA04201D9032070BD3068C043AD
:1017C000C003F1D53068C00701D001203060316816
:1017D0004FF4F970884301D0002070BDFFF796FFE9
:1017E000012070BDD00100200C3C024070B5B3F563
:1017F000804F05D06FF0704140F82210002070BD7E
:1018000050F82230084C2340D1E9004544EA051441
:101810008D688E892D0245EA064589692C430C4363
:101820001C4340F82240E9E70000F0CFF0B50C6817
:1018300050F82450194A1540D1E90123D1E9036732
:101840001A433E4332434E6932438E693243CE6976
:1018500032430E6A32434E6A32438E6A3243CE6A54
:101860003243CE6B32430E6B32434E6B32432A43CC
:10187000082B01D142F0400240F824204A6BB2F517
:10188000801F08D10A6832B14FF480720A6104499E
:101890000268114301600020F0BD00008000E0FFFD
:1018A00000011000F0B500EB820253688E8903F04E
:1018B0004044D1E9003543EA05138D682D0245EA1D
:1018C00006452B430E8A0D4D05EB065633430E7D20
:1018D0006F0107EB066633438E693343234353603E
:1018E0000268D20207D54268098A22F4700205EB29
:1018F0000151114341600020F0BD00000000F0FFE5
:1019000030B5D1E901231A43D1E9033423431A4303
:101910004B690D681A438B691A43D1E90734012DCD
:10192000496A05686FF30E0505D01A4322430A433E
:101930002A43026008E0234329430B4341680360C4
:101940006FF30E010A434260002030BD426942EA53
:101950004101416100207047F8B514460546D1E9C0
:10196000000210438A686FF01F03C96803EB42123C
:1019700042EA412108430090286100F099FA0646A6
:1019800009E0601C07D024B100F092FA801BA0424D
:1019900001D90320F8BDA8698006F2D40020F8BD63
:1019A000F0B56FF00F05D1E9003405EB04145B1EB0
:1019B0002E0123438C682F0306EB04244FEA054CC9
:1019C00023430D8A8E8ACC68097E4FF07F4E07EB49
:1019D00005450CEB06560EEB0161012A0CD082681E
:1019E0003F1107EB043423432B43334302F070428F
:1019F0000B43134383600FE0C2682B430B4302F099
:101A000070428168134301F070422103A1F58051B7
:101A100031431143C36081600020F0BD3A498842E0
:101A200001D2002070473949884201D20120704715
:101A30003749884201D2022070473649884201D294
:101A4000032070473449884201D20420704733494B
:101A5000884201D2052070473149884201D20620D0
:101A600070473049884201D2072070472E4988428A
:101A700001D2082070472D49884201D209207047C1
:101A80002B49884201D20A207047B0F1016F01D280
:101A90000B2070472749884201D20C207047264905
:101AA000884201D20D2070472449884201D20E207D
:101AB00070472349884201D20F207047214988424C
:101AC00001D2102070472049884201D2112070476E
:101AD0001E49884201D2122070471D49884201D216
:101AE000132070471B49884201D2142070471A49BD
:101AF000884201D2152070471849884201D2162029
:101B00007047172070470000004000080080000860
:101B100000C00008000001080000020800000408DE
:101B2000000006080000080800000A0800000C0871
:101B300000000E08004010080080100800C01008C7
:101B40000000110800001208000014080000160828
:101B50000000180800001A0800001C0800001E08F9
:101B600001480068406A7047940100202DE9F04761
:101B7000044623480E46017E01290AD001218046F1
:101B800001764CF250394846FFF704FE020003D0BC
:101B900030E00220BDE8F0874FF0FF303060206871
:101BA000184F012801D0A5681DE0207C6168FFF76F
:101BB00047FD4846FFF7EEFD0246386848F204014B
:101BC0008843386014E0217C2846FFF7DFFC484654
:101BD000FFF7E0FD0200386820F0FA00386001D01D
:101BE000356005E06D1CD4E902100844A842EAD82B
:101BF000FFF7FCFC002188F818101046CAE7000027
:101C0000D0010020103C02400348016841F000412F
:101C10000160002070470000103C02402DE9F047B1
:101C20001B4E05461446307E1F468946012808D0C3
:101C3000012030764CF250384046FFF7ABFD18B12A
:101C400014E00220BDE8F0879DB1012D16D0022DD1
:101C500019D022463B464846FFF720FD4046FFF795
:101C600099FD0C490A6822F001020A6000213176D0
:101C7000E8E7E1B24846FFF701FDEFE7A1B24846C9
:101C8000FFF720FDEAE721464846FFF72DFDE5E78F
:101C9000D0010020103C024006480068002807DA06
:101CA000044805490C380160044901600020704770
:101CB00001207047103C024023016745AB89EFCDFE
:101CC0002DE9F84FDFF8A091002209F1040A0AF18A
:101CD000040B4FF00F080BF1040E01260B68964021
:101CE0003340B34271D14C68022C01D0122C11D177
:101CF000D40800EB84073D6A5407E40E08FA04FC9C
:101D000025EA0C05D1F810C00CFA04FC4CEA050CCD
:101D1000C7F820C007685400032591F804C0A54007
:101D20000CF0030CAF430CFA04FC4CEA070CC0F8AF
:101D300000C04F68012F05D0022F03D0112F01D012
:101D4000122F11D18768D1F80CC0AF430CFA04FCF4
:101D50004CEA070CC0F808C04768B7430E79C6F3D1
:101D6000001696403E434660C668AE438D68A54067
:101D70003543C5604C68E4006FD53C4C256845F49C
:101D800080452560246822F0030504F48044009413
:101D9000374C2E19D6F808789407250F08FA05F461
:101DA000A743344CA04201D100242EE0324CA04283
:101DB00001D1012429E0314CA04201D1022424E0C8
:101DC0002F4CA04202D103241FE046E02D4CA0423C
:101DD00001D1042419E02C4CA04201D1052414E0C7
:101DE0002A4CA04201D106240FE0294CA04201D187
:101DF00007240AE0274CA04201D1082405E0264C24
:101E0000A04201D1092400E00A24AC403C43C6F8BA
:101E10000848D9F800404D464E689C43F60300D56B
:101E20001C432C60DAF8004055464E689C43B603CC
:101E300000D51C432C60DBF800405D464E689C4397
:101E4000F60200D51C432C60DEF8004075464E6853
:101E50009C43B60200D51C432C60521C102AFFF490
:101E60003CAFBDE8F88F0000003C01404438024020
:101E7000003001400000024000040240000802401F
:101E8000000C024000100240001402400018024002
:101E9000001C02400020024000240240006908406B
:101EA00000D0012070470AB1816170470904FBE747
:101EB00001480068704700003C00002010B5040095
:101EC00002D0607B10B106E0012010BD002020731D
:101ED000204600F018F802206073216845F2555042
:101EE000086020684168626821F007011143416081
:101EF00020688168A2686FF30B01114381600120A3
:101F00006073002010BD70472DE9F0410446007B4E
:101F100001280AD00126267302206073FFF7C8FF4C
:101F2000054600274FF47A780BE00220BDE8F081E7
:101F3000FFF7BEFF401B404503D9032060732773A2
:101F4000F4E72068C068C0438007F1D521684AF6ED
:101F5000AA200860667327730020E7E7017B012948
:101F60000FD001210222427303684CF6CC421A6062
:101F700003684AF6AA221A604173002101730846D9
:101F8000704702207047000002480168491C016048
:101F9000704700003C0000200B4810B5016841F478
:101FA00000710160016841F480610160016841F4E1
:101FB00080710160052000F0BFF90F2000F006F8E5
:101FC00000F08AF9002010BD003C024010B5044624
:101FD00000F060FC4FF47A71B0FBF1F001F054F9BD
:101FE00000222146501E00F087F9002010BD2DE987
:101FF000F041044690F8A00015460F4601281DD078
:10200000012684F8A060022084F8A10005EB850079
:1020100000EBC50004EB800034223830FEF746F9AF
:102020002A463946204605F0AFF92068466284F812
:10203000A160002084F8A000BDE8F0810220FBE749
:1020400070B5040004D094F8A100002510B106E09A
:10205000012070BD84F8A050204600F06FF80220E7
:1020600084F8A1002068816921F070418161D4E980
:1020700001100143D4E9030210430143206882693F
:1020800011438161206882682B490A408260A08ADE
:10209000020420688368A669334313438360206881
:1020A000C2680A40C260A08B02042068C368266A26
:1020B00033431343C360206802690A400261A08C65
:1020C000020420680369A66A33431343036120684E
:1020D00042690A404261A08D010420684269236B75
:1020E0001A430A43426194F83500020294F836001C
:1020F00001042068C36A03F07F43C3622068C36A97
:1021000094F83460114333430B43C3622068416B3E
:1021100041F0040141632068416B41F002014163D9
:102120002068816941F001018161C4F8A450012057
:1021300084F8A100002070BD00F800F030B53648EA
:1021400087B00025016841F080610160006800F0FF
:102150008060059030481438016841F40001016046
:10216000016801F400010591016841F0020101607C
:10217000016801F002010591016841F02001016050
:10218000016801F020010591016841F04001016002
:10219000016801F040010591016841F08001016092
:1021A000016801F080010591016841F480710160CE
:1021B0000068032400F48070059020200090012026
:1021C000CDE90204019069461448FFF779FD4FF408
:1021D000806000900220CDE901050E20CDE903408A
:1021E00069460F48FFF76CFD4FF40C60009069469C
:1021F0000C48FFF765FD4FF47E40009069460A48A1
:10220000FFF75EFD40F2F760009069460748FFF770
:1022100057FD07B030BD00004438024000040240C2
:102220000014024000180240001C0240002002403E
:1022300070B5044690F8A0000E46012820D0012574
:1022400084F8A050022084F8A10003EB830000EB87
:10225000C30004EB800141F8386F886A3044C1E95B
:102260000102C86A1044C8601A46204605F08CF87E
:102270002068456284F8A150002084F8A00070BD59
:10228000022070BD2DE9F041044690F8A0000F46F1
:1022900001281FD0012584F8A050022084F8A10055
:1022A00003EB830000EBC30004EB80010026E1E9AF
:1022B0000E672046C1E90262C1E90A721A4605F0BA
:1022C00063F82068456284F8A15084F8A06000207B
:1022D000BDE8F0810220FBE708B50020009008BDB2
:1022E00000F01F02012191404009800000F1E02030
:1022F000C0F8001170470000F0B40E4B1B68C3F328
:102300000223C3F10704042C00D904241D1D072D4A
:1023100001D2002300E0DB1E012606FA04F56D1E43
:102320000D409D409E40761E164045EA0601F0BCD9
:1023300005F0BDBF0CED00E0064A00F00701106893
:102340004FF6FF03184040EA01200349084310609C
:10235000704700000CED00E00000FA052DE9F8439D
:102360001D48016841F0805101600068012700F0BC
:1023700080500090380490FAA0F0DFF86080B0FA46
:1023800080F048F82070FFF793FD04464FF47A750B
:10239000134E04E0FFF78CFD001BA84213D87068B1
:1023A000C003F7D54FF4003090FAA0F0B0FA80F0F7
:1023B00048F82070FFF77CFD044607E0FFF778FD42
:1023C000001BA84202D90320BDE8F883706880038F
:1023D000F4D50020F8E700004038024000000E422B
:1023E000007000402DE9F84F04460068DFF878825D
:1023F0009E4DC10747F6C07A4FF0E0464FF0010B03
:102400004FF0000901D180074BD59949C1F8689078
:10241000FFF74EFD074604E0FFF74AFDC01B6428A6
:102420007ED828680001F7D420789249C0070DD0E3
:102430009AFAAAF26068B2FA82F2904096FAA6F38B
:10244000A268B3FA83F39A401043086020788007AB
:1024500018D5086896FAA6F200F0E040B2FA82F2C7
:10246000D0406268237B920142EA036242EA007034
:102470000860D8F80010E26921F01F01521E1143D4
:10248000C8F800107A49C1F868B0FFF711FD074697
:1024900004E0FFF70DFDC01B642841D82868000147
:1024A000F7D52068410701D4000776D57049C1F8F7
:1024B0007090FFF7FDFC074604E0FFF7F9FCC01B36
:1024C00064282DD82868C0438000F6D520786A4F4C
:1024D00040074FF0706C29D5386896FAA6F100F0E5
:1024E000E040B1FA81F1C8409AFAAAF22169B2FA41
:1024F00082F291409CFAACF36269B3FA83F39A409A
:10250000114396FAA6F2B2FA82F290400143396082
:10251000D8F800106FF0FF0321F4F851226A00E0B0
:1025200079E003EB02221143C8F80010207800077D
:1025300023D538689CFAACF100F07060B1FA81F1F3
:10254000C8409AFAAAF22169B2FA82F291409CFA42
:10255000ACF2B2FA82F29040014396FAA6F2A06978
:10256000B2FA82F2904001433960D8F80010626AF2
:1025700021F440311143C8F800103D49C1F870B052
:10258000FFF796FC064604E0FFF792FC801B6428E8
:1025900041D82868C0438000F6D42078800651D501
:1025A00032484F464030016841F080510160006878
:1025B000324E00F080500090306840F480703060FF
:1025C000FFF776FC054604E0FFF772FC401B642829
:1025D00021D83068C005F7D5264E143E3068218DCD
:1025E00000F4407001F4407188422BD030682449D7
:1025F00020F44070C1F800B00F603060800710D543
:10260000FFF756FC054641F2883707E0FFF750FC1C
:10261000401BB84202D90320BDE8F88F306880071C
:10262000F4D5A06A1149C0F301220831032A13D05E
:10263000086820F4F81008603068218DC1F30B01A0
:10264000084330602078C00604D50E4994F82C0069
:10265000C1F8E0010020DFE70A680B4B22F4F81212
:10266000184002430A60E7E78C3802400038024015
:102670000000474284380240883802400070004021
:10268000400E474200104742FFFCFF0F2DE9F05F6C
:10269000DFF8F8A104460F46DAF80000DFF8F08111
:1026A00000F00F02C8B27A49814641F2883608F13B
:1026B0000808BA4261D202468AF80020DAF800001F
:1026C00000F00F00B8427DD12078800707D5D8F8F8
:1026D0000020A36822F0F0021A43C8F800202078F6
:1026E000C0072DD0606801281AD002281BD003280B
:1026F00019D009688907002964DAD8F8001047461C
:1027000021F003010143C8F80010FFF7D1FB054693
:10271000606801280FD0022818D003281CD027E0B9
:1027200009688903E7E709688901E4E7FFF7C0FB67
:10273000401BB04258D83868C0F381000128F5D159
:1027400088E0FFF7B5FB401BB0424DD83868C0F3B6
:1027500081000228F5D17DE03868FFF7A9FB401B16
:10276000B042F9D940E0FFF7A3FB401BB0423BD891
:10277000386810F00C0FF6D16CE02078800707D590
:10278000D8F80020A36822F0F0021A43C8F800200D
:102790002078C0074CD06068012828D0022829D0B2
:1027A000032827D009688907002949DAD8F80020CA
:1027B00022F003020243C8F80020FFF779FB054628
:1027C000606800E03CE001281DD0022829D00328E1
:1027D00038D0B3464646306810F00C0F28D0FFF7CB
:1027E00067FB411B5945F6D90320BDE8F09F0968F6
:1027F0008903D9E709688901D6E7FFF759FB411B2F
:10280000594502D9F0E7B34646463068C0F3810027
:102810000128F2D10CE0FFF74BFB411B594502D9CF
:10282000E2E7B34646463068C0F381000228F2D1A1
:102830008AF80090DAF8000000F00F00B84209D0E2
:102840000120D2E744462068FFF732FB401BB0422C
:10285000F9D9C9E72078400707D5D8F80010E26811
:1028600021F4E0511143C8F800102078000708D582
:10287000D8F80010226921F4604141EAC201C8F889
:1028800000100F20FFF7A2FB0020AEE7003C024043
:102890000038024010B500F043F808490968F022FA
:1028A00092FAA2F201F0F001B2FA82F2D140044AA7
:1028B000515CC8400349086010BD00000838024060
:1028C000501003082800002010B5FFF7E3FF074968
:1028D00009684FF4E05292FAA2F201F4E051B2FA20
:1028E00082F2D140024A515CC84010BD0838024013
:1028F0005010030810B5FFF7CDFF074909684FF4E2
:10290000604292FAA2F201F46041B2FA82F2D1403E
:10291000024A515CC84010BD0838024050100308FC
:1029200030B51948006810F00C01184812D0184C46
:1029300004290ED008290DD1134A121F11681368FB
:1029400001F03F015D0247F6C07304D5B4FBF1F01E
:1029500003E0204630BDB0FBF1F01168194093FA56
:10296000A3F3B3FA83F3D940484311684FF44032DC
:1029700092FAA2F201F44031B2FA82F2D140491C3B
:102980004900B0FBF1F030BD083802400024F400EB
:1029900040787D012DE9F84F04460078DFF8FCA26D
:1029A000BF4DC0074FF0000648D0DAF8001050467F
:1029B000C1F38101012908D00068C0F38100022819
:1029C0000AD1281D0068400206D52868800335D545
:1029D0006068002873D031E0DFF8C49209F1020981
:1029E00089F80060FFF764FA074641F2883804E08E
:1029F000FFF75EFAC11B41457AD828688003F7D4F7
:102A0000207989F80000606860B1FFF751FA074645
:102A100004E0FFF74DFAC11B4145EDD8286880035B
:102A2000F7D50BE0FFF744FA074604E0FFF740FA5A
:102A3000C11B4145E0D828688003F7D42078DFF82F
:102A40006492800744D5DAF80010504611F00C0F5C
:102A50004FF0F80809D00068C0F3810002280BD1BC
:102A60008E48001F0068400206D42868800714D5ED
:102A7000E068012823D110E0E068D0B10120C9F856
:102A80000000FFF715FA074604E0FFF711FAC01B34
:102A90006428B1D828688007F7D5286898FAA8F282
:102AA0002169B2FA82F220F0F800914008432860D0
:102AB0000EE0C9F80060FFF7FBF9074605E0EAE021
:102AC000FFF7F6F9C01B642812D828688007F7D4EE
:102AD0002078000725D5DFF8C4817348616908F1C3
:102AE0006C0881B101210160FFF7E2F9074605E0BA
:102AF0007EE0FFF7DDF9C01B642879D8D8F8000024
:102B00008007F6D50DE00660FFF7D2F9074604E02E
:102B1000FFF7CEF9C01B64286AD8D8F800008007F8
:102B2000F6D42078400753D55C483830016841F02E
:102B3000805101600068DFF8748100F080500090DF
:102B4000D8F8001041F48071C8F80010FFF7B0F910
:102B5000074604E0FFF7ACF9C01B642848D8D8F852
:102B60000000C005F6D5DFF834B10BF1680B8BF827
:102B70000060FFF79DF9074641F2883804E0FFF74F
:102B800097F9C11B41457ED8DBF800008007F6D4D9
:102B9000207A8BF80000A06868B1FFF789F9074632
:102BA00004E0FFF785F9C11B41456CD8DBF8000054
:102BB0008007F6D50CE0FFF77BF9074604E0FFF746
:102BC00077F9C11B41455ED8DBF800008007F6D4D9
:102BD000A069E8B3DAF80010C1F3810102295AD0E4
:102BE000022806D0C9F86060FFF762F904464DE09C
:102BF00049E04F46C9F86060FFF75AF9064604E01D
:102C0000FFF756F9801B64283DD828688001F7D467
:102C1000D4E90701084347F6C07191FAA1F1626A4D
:102C2000B1FA81F18A40A16A4FF0FF3303EB510101
:102C30004FF4403393FAA3F3B3FA83F399400A4372
:102C400010434FF0706292FAA2F2B2FA82F200E000
:102C50001FE0E16A914008431049091F0860012004
:102C60003866FFF725F9044604E0FFF721F9001B59
:102C7000642808D828688001F7D50AE0FFF718F91A
:102C8000001B642802D90320BDE8F88F2868800162
:102C9000F4D40020F8E70120F6E7000008380240ED
:102CA0000038024000004742800E4742007000405A
:102CB00070B50D46040003D094F82C0010B107E065
:102CC000012070BD002084F82D00204600F012F88D
:102CD000022084F82C00211D2068FEF711FED4E9A3
:102CE00000022946FEF75CFE012084F82C0000203B
:102CF00070BD0000304800B5016887B041F00101A7
:102D00000160006800F0010005902B480838016858
:102D100041F004010160016801F0040105910168BE
:102D200041F008010160016801F0080105910168A6
:102D300041F010010160016801F010010591016886
:102D400041F020010160016801F020010591016856
:102D500041F0400101600068694600F040000590C4
:102D60000D2000900220019001200290032003908A
:102D70000C2004901148FEF7A3FF4CF20370009062
:102D800069460F48FEF79CFF4FF683700090694636
:102D90000C48FEF795FF4FF63F00009069460A4841
:102DA000FEF78EFF48F23710009069460748FEF79D
:102DB00087FF07B000BD000038380240000802401D
:102DC000000C0240001002400014024000180240B3
:102DD00010B5044690F82C00022809D0022084F88F
:102DE0002C002068FEF7B2FD012084F82C000020A2
:102DF00010BD70B5044690F82C000D4602280CD08A
:102E0000022084F82C002068FEF7A6FD286802281E
:102E100004D0012084F82C00002070BD0520F9E7C3
:102E200070B5040004D094F85100002510B106E0FC
:102E3000012070BD84F85050204600F033F8022085
:102E400084F851002068016821F040010160D4E954
:102E500001010843D4E9031211430843616908439F
:102E6000218B01F400710843E1690843216A08439A
:102E7000A16A084321680860A069042101EA1040A2
:102E8000616A0843216848602168E06A0861206837
:102E9000C16921F40061C1616565012084F85100B8
:102EA000002070BD124800B5016887B041F02001D4
:102EB0000160006800F0200005900D4814300168A2
:102EC00041F4801101600068012100F48010059038
:102ED0004FF4607000900220CDE9010103900520BD
:102EE000049069460348FEF7EBFE07B000BD000002
:102EF00030380240001402402DE9F843044690F8AF
:102F00005100DDF82080012801D022287ED169B14E
:102F100062B15BB194F85000012877D0012784F8A2
:102F2000507094F85100012803D005E00120BDE85D
:102F3000F883322084F8510000266665A263A387D7
:102F4000E3872163A386E386A664E664A06A4FF460
:102F50000055A84209D12068016821F400510160A0
:102F60002068016841F40051016020680168490649
:102F700003D4016841F040010160E0684FF48271C0
:102F8000B0F5006F606807D0002867D088426ED126
:102F9000E08E012862D06AE020B188420CD1E08E38
:102FA000012809D1206B21680088C860206B801C33
:102FB0002063E08E401EE086E08E80B9A06AA842C1
:102FC00044D12068016841F4805101603EE02068EE
:102FD000C068A16B0880A06B801CA0639EE0434684
:102FE00000220221204605F0D9FB002874D1206B75
:102FF00021680088C860206B801C2063E08E401E22
:103000000004000CE08609D1A06A00E0C7E0A842F5
:1030100004D12068016841F48051016043460022D8
:103020000121204605F0BAFB00286FD12068C06856
:10303000A16B0880A06B801CA063E08F401EE0871E
:10304000E08E0028CBD1606800286AD14346002278
:103050000121204605F0A2FBF0BBB8E7206B411C24
:10306000216321680078C860E08E401EE086E08E13
:1030700098B9A06AA84204D12068016841F480513F
:103080000160434600220121204605F087FB18BB62
:103090002068C068A16B087040E04346002202210E
:1030A000204605F07BFBB8B9206B411C21632168E9
:1030B0000078C860E08E401E0004000CE08607D156
:1030C000A06AA84204D12068016841F480510160DF
:1030D00000224346012100E018E0204605F05EFB97
:1030E000A0B92068C168A06B421CA2630170E08F88
:1030F000401EE087E08E0028CFD1606888B9434643
:1031000000220121204605F049FB08B103200EE70B
:103110002068C168A06B421CA2630170E08F401E52
:10312000E087A06AA84210D1434600220121204630
:1031300005F034FB18B1606D40F002000FE020682C
:10314000C068ADF80000BDF80000434601228021B0
:10315000204605F023FB20B1606D40F02000606543
:10316000D4E784F8517020688168A26AC1F3001125
:10317000AA4210D179B1616D41F002016165016827
:1031800021F4005101602068016841F400510160A0
:1031900084F85060CAE684F850600020C7E6022038
:1031A000C5E670B515460E46040003D094F84900F4
:1031B00010B107E0012070BD002084F848002046CF
:1031C00000F01AF804F108012068FEF72FFB3146E1
:1031D000A2682068FEF766FBD4E901022946236B4A
:1031E000FEF704FBA168206850F8212042F001029C
:1031F00040F82120002070BD1A4800B5016887B052
:1032000041F001010160006800F0010005901548DF
:103210000838016841F008010160016801F0080107
:103220000591016841F0100101600068694600F0F5
:10323000100005904EF2B370009002200190012022
:103240000290032003900C2004900748FEF738FDFD
:103250004FF68070009069460448FEF731FD07B0D4
:1032600000BD000038380240000C0240001002404F
:103270004FF0E0210428086903D020F00400086121
:10328000704740F00400FAE710B5401EB0F1807FAF
:1032900001D3012010BD4FF0E02460610F216017C1
:1032A00005F005F80020A06107202061002010BD76
:1032B00030B590F83820012A20D0012380F838302A
:1032C000022280F839200268546824F070045460A7
:1032D000026854680D682C4354600268946824F0B6
:1032E000800494600268946849680C43946080F894
:1032F0003930002180F83810084630BD022030BD3A
:1033000010B5040003D094F8390010B107E0012093
:1033100010BD002084F83800204600F00CF8022090
:1033200084F83900211D206805F000FB012084F895
:103330003900002010BD7047022180F83910016863
:103340000A6842F001020A60012180F83910002069
:10335000704770B5044690F83800012817D0012551
:1033600084F83850022084F839002068826822F0FE
:10337000770222F47F4282600868502836D00DDC44
:10338000202858D005DC80B3102840D150E002201E
:1033900070BD302852D0402839D13EE060282DD071
:1033A00070280BD0B0F5805F03D0B0F5005F2ED150
:1033B00010E02068816821F0070109E0CB68D1E9BD
:1033C0000121206805F012FB2068816841F0770137
:1033D00081601CE0CB68D1E90121206805F006FB83
:1033E0002068816841F48041F2E71EE0CA684968BC
:1033F000206805F00DFB5021206806E0CA68496886
:10340000206805F016FB6021206805F0F9FA84F8C1
:103410003950002084F8380070BDCA6849682068B7
:1034200005F0F6FA40212068EFE700212068ECE77C
:1034300010212068E9E720212068E6E73021206894
:10344000E3E7704790F83900704738B501680446E3
:103450000868CA68C0F3000002F4807238B132B163
:10346000086848680090E06B40F00100E06308687D
:103470004A69C0F3400002F0010238B132B1086875
:1034800048680090E06B40F00400E06308684A6917
:10349000C0F3800002F0010238B132B10868486818
:1034A0000090E06B40F00200E06308684A69C0F3F6
:1034B000C00002F0010238B132B1086848680090DB
:1034C000E06B40F00800E0630868C968C0F3401092
:1034D00001F0200118B111B1204605F0BCFA2068B6
:1034E0000168C068C1F3C01100F0800019B110B1CB
:1034F000204605F0BDFB21680868CA68C0F380104B
:1035000002F04002012568B162B1CA68204622F08B
:103510004002CA6094F8391032290CD080F8395032
:1035200000F086F9E06B002804D084F8395020467A
:10353000FFF787FF38BD222180F83910F0E770B51A
:10354000040004D094F83900002510B106E00120F1
:1035500070BD84F83850204600F020F8022084F82E
:1035600039002068C16821F40051C160204605F08F
:10357000C5FA2068016921F4904101612068416920
:1035800021F02A0141612068C16841F40051C16005
:10359000E563012084F83900002070BD2DE9F04179
:1035A00004463D4A016800273C4802250726DFF80B
:1035B000F0808CB091422DD1016841F00101016091
:1035C000006800F001000A9034481430016841F0AE
:1035D00010010160006805A900F010000A90501564
:1035E000CDE9050507AA012082E861004046FEF703
:1035F00067FB6902059105A94046FEF761FB25209E
:10360000FEF76EFE032211462520FEF775FE0CB074
:10361000BDE8F081234A9142F9D1016841F00201ED
:103620000160016801F002010A91016841F00201A4
:103630000160006800F002000A901848103001682C
:1036400041F4003101600068694600F400300A90DE
:1036500004208DE8A100CDE903564046FEF730FB7B
:1036600008208DE8A100CDE9035669464046FEF7E3
:1036700027FB002206212620FEF73EFE2620FEF72D
:103680002FFE2068C16841F02001C1602068C16838
:1036900041F01001C160BAE700100140303802402B
:1036A000000002400044004090F83930012B01D066
:1036B000122B2BD131B32AB390F83830012B25D0FF
:1036C000012380F8383081628285C2850022C2637E
:1036D00090F83910122917D0222180F8391001688A
:1036E000CB6843F48073CB6001684B6943F00103FE
:1036F0004B6180F838200068C16841F02001C1604A
:1037000000207047012070473221E6E70220704711
:1037100030B50068114988420CD1114A5088010423
:1037200008D41146440409784FF0000306D50A294D
:1037300001D0538030BD40F400400DE00D2909D088
:10374000C0F30D04074D401C80B229555080C72896
:10375000EFD830BD40F48040508030BD00100140B3
:1037600048000020F00100202DE9F047044690F8C1
:10377000390099460D46012801D0222856D125B39B
:103780001AB394F83800012850D0012684F8386024
:103790000027E76394F83900222819D0122084F812
:1037A0003900A284E2844FF48058E08C4B46401EDE
:1037B000E084A0684FF0000240454FF080012046B1
:1037C00013D105F088FA08BB04E00120BDE8F087BA
:1037D0003220E4E728882168C0F3080048602069A7
:1037E00008B16D1C08E0AD1C06E005F074FA68B97C
:1037F000216815F8010B4860E08C0028D5D14B46B4
:1038000000224021204605F066FA08B10320DDE7DA
:1038100094F83900322805D084F8396084F838707B
:103820000020D3E7222084F83900F7E70220CDE713
:103830007047FEE770B50D4C0025C4F890520C4857
:10384000016821F440610160016841F48061016018
:10385000C4F89452022004F5247407F0C9FA012038
:103860002060022007F0C4FA256070BD008043424A
:10387000001C02400E4810B5016886B041F080017E
:1038800001600068012400F0800005903020CDE93F
:1038900000040220CDE9024069460648FEF710FA0E
:1038A0000548C0F89442C0F8904206B010BD000030
:1038B00030380240001C02400080434270B50D4C7D
:1038C0000026C4F890620C48016821F44061016050
:1038D000016841F4806101600125C4F8945202201E
:1038E00004F5247407F084FA2560022007F080FABA
:1038F000266070BD00804342001C02402DE9F04765
:10390000814616480024016821F440610160016885
:103910000160134E254627464FF00108C6F8907205
:10392000022007F065FAC6F890826006040ED6F809
:10393000140208B1641CE4B2012007F059FA6D1CAE
:10394000EDB2082DEAD3B9F1000F04D0FFF772FFF2
:103950002046BDE8F087FFF7B1FFF9E7001C024001
:10396000008043422DE9F04105461448016821F4E6
:1039700040610160016841F480610160104E0027E0
:10398000C6F890723C464FF00108E809C6F8940268
:103990006806050E022007F02BFAC6F89082022076
:1039A00007F026FAC6F89072022007F021FA641C8C
:1039B000E4B2082CE9D3BDE8F0810000001C02400D
:1039C0000080434270B50D48016821F440610160F8
:1039D000016841F480610160094C0120C4F894023F
:1039E000C4F89002042004F5247407F001FA0025BD
:1039F0006560042007F0FCF9256070BD001C0240E2
:103A00000080434270B50D48016821F440610160B7
:103A1000016841F480610160094C0020C4F8900203
:103A2000C4F89402042004F5247407F0E1F9012598
:103A30002560042007F0DCF9656070BD001C0240C1
:103A40000080434270B512480024016821F44061AF
:103A50000160016801600F4D0126C5F8946230468F
:103A600007F0C6F9C5F89062012007F0C1F907E038
:103A7000641CE4B2FA2C03D9FFF7C4FF012070BD27
:103A8000D5F814020028F3D1C5F8900270BD0000EB
:103A9000001C02400080434270B51B4886B00025E0
:103AA000016841F001010160016801F00101059127
:103AB000016841F004010160016801F00401059111
:103AC000016841F0800101600068032400F080007B
:103AD000059002200126CDE90204CDE90065694682
:103AE0000A48FEF7EDF8700303948DE8610069461B
:103AF0000748FEF7E5F80C20009069460548FEF7F8
:103B0000DFF806B070BD000030380240000002400F
:103B100000080240001C02402DE9F0470126304C0D
:103B20007703DFF8C080DFF8C090304D01281DD04A
:103B30002078A0B108212846FEF7B0F9C0B10421D1
:103B40002846FEF7ABF998B139464046FEF7A6F98C
:103B500070B101214846FEF7A1F9012808D00821DB
:103B60002846FEF79BF9012826D037E02670E1E7CA
:103B70000A2007F021F90020207008212846FEF7CE
:103B80008DF980B104212846FEF788F970B13946D5
:103B90004046FEF783F958B101214846FEF77EF909
:103BA000012807D01AE00120BDE8F0870220FBE7DA
:103BB0000320F9E70420F7E704212846FEF76EF911
:103BC00001280BD139464046FEF768F9012805D196
:103BD00001214846FEF762F900B926700020E3E7AC
:103BE000500000200008024000000240001C02407B
:103BF00070B50E490E4A064608881268002422B1A4
:103C00003046BDE8704003F073B94D88002145434C
:103C1000084602F0D1FF03F033F9B1B2054801E0E4
:103C20000180641CAC42FBD370BD0000480300203F
:103C300034040020000008602DE9F05F3E4C3F4D49
:103C4000A071296839B103F073F9E88A2080288BC4
:103C50006080BDE8F09F38492C252B2689884FF0DD
:103C6000F00845F210594FF4305A4FF4285B4FF4E6
:103C70002C5E2A274FF448734FF4A07C4FF4F07267
:103C800060B1A4F800C0A4F80280494532D1A4F87C
:103C900008A0A4F80AB0A4F80CE042E0A4F8008060
:103CA000A4F802C0494506D1A4F808A0A4F80AB0B7
:103CB000A4F80CE011E0A1F5C850633825810AD0C2
:103CC0006781A681A1F5A640103809D0A1F5EE4084
:103CD000963805D007E06681A78122806380F1E7EE
:103CE000A4F800C06280A1F5184006381FD12280D8
:103CF00063801CE0A1F5C85063380FD0A1F51840CF
:103D000006380BD025816781A681A1F5A640103821
:103D10000AD0A1F5EE40963806D008E025816781EB
:103D2000A68123806280F0E72280A4F802C0BDE86B
:103D3000F05F002002F06EBE480300203404002033
:103D40002DE9F041044634480D46006820B1204674
:103D5000BDE8F04103F000B9304E270A3046B18883
:103D60004089A1F5AA434FEA1528103B0FD0A1F5D1
:103D7000C853633B24D003F077F8384603F068F863
:103D8000E0B203F065F8B08903F06EF836E003F0B6
:103D90006BF8384603F05CF87089401C80B203F081
:103DA00063F8E0B203F054F8B08903F05DF84046E0
:103DB00003F04EF8B089401C80B203F055F820E0C3
:103DC000B17919B93188091B491E8CB203F04CF83E
:103DD000270A384603F03CF8E0B203F039F83846D9
:103DE00003F036F8E0B203F033F8B08903F03CF8A2
:103DF000404603F02DF8E8B203F02AF8404603F0FD
:103E000027F8E8B203F024F8054930890880881CB7
:103E10000280BDE8F0810000340400204803002047
:103E2000FEFF07602DE9F8431F46144B80460898B3
:103E30001B6833B100903B46404603F0ABF8BDE849
:103E4000F883A2EB0802521C96B20C4685B2DFF84A
:103E500030900FE02146404602F0AEFE03F010F82D
:103E60000020494602E00D80401C80B2B042FAD3E7
:103E7000641CA4B2BC42EDD9E1E700003404002088
:103E8000000008602DE9F04F95B003F021FAF84CDE
:103E900047F2897545F21036A08045F2105947F275
:103EA000967849F6060A41F6631B18B103F0CCF880
:103EB00002F03BBDEF480027016841F002010160BC
:103EC000006810A900F0020000902020109001204E
:103ED0001190129003201390E748FDF7F1FEE4489B
:103EE0004FF02041503802AA0160E449C0E90117AF
:103EF0001021C760C0E9047187610902C761C0E988
:103F000009718900C0E90B7189014763C0E90E712D
:103F100046210B910F20CDE90907CDE90207049056
:103F2000D3480F9709A908975038FFF73AF932207C
:103F300006F042FFD32002F097FF02F039FDA08087
:103F400002F036FDA08002F033FD4FF6FF7707EA5E
:103F50000020A08002F02CFDA1880843A0F51341A9
:103F6000A08041397DD0042002F07EFF02F020FDC8
:103F7000A08002F01DFDA08002F01AFD07EA0020DB
:103F8000A08002F015FDA1880843A0F50541A0809E
:103F9000523967D0A84264D0D42002F065FF02F005
:103FA00007FDA08002F004FDA08002F001FD07EAF9
:103FB0000020A08002F0FCFCA1880843A080B04251
:103FC00076D0D32002F050FF02F0F2FCA08002F085
:103FD000EFFCA08002F0ECFC07EA0020A08002F0D9
:103FE000E7FCA1880843A080404561D055214FF4EB
:103FF000704002F04FFFAA214FF2010002F04AFF89
:1040000052214FF2020002F045FF08214FF2030057
:1040100002F040FF01214FF2040002F03BFF4FF499
:10402000454002F021FF02F0C3FC07EA0020A08017
:104030004CF2015002F018FF02F0BAFCA1880843CC
:10404000A080052006F0B8FEA188494530D0D320D5
:1040500002F00AFF02F0ACFCA08002F0A9FCA080F4
:1040600001E020E020E002F0A3FC07EA0020A080AD
:1040700002F09EFCA1880843A080504518D0A120E2
:1040800002F0F2FE02F094FCA08002F091FC07EA3C
:104090000020A08002F08CFCA1880843A0F5AE416E
:1040A000A080613902D003E0A58001E0A4F804B04B
:1040B000A18873A005F094F8A088A0F513414139B8
:1040C0007ED0A8427DD1112002F0CEFE782006F0ED
:1040D00073FE362002F0C8FE002002F0B9FE3A203E
:1040E00002F0C2FE052002F0B3FEB22002F0BCFED8
:1040F0000C2002F0ADFE0C2002F0AAFE002002F01F
:10410000A7FE332002F0A4FE332002F0A1FEB72068
:1041100002F0AAFE352002F09BFEBB2002F0A4FEB6
:10412000322002F095FEC02002F09EFE0C2002F02C
:104130008FFEC22002F098FE012002F089FEC3200B
:1041400002F092FE102002F083FEC42002F08CFEEA
:10415000202002F07DFEC62002F086FE0F2002F035
:1041600077FED02002F080FEA42002F071FEA12094
:1041700002F06EFEE02002F077FED02002F068FE32
:10418000002002F065FE022002F062FE072002F02D
:104190005FFE0A2002F05CFE282002F059FE322069
:1041A00002F056FE442002F053FE422002F050FE80
:1041B000062002F04DFE0E2002F04AFE122001E021
:1041C00066E077E102F044FE142002F041FE172081
:1041D00002F03EFEE12002F047FED02002F038FE61
:1041E000002002F035FE022002F032FE072002F02D
:1041F0002FFE0A2002F02CFE282002F029FE31209A
:1042000002F026FE542002F023FE472002F020FE9A
:104210000E2002F01DFE1C2002F01AFE172002F0F4
:1042200017FE1B2002F014FE1E2002F011FE2A20B1
:1042300002F01AFE002002F00BFE002002F008FE41
:10424000002002F005FEEF2002F002FE2B2002F01B
:104250000BFE002002F0FCFD002002F0F9FD012021
:1042600002F0F6FD3F2002F0F3FD292002F0A0BA93
:10427000480300203038024000040240040100A03E
:10428000204C43442049443A25780D0A00000000A0
:10429000CF2002F0E9FD002002F0DAFDC12002F09B
:1042A000D7FD302002F0D4FDED2002F0DDFD6420CA
:1042B00002F0CEFD032002F0CBFD122002F0C8FD7B
:1042C000812002F0C5FDE82002F0CEFD852002F03D
:1042D000BFFD102002F0BCFD7A2002F0B9FDCB201A
:1042E00002F0C2FD392002F0B3FD2C2002F0B0FD37
:1042F000002002F0ADFD342002F0AAFD022002F001
:10430000A7FDF72002F0B0FD202002F0A1FDEA2079
:1043100002F0AAFD002002F09BFD002002F098FDB3
:10432000C02002F0A1FD1B2002F092FDC12002F08E
:104330009BFD012002F08CFDC52002F095FD302090
:1043400002F086FD302002F083FDC72002F08CFDD4
:10435000B72002F07DFD362002F086FD482002F0F5
:1043600077FD3A2002F080FD552002F071FDB1206A
:1043700002F07AFD002002F06BFD1A2002F068FDC9
:10438000B62002F071FD0A2002F062FDA22002F0C8
:104390005FFDF22002F068FD002002F059FD2620AA
:1043A00002F062FD012002F053FDE02002F05CFD0E
:1043B0000F2002F04DFD2A2002F04AFD282002F0D5
:1043C00047FD082002F044FD0E2002F041FD0820C8
:1043D00002F03EFD542002F03BFDA92002F038FD22
:1043E000432002F035FD0A2002F032FD0F2002F0DA
:1043F0002FFD002002F02CFD002002F029FD0020FE
:1044000002F026FD002002F023FDE12002F02CFD49
:10441000002002F01DFD152002F01AFD172002F009
:1044200017FD072002F014FD112002F011FD0620F7
:1044300002F00EFD2B2002F00BFD562002F008FDCD
:104440003C2002F005FD052002F002FD102002F0E4
:10445000FFFC0F2002F0FCFC3F2002F0F9FC3F20A3
:1044600002F0F6FC0F2002F0F3FC2B2002F0FCFC23
:10447000002002F0EDFC002002F0EAFC012002F036
:10448000E7FC3F2002F0E4FC2A2002F0EDFC0020D3
:1044900002F0DEFC002002F0DBFC002002F0D8FC81
:1044A000EF2002F0D5FC112002F0DEFC782006F0AF
:1044B00083FCDAE6B0427CD1ED2002F0D5FC01208D
:1044C00002F0C6FCFE2002F0C3FCEE2002F0CCFCA1
:1044D000DE2002F0BDFC212002F0BAFCF12002F047
:1044E000C3FC012002F0B4FCDF2002F0BDFC102070
:1044F00002F0AEFCC42002F0B7FC8F2002F0A8FC52
:10450000C62002F0B1FC002002F0A2FCE22002F082
:104510009FFCE22002F09CFCE22002F099FCBF200C
:1045200002F0A2FCAA2002F093FCB02002F09CFC56
:104530000D2002F08DFC002002F08AFC0D2002F01C
:1045400087FC002002F084FC112002F081FC002096
:1045500002F07EFC192002F07BFC002002F078FCC7
:10456000212002F075FC002002F072FC2D2002F0E8
:104570006FFC002002F06CFC3D2002F069FC002082
:1045800002F066FC5D2002F063FC002002F060FC9B
:104590005D2002F05DFC002002F05AFCB12002F028
:1045A00063FC802002F054FC002002F051FC8B20C0
:1045B00000E0FCE302F04CFC002002F049FC9620F5
:1045C00002F046FC002002F043FCB22002F04CFC5A
:1045D000002002F03DFC002002F03AFC022002F034
:1045E00037FC002002F034FC032002F031FC0020F4
:1045F00002F02EFCB32002F037FC002002F028FC71
:10460000002002F025FC002002F022FC002002F035
:104610001FFC002002F01CFC002002F019FC00200E
:1046200002F016FC002002F013FC002002F010FC47
:10463000002002F00DFC002002F00AFC002002F035
:1046400007FC002002F004FC002002F001FC002026
:1046500002F0FEFB002002F0FBFB002002F0F8FB62
:10466000002002F0F5FB002002F0F2FB002002F037
:10467000EFFB002002F0ECFB002002F0E9FB002041
:1046800002F0E6FB002002F0E3FBB42002F0ECFBBA
:104690008B2002F0DDFB002002F0DAFB962002F016
:1046A000D7FB002002F0D4FBA12002F0D1FB0020B8
:1046B00002F0CEFBB52002F0D7FB022002F0C8FBCF
:1046C000002002F0C5FB032002F0C2FB002002F034
:1046D000BFFB042002F0BCFB002002F0B9FBB620B7
:1046E00002F0C2FB002002F0B3FB002002F0B0FB9E
:1046F000B72002F0B9FB002002F0AAFB002002F074
:10470000A7FB3F2002F0A4FB002002F0A1FB5E20EB
:1047100002F09EFB002002F09BFB642002F098FB5D
:10472000002002F095FB8C2002F092FB002002F0AA
:104730008FFBAC2002F08CFB002002F089FBDC2018
:1047400002F086FB002002F083FB702002F080FB69
:10475000002002F07DFB902002F07AFB002002F0A6
:1047600077FBEB2002F074FB002002F071FBDC20F1
:1047700002F06EFB002002F06BFBB82002F074FB2D
:10478000002002F065FB002002F062FB002002F036
:104790005FFB002002F05CFB002002F059FB0020D0
:1047A00002F056FB002002F053FB002002F050FB09
:1047B000BA2002F059FB242002F04AFB002002F04C
:1047C00047FB002002F044FB002002F041FBC12027
:1047D00002F04AFB202002F03BFB002002F038FBF5
:1047E000542002F035FB002002F032FBFF2002F0E3
:1047F0002FFB002002F02CFBC22002F035FB0A2028
:1048000002F026FB002002F023FB042002F020FB34
:10481000002002F01DFBC32002F026FB3C2002F02A
:1048200017FB002002F014FB3A2002F011FB0020DD
:1048300002F00EFB392002F00BFB002002F008FB17
:10484000372002F005FB002002F002FB3C2002F0C2
:10485000FFFA002002F0FCFA362002F0F9FA0020FC
:1048600002F0F6FA322002F0F3FA002002F0F0FA39
:104870002F2002F0EDFA002002F0EAFA2C2002F0DC
:10488000E7FA002002F0E4FA292002F0E1FA002021
:1048900002F0DEFA262002F0DBFA002002F0D8FA5D
:1048A000242002F0D5FA002002F0D2FA242002F0EF
:1048B000CFFA002002F0CCFA232002F0C9FA00203F
:1048C00002F0C6FA3C2002F0C3FA002002F0C0FA5F
:1048D000362002F0BDFA002002F0BAFA322002F0CF
:1048E000B7FA002002F0B4FA2F2002F0B1FA00204B
:1048F00002F0AEFA2C2002F0ABFA002002F0A8FA87
:10490000292002F0A5FA002002F0A2FA262002F0E7
:104910009FFA002002F09CFA242002F099FA00206D
:1049200002F096FA242002F093FA002002F090FAA6
:10493000232002F08DFA002002F08AFAC42002F04F
:1049400093FA622002F084FA002002F081FA052036
:1049500002F07EFA002002F07BFA842002F078FA5E
:10496000002002F075FAF02002F072FA002002F046
:104970006FFA182002F06CFA002002F069FAA42005
:1049800002F066FA002002F063FA182002F060FAE2
:10499000002002F05DFA502002F05AFA002002F0E6
:1049A00057FA0C2002F054FA002002F051FA1720B6
:1049B00002F04EFA002002F04BFA952002F048FA7D
:1049C000002002F045FAF32002F042FA002002F043
:1049D0003FFAE62002F03CFA002002F039FAC52046
:1049E00002F042FA322002F033FA002002F030FAEC
:1049F000442002F02DFA002002F02AFA652002F08D
:104A000027FA002002F024FA762002F021FA002092
:104A100002F01EFA882002F01BFA002002F018FAB9
:104A2000C62002F021FA202002F012FA002002F043
:104A30000FFA172002F00CFA002002F009FA012008
:104A400002F006FA002002F003FAC72002F00CFA86
:104A5000002002F0FDF9002002F0FAF9002002F037
:104A6000F7F9002002F0F4F9C82002F0FDF9002067
:104A700002F0EEF9002002F0EBF9002002F0E8F974
:104A8000002002F0E5F9C92002F0EEF9002002F062
:104A9000DFF9002002F0DCF9002002F0D9F9002053
:104AA00002F0D6F9002002F0D3F9002002F0D0F98C
:104AB000002002F0CDF9002002F0CAF9002002F037
:104AC000C7F9002002F0C4F9002002F0C1F900206B
:104AD00002F0BEF9002002F0BBF9002002F0B8F9A4
:104AE000002002F0B5F9002002F0B2F9E02002F057
:104AF000BBF9162002F0ACF9002002F0A9F91C2045
:104B000002F0A6F9002002F0A3F9212002F0A0F99A
:104B1000002002F09DF9362002F09AF9002002F000
:104B200097F9462002F094F9002002F091F9522002
:104B300002F08EF9002002F08BF9642002F088F96F
:104B4000002002F085F97A2002F082F9002002F0BC
:104B50007FF98B2002F07CF9002002F079F999208E
:104B600002F076F9002002F073F9A82002F070F943
:104B7000002002F06DF9B92002F06AF9002002F07D
:104B800067F9C42002F064F9002002F061F9CA203C
:104B900002F05EF9002002F05BF9D22002F058F931
:104BA000002002F055F9D92002F052F9002002F05D
:104BB0004FF9E02002F04CF9002002F049F9F3200F
:104BC00002F046F9002002F043F9E12002F04CF92E
:104BD000162002F03DF9002002F03AF91C2002F004
:104BE00037F9002002F034F9222002F031F90020D8
:104BF00002F02EF9362002F02BF9002002F028F9FD
:104C0000452002F025F9002002F022F9522002F09E
:104C10001FF9002002F01CF9642002F019F90020AD
:104C200002F016F97A2002F013F9002002F010F9D0
:104C30008B2002F00DF9002002F00AF9992002F011
:104C400007F9002002F004F9A82002F001F9002081
:104C500002F0FEF8B92002F0FBF8002002F0F8F8AC
:104C6000C42002F0F5F8002002F0F2F8CA2002F0A9
:104C7000EFF8002002F0ECF8D22002F0E9F8002072
:104C800002F0E6F8D82002F0E3F8002002F0E0F8A5
:104C9000E02002F0DDF8002002F0DAF8F32002F064
:104CA000D7F8002002F0D4F8E22002F0DDF8052069
:104CB00002F0CEF8002002F0CBF80B2002F0C8F88A
:104CC000002002F0C5F81B2002F0C2F8002002F01C
:104CD000BFF8342002F0BCF8002002F0B9F84420FC
:104CE00002F0B6F8002002F0B3F84F2002F0B0F85E
:104CF000002002F0ADF8612002F0AAF8002002F0D6
:104D0000A7F8792002F0A4F8002002F0A1F888208A
:104D100002F09EF8002002F09BF8972002F098F82D
:104D2000002002F095F8A62002F092F8002002F090
:104D30008FF8B72002F08CF8002002F089F8C2202A
:104D400002F086F8002002F083F8C72002F080F815
:104D5000002002F07DF8D12002F07AF8002002F065
:104D600077F8D62002F074F8002002F071F8DD2008
:104D700002F06EF8002002F06BF8F32002F068F801
:104D8000002002F065F8E32002F06EF8052002F042
:104D90005FF8002002F05CF80A2002F059F80020C9
:104DA00002F056F81C2002F053F8002000E0FDE26B
:104DB00002F04EF8332002F04BF8002002F048F8E1
:104DC000442002F045F8002002F042F8502002F0A2
:104DD0003FF8002002F03CF8622002F039F8002091
:104DE00002F036F8782002F033F8002002F030F8B4
:104DF000882002F02DF8002002F02AF8972002F017
:104E000027F8002002F024F8A62002F021F8002064
:104E100002F01EF8B72002F01BF8002002F018F88C
:104E2000C22002F015F8002002F012F8C72002F0AC
:104E30000FF8002002F00CF8D12002F009F8002051
:104E400002F006F8D52002F003F8002002F000F886
:104E5000DD2001F0FDFF002001F0FAFFF32001F05A
:104E6000F7FF002001F0F4FFE42001F0FDFF012036
:104E700001F0EEFF002001F0EBFF012001F0E8FF60
:104E8000002001F0E5FF022001F0E2FF002001F028
:104E9000DFFF2A2001F0DCFF002001F0D9FF3C20D9
:104EA00001F0D6FF002001F0D3FF4B2001F0D0FF2E
:104EB000002001F0CDFF5D2001F0CAFF002001F0CD
:104EC000C7FF742001F0C4FF002001F0C1FF84205F
:104ED00001F0BEFF002001F0BBFF932001F0B8FFFE
:104EE000002001F0B5FFA22001F0B2FF002001F088
:104EF000AFFFB32001F0ACFF002001F0A9FFBE20FE
:104F000001F0A6FF002001F0A3FFC42001F0A0FFE4
:104F1000002001F09DFFCD2001F09AFF002001F05C
:104F200097FFD32001F094FF002001F091FFDD20D6
:104F300001F08EFF002001F08BFFF32001F088FFCD
:104F4000002001F085FFE52001F08EFF002001F038
:104F50007FFF002001F07CFF002001F079FF00209E
:104F600001F076FF022001F073FF002001F070FFD6
:104F7000292001F06DFF002001F06AFF3C2001F0C4
:104F800067FF002001F064FF4B2001F061FF00206B
:104F900001F05EFF5D2001F05BFF002001F058FF93
:104FA000742001F055FF002001F052FF842001F031
:104FB0004FFF002001F04CFF932001F049FF00203B
:104FC00001F046FFA22001F043FF002001F040FF66
:104FD000B32001F03DFF002001F03AFFBE2001F0B8
:104FE00037FF002001F034FFC42001F031FF002022
:104FF00001F02EFFCD2001F02BFF002001F028FF53
:10500000D32001F025FF002001F022FFDC2001F079
:105010001FFF002001F01CFFF32001F019FF00200A
:1050200001F016FFE62001F01FFF112001F010FF34
:10503000002001F00DFF342001F00AFF002001F0F4
:1050400007FF562001F004FF002001F001FF762049
:1050500001F0FEFE002001F0FBFE772001F0F8FEDB
:10506000002001F0F5FE662001F0F2FE002001F0C4
:10507000EFFE882001F0ECFE002001F0E9FE99200F
:1050800001F0E6FE002001F0E3FEBB2001F0E0FEAF
:10509000002001F0DDFE992001F0DAFE002001F091
:1050A000D7FE662001F0D4FE002001F0D1FE55208D
:1050B00001F0CEFE002001F0CBFE552001F0C8FE2D
:1050C000002001F0C5FE452001F0C2FE002001F0E5
:1050D000BFFE432001F0BCFE002001F0B9FE4420D9
:1050E00001F0B6FE002001F0B3FEE72001F0BCFEA7
:1050F000322001F0ADFE002001F0AAFE552001F0A3
:10510000A7FE002001F0A4FE762001F0A1FE002001
:1051100001F09EFE662001F09BFE002001F098FE4B
:10512000672001F095FE002001F092FE672001F05B
:105130008FFE002001F08CFE872001F089FE002008
:1051400001F086FE992001F083FE002001F080FE30
:10515000BB2001F07DFE002001F07AFE992001F0D5
:1051600077FE002001F074FE772001F071FE002030
:1051700001F06EFE442001F06BFE002001F068FE9D
:10518000562001F065FE002001F062FE232001F0B0
:105190005FFE002001F05CFE332001F059FE00208C
:1051A00001F056FE452001F053FE002001F050FEB4
:1051B000E82001F059FE002001F04AFE002001F035
:1051C00047FE992001F044FE002001F041FE8720B7
:1051D00001F03EFE002001F03BFE882001F038FE89
:1051E000002001F035FE772001F032FE002001F0B2
:1051F0002FFE662001F02CFE002001F029FE882001
:1052000001F026FE002001F023FEAA2001F020FE7E
:10521000002001F01DFEBB2001F01AFE002001F06D
:1052200017FE992001F014FE002001F011FE662007
:1052300001F00EFE002001F00BFE552001F008FEEB
:10524000002001F005FE552001F002FE002001F0D3
:10525000FFFD442001F0FCFD002001F0F9FD442099
:1052600001F0F6FD002001F0F3FD552001F0F0FD06
:10527000002001F0EDFDE92001F0F6FDAA2001F08B
:10528000E7FD002001F0E4FD002001F0E1FD002039
:1052900001F0DEFD002001F0E7FDAA2001F0D8FDBD
:1052A000CF2001F0E1FD002001F0D2FD002001F04F
:1052B000CFFD002001F0CCFD002001F0C9FD002051
:1052C00001F0C6FD002001F0C3FD002001F0C0FD8B
:1052D000002001F0BDFD002001F0BAFD002001F02A
:1052E000B7FD002001F0B4FD002001F0B1FD002069
:1052F00001F0AEFD002001F0ABFD002001F0A8FDA3
:10530000002001F0A5FD002001F0A2FDF02001F039
:10531000ABFD002001F09CFD502001F099FD002024
:1053200001F096FD002001F093FD002001F090FDBA
:10533000F32001F099FD002001F08AFDF92001F031
:1053400093FD062001F084FD102001F081FD29204D
:1053500001F07EFD002001F07BFD3A2001F084FD8C
:10536000552001F075FD112001F07EFD642005F04F
:1053700023FD292001F078FD352001F075FD002086
:1053800001F066FD512001F06FFDFF2001F060FD8E
:10539000532001F069FD2C2001F05AFD552001F049
:1053A00063FD822001F054FD01F001BA48457DD132
:1053B00055214FF4704001F06DFDAA214FF201001C
:1053C00001F068FD52214FF2020001F063FD4FF23F
:1053D00003030821184601F05DFD4FF20407012187
:1053E000384601F057FD0D214FF4304001F052FDD9
:1053F0000D214BF2010001F04DFD0D214BF2020099
:1054000001F048FD34214FF4364001F043FD3421D2
:105410004BF2016001F03EFD34214BF2026001F0DD
:1054200039FD0D214FF4314001F034FD0D214BF2D7
:10543000011001F02FFD0D214BF2021001F02AFDA9
:1054400034214FF4374001F025FD34214BF2017037
:1054500001F020FD34214BF2027001F01BFD002110
:105460004FF4324001F016FD00214BF2012001F013
:1054700011FD00214BF2022001F00CFD24214FF41C
:10548000384001F007FD24214BF6010001F002FD38
:1054900024214BF6020001F0FDFC01214FF43F40B6
:1054A00001F0F8FC0F214FF4334000E0FEE301F07F
:1054B000F1FC0F214BF2013001F0ECFC0F214BF21B
:1054C000023001F0E7FC34214FF4394001F0E2FCF6
:1054D00034214BF6011001F0DDFC34214BF60210B3
:1054E00001F0D8FC08214FF4354001F0D3FC08212D
:1054F0004BF2015001F0CEFC08214BF2025001F0BA
:10550000C9FC03214FF4424001F0C4FC24214FF4B4
:105510003A4001F0BFFC24214BF6012001F0BAFC17
:1055200024214BF6022001F0B5FC00214FF43C4051
:1055300001F0B0FC78214BF6014001F0ABFC0021FA
:105540004BF6024001F0A6FC00214FF43D4001F073
:10555000A1FC78214BF6015001F09CFC00214BF698
:10556000025001F097FC00214FF43E4001F092FC04
:1055700064214BF6016001F08DFC00214FF4514095
:1055800001F088FC33214DF2011001F083FC002171
:105590004DF2021001F07EFC34214DF2031001F0B7
:1055A00079FC00214DF2041001F074FC3A214DF217
:1055B000051001F06FFC00214DF2061001F06AFCAD
:1055C0004A214DF2071001F065FC00214DF2081050
:1055D00001F060FC5C214DF2091001F05BFC002140
:1055E0004DF20A1001F056FC81214DF20B1001F032
:1055F00051FC00214DF20C1001F04CFCA6214DF2A3
:105600000D1001F047FC00214DF20E1001F042FC9C
:10561000E5214DF20F1001F03DFC01214DF210107B
:1056200001F038FC13214DF2111001F033FC01217F
:105630004DF2121001F02EFC54214DF2131001F026
:1056400029FC01214DF2141001F024FC82214DF2BD
:10565000151001F01FFC01214DF2161001F01AFC8B
:10566000CA214DF2171001F015FC02214DF218105D
:1056700001F010FC00214DF2191001F00BFC022189
:105680004DF21A1001F006FC01214DF21B1001F041
:1056900001FC02214DF21C1001F0FCFB34214DF203
:1056A0001D1001F0F7FB02214DF21E1001F0F2FB7C
:1056B00067214DF21F1001F0EDFB02214DF2201089
:1056C00001F0E8FB84214DF2211001F0E3FB0221FF
:1056D0004DF2221001F0DEFBA4214DF2231001F067
:1056E000D9FB02214DF2241001F0D4FBB7214DF279
:1056F000251001F0CFFB02214DF2261001F0CAFB6C
:10570000CF214DF2271001F0C5FB02214DF22810E8
:1057100001F0C0FBDE214DF2291001F0BBFB02219C
:105720004DF22A1001F0B6FBF2214DF22B1001F0E0
:10573000B1FB02214DF22C1001F0ACFBFE214DF229
:105740002D1001F0A7FB03214DF22E1001F0A2FB5A
:1057500010214DF22F1001F09DFB03214DF230106E
:1057600001F098FB33214DF2311001F093FB03213E
:105770004DF2321001F08EFB6D214DF2331001F02D
:1057800089FB00214FF4524001F084FB33214DF29C
:10579000012001F07FFB00214DF2022001F07AFB95
:1057A00034214DF2032001F075FB00214DF204205D
:1057B00001F070FB3A214DF2052001F06BFB002156
:1057C0004DF2062001F066FB4A214DF2072001F060
:1057D00061FB00214DF2082001F05CFB5C214DF2E1
:1057E000092001F057FB00214DF20A2001F052FB85
:1057F00081214DF20B2001F04DFB00214DF20C20D8
:1058000001F048FBA6214DF20D2001F043FB0021E1
:105810004DF20E2001F03EFBE5214DF20F2001F08C
:1058200039FB01214DF2102001F034FB13214DF220
:10583000112001F02FFB01214DF2122001F02AFB73
:1058400054214DF2132001F025FB01214DF21420CB
:1058500001F020FB82214DF2152001F01BFB0121FC
:105860004DF2162001F016FBCA214DF2172001F06F
:1058700011FB02214DF2182001F00CFB00214DF22A
:10588000192001F007FB02214DF21A2001F002FB62
:1058900001214DF21B2001F0FDFA02214DF21C20E6
:1058A00001F0F8FA34214DF21D2001F0F3FA022143
:1058B0004DF21E2001F0EEFA67214DF21F2001F09B
:1058C000E9FA02214DF2202001F0E4FA84214DF2A0
:1058D000212001F0DFFA02214DF2222001F0DAFA54
:1058E000A4214DF2232001F0D5FA02214DF224200B
:1058F00001F0D0FAB7214DF2252001F0CBFA0221B8
:105900004DF2262001F0C6FACF214DF2272001F0FA
:10591000C1FA02214DF2282001F0BCFADE214DF23D
:10592000292001F0B7FA02214DF22A2001F0B2FA43
:10593000F2214DF22B2001F0ADFA02214DF22C2084
:1059400001F0A8FAFE214DF22D2001F0A3FA032167
:105950004DF22E2001F09EFA10214DF22F2001F081
:1059600099FA03214DF2302001F094FA33214DF2DF
:10597000312001F08FFA03214DF2322001F08AFA32
:105980006D214DF2332001F085FA00214FF4534090
:1059900001F080FA33214DF2013001F07BFA002151
:1059A0004DF2023001F076FA34214DF2033001F06D
:1059B00071FA00214DF2043001F06CFA3A214DF2F7
:1059C000053001F067FA00214DF2063001F062FA6D
:1059D0004A214DF2073001F05DFA00214DF2083006
:1059E00001F058FA5C214DF2093001F053FA002120
:1059F0004DF20A3001F04EFA81214DF20B3001F0E8
:105A000049FA00214DF20C3001F044FAA6214DF282
:105A10000D3001F03FFA00214DF20E3001F03AFA5C
:105A2000E5214DF20F3001F035FA01214DF2103031
:105A300001F030FA13214DF2113001F02BFA01215F
:105A40004DF2123001F026FA54214DF2133001F0DC
:105A500021FA01214DF2143001F01CFA82214DF29D
:105A6000153001F017FA01214DF2163001F012FA4B
:105A7000CA214DF2173001F00DFA02214DF2183013
:105A800001F008FA00214DF2193001F003FA022169
:105A90004DF21A3001F0FEF901214DF21B3001F0F8
:105AA000F9F902214DF21C3001F0F4F934214DF2E4
:105AB0001D3001F0EFF902214DF21E3001F0EAF93C
:105AC00067214DF21F3001F0E5F902214DF220303F
:105AD00001F0E0F984214DF2213001F0DBF90221DF
