:020000040800F2
:1000000050CD00207D020008CB6F00084B2D00086A
:10001000C96F00087B130008C577000800000000C6
:10002000000000000000000000000000C501000802
:10003000E51300080000000019020008157200080E
:10004000970200089702000897020008970200082C
:10005000970200089702000897020008970200081C
:10006000970200089702000897020008970200080C
:1000700097020008970200089702000897020008FC
:1000800097020008970200089702000897020008EC
:1000900097020008970200089702000897020008DC
:1000A00097020008970200089702000897020008CC
:1000B00097020008970200089702000897020008BC
:1000C00097020008970200089702000897020008AC
:1000D00097020008BD760008017700089702000823
:1000E000970200089702000897020008970200088C
:1000F000970200089702000897020008970200087C
:10010000970200089702000897020008970200086B
:10011000970200089702000897020008970200085B
:10012000970200089702000897020008970200084B
:10013000970200089702000897020008970200083B
:10014000970200089702000897020008970200082B
:10015000970200089702000897020008970200081B
:10016000970200089702000897020008970200080B
:10017000970200089702000897020008000000009C
:1001800097020008970200089702000897020008EB
:1001900097020008970200089702000897020008DB
:1001A000970200089702000897020008DFF810D0B5
:1001B00000F014FE00480047A1900008AFF3008053
:1001C00050CD00202A4B19680868B0E8F04F80F342
:1001D0000988BFF36F8F4FF0000080F311887047DC
:1001E0000000000006480068006880F3088862B6D6
:1001F00061B6BFF34F8FBFF36F8F00DF00BF00BF4B
:1002000008ED00E0DFF80C00016841F470010160C6
:10021000704700BF88ED00E0EFF30980BFF36F8FF8
:10022000134B1A681EF0100F08BF20ED108A20E94A
:10023000F04F106008B44FF0500080F31188BFF306
:100240004F8FBFF36F8F0BF0FDF84FF0000080F37E
:10025000118808BC19680868B0E8F04F1EF0100F4C
:1002600008BFB0EC108A80F30988BFF36F8F704726
:100270006C000020EFF305807047000006488047BF
:1002800006480047FEE7FEE7FEE7FEE7FEE7FEE77B
:10029000FEE7FEE7FEE7FEE72D720008AD0100086D
:1002A00040EA01039B0703D009E008C9121F08C0F8
:1002B000042AFAD203E011F8013B00F8013B521E78
:1002C000F9D27047D2B201E000F8012B491EFBD2EF
:1002D00070470022F6E710B513460A460446194651
:1002E000FFF7F0FF204610BD30B505462A460B4605
:1002F00012F8010B13F8014B08B1A042F8D01CB161
:10030000002802D06D1CF1E7284630BD421C10F8D1
:10031000011B0029FBD1801A7047034611F8012BFD
:1003200000F8012B002AF9D1184670470FB400B528
:100330008DB010A909900B9000914FF0FF300A90FA
:1003400000200C9005480690054807906A4609A8C9
:100350000F9900F0D1FB0DB05DF814FB150B0008F0
:10036000330B00082DE9FF4F087883B09946FF282A
:1003700005D0491C2D2804D00024002008E00020CE
:100380000BE00124F9E700EB800003EB4000491C7F
:100390000B78FF2BF7D104B140420023029314786D
:1003A00019461D462D2C01D02B2C04D1521C2D2C6E
:1003B00013D000240294AA461478FF2C0FD00A25EB
:1003C000A3FB057801FB05814FF0000C03FB0C112A
:1003D000521CE3194AEB0101EEE70124EAE78144EC
:1003E00053EA010002D019F5C87F06DA039800210C
:1003F000C0E9001107B0BDE8F08F0025AE4E2F46D2
:10040000DFF8B882184600F0A9FCCDE90001B9F187
:10041000000002DAC9F1000400E004460023A74A04
:100420001AEB030B42EB045A12E0E00707D02A460E
:1004300033463846414600F0F9F9074688462A46D1
:1004400033461046194600F0F1F905460E46641091
:10045000002CEAD1DDE90001B9F1000F5A465346FC
:1004600006DA00F00CFC3A46434600F008FC05E0D2
:1004700000F0DCF93A46434600F0D8F9029A0AB196
:1004800081F00041039AC2E90001B3E72DE9FF4F73
:100490001F468DB0D7E901464FF0FF382E20454664
:1004A0004FF000090B90B9696D1C0E988847396AA6
:1004B000824688470028F6D1BAF1FF3F0AD024F4DB
:1004C000D064002E11DDBAF12B0F08D0BAF12D0F38
:1004D0000BD102E0404611B08DE744F48064B96965
:1004E0006D1C0E9888478246761E6946600501D5C8
:1004F0002D2000E02B208DF8000001F1010B0DF103
:10050000200809E0B9696D1C0E98884782460F984B
:1005100044F40074761E0560002E02DDBAF1300F3F
:10052000F0D00B998A453ED144F0800406E00F9943
:10053000681CA9F1010944F400740860B9696D1CD4
:10054000761E0E98884782463028F0D02BE00B9913
:100550008A4505D1200603D444F08004761E18E0B5
:10056000504607F09DFA08B30DF11301761E44F4CE
:1005700000748B4508D2AAF130000BF8010B20065D
:1005800007D5A9F1010003E0200602D409F101001A
:100590008146A00502D50F99681C0860B9696D1CD9
:1005A0000E9888478246002ED1DC53E0002E51DDA4
:1005B000BAF1650F02D0BAF1450F4BD1A00549D56C
:1005C000B9696D1C24F44074761E0E9888478246E3
:1005D000002E0CDD2B2804D0BAF12D0F07D144F4E6
:1005E0008074B9696D1C0E9888478246761EE005B6
:1005F00001D52D2100E02B2108F8011BCDF82C801E
:1006000021E00DF12901761E44F4007488450CD2D6
:10061000AAF1300010F0FF0088F8000002D10B9919
:10062000884509D908F1010806E0E00501D524480C
:1006300001E042F20F708146B9696D1C0E9888473F
:1006400082460F980560002E04DD504607F028FA18
:100650000028D6D1F9690E988847FF208BF8000052
:1006600088F800000020069007904B466A4608A9CB
:1006700006A8FFF777FEA00502D46FF001002AE775
:1006800014F0240F0AD0E00714D1DDE9061238680F
:10069000031D3B600068C0E900120BE0DDE90601C4
:1006A00000F080FB0146E00704D13868021D3A6083
:1006B0000068016028460EE7000014400000F03F8B
:1006C000F1D8FFFF70B5064607F0B4F80468054698
:1006D0000A220021304600F03DFA2C6070BD2DE961
:1006E000FE4F804681EA0300C00F0C46009021F0C7
:1006F000004123F00045B8EB0200A94105D2404675
:10070000214690461C460B46024623F0004010430B
:1007100047D0270DC7F30A00C3F30A510290401ACD
:10072000019040286BDAC3F3130040F4801B00985B
:10073000924620B10023D2EB030A63EB0B0B019826
:100740005946C0F14002504600F09FF906460D465A
:1007500050465946019A00F0B7F910EB0800614184
:10076000002487EA115284EAE7731A4340D0009AC2
:1007700062B3019A012A4FEA075215DC001B61EBB4
:1007800002014FF0004202EA0752CDE90042001C8C
:1007900041F5801132462B4600F023FA03B0BDE844
:1007A000F08F40462146F9E7001B61EB0201001C77
:1007B00041F5801300185B412018A2F5001747EBA4
:1007C000030140EAD570B6196D4111E06D084FEA9A
:1007D000360645EAC0754FEA0752001B61EB02017D
:1007E000001C41F5801149084FEA300000195141C1
:1007F00032462B4603B0BDE8F04F00F0E3B9009855
:10080000012240000023D0EB020263EBE07300986A
:1008100021464FEAE074B8EB000061EB0401E9E720
:1008200083F000435BE781F0004158E72DE9FE4F7C
:1008300081EA030404F0004421F0004100944FF0E9
:10084000000B23F0004350EA01045ED052EA030497
:100850005BD0C3F30A54C1F30A552C44A4F2F33419
:100860000194A0FB0254C1F3130141F48011C3F3BE
:10087000130343F4801301FB024400FB034E840A7C
:10088000970A44EA815447EA8357A4FB0768029514
:100890008D0A05FB07854FEA932C04FB0C542705B2
:1008A000029D4FEA065847EA1637B5EB08056EEB8E
:1008B000070C870E920E47EA811742EA8312A7FBC4
:1008C0000201B6EB0B0164EB00042B0D43EA0C3381
:1008D0005E1844EB1C50DA465146E7FB0201C5F3B3
:1008E00013044FEA0B3343EA14534FEA0432019CDA
:1008F00043EA0603A4F10C040294009CCDE900B481
:1009000000F06FF903B0BDE8F08F00200146F9E771
:100910000EB540F2334102910021CDE900110A46A3
:100920000B4600F05EF903B000BD70B5C1F30A528A
:1009300001F000450024C1F3130140F2FF3341F4FC
:1009400080119A4201DA002070BD40F233439A428E
:10095000A2F2334203DC524200F0A6F800E09040DD
:100960002C43F1D0404270BDC1F30A5210B5C1F31F
:10097000130140F2FF3341F480119A4201DA002062
:1009800010BD40F233439A42A2F2334203DC52429A
:1009900000F08AF810BD904010BD000030B5041E74
:1009A00071F1000404DB4FF00044404264EB0101AC
:1009B000141E73F1000405DB1C464FF00043524245
:1009C00063EB04038B4208BF824230BD30B5041E86
:1009D00071F1000404DB4FF00044404264EB01017C
:1009E000141E73F1000405DB1C464FF00043524215
:1009F00063EB0403994208BF904230BD30B50B460B
:100A0000014600202022012409E021FA02F59D423E
:100A100005D303FA02F5491B04FA02F52844151E12
:100A2000A2F10102F1DC30BD2DE9F05F05460020A6
:100A300092469B4688460646814640241BE028464F
:100A400041464746224600F02FF853465A46C01A00
:100A5000914110D311461846224600F016F82D1A7F
:100A600067EB01084F4622460120002100F00DF8F7
:100A700017EB00094E41201EA4F10104DFDC4846BB
:100A800031462A464346BDE8F09F202A04DB203A3F
:100A900000FA02F1002070479140C2F1200320FAD1
:100AA00003F3194390407047202A04DB203A21FACF
:100AB00002F00021704721FA02F3D040C2F1200277
:100AC0009140084319467047202A06DBCB17203A8D
:100AD00041FA02F043EAE07306E041FA02F3D04043
:100AE000C2F1200291400843194670470268114440
:100AF0001378016018467047D16004495161044978
:100B0000116200211161114600F088B9ED0A000858
:100B1000090E0008426842B1016811F8013B23B197
:100B2000521EC0E90012184670470121C160881E9C
:100B3000704742685AB1C368016843B983688B4201
:100B400005D0491E521CC0E90012002070474FF02A
:100B5000FF3070472DE9F04791460F468046044626
:100B6000002614F8015B2DB100F04AF90068405DE1
:100B7000C007F6D12B2D02D02D2D18D0641E4A4669
:100B80003946204600F0E2FA27B13968A14201D186
:100B9000C7F8008071054FF002040BD540420028D1
:100BA00003DD06F047FE0460A007BDE8F08746F4C9
:100BB0008066E4E70028F8DA06F03CFE04606FF097
:100BC0000040F2E710B5141E73F1000408DA401C6F
:100BD00041F1000192185B411A4301D120F001005C
:100BE00010BD2DE9F04D92469B4611B1B1FA81F24C
:100BF00002E0B0FA80F220329046FFF746FF04464A
:100C00000F4640EA0A0041EA0B0153465A460843A0
:100C100013D0114653EA010019D0C8F140025046E2
:100C2000FFF742FF05460E46504659464246FFF73B
:100C30002CFF084305D0012004E020463946BDE8DA
:100C4000F08D0020054346EAE0762C4337430A98AE
:100C50006305E40AA0EB08000022FD0A44EA4754B9
:100C60000A3002D500200146E9E701051019694163
:100C7000DDE9084500196941BDE8F04DA2E72DE91D
:100C8000F04D81EA030404F0004B21F000451446C6
:100C90004FF0000A23F0004150EA050220D054EA48
:100CA00001021DD0C5F30A570246C5F31303C1F371
:100CB0001300C1F30A5640F4801543F48013A7EBE8
:100CC0000608101BD64608F2FD3873EB050002D368
:100CD00008F1010801E092185B41B8F1000F03DA56
:100CE00000200146BDE8F08D00204FF4801106463B
:100CF00084460EE0171B73EB050705D3121B63EB4D
:100D0000050306434CEA010C49084FEA30009218EB
:100D10005B4150EA0107EDD152EA030012D082EAAA
:100D2000040083EA0501084305D0101BAB4106D23D
:100D30000122002306E000224FF0004302E06FF0A2
:100D4000010253101AEB06004CEB085110EB0A009D
:100D500041EB0B01BDE8F04DFFF734BF0EB540F29B
:100D6000334202920022CDE900221346FFF739FFF9
:100D700003B000BDC1F30A52C1F3130140F2FF33C7
:100D800041F480119A4202DA00200146704740F295
:100D900033439A42A2F2334202DC5242FFF784BE4E
:100DA000FFF773BE01F0004330B421F0004150EA78
:100DB000010206D00A0DA2F56072C1F31301002AE8
:100DC00002DC30BC00207047440F44EAC104C1007B
:100DD000E01830BC00EBC25000F007BA064C074DDB
:100DE00006E0E06840F0010394E8070098471034FB
:100DF000AC42F6D3FFF7DEF99C090108BC090108F3
:100E0000004870479809010810B50446FFF7F8FF3D
:100E10000068005D00F0010010BD00002DE9F34FF7
:100E20008BB04FF0000801F10C000C464FF0010BA5
:100E300046460DF1080A0190626901210198904728
:100E4000051E2DD0252D2CD0216A8847C0B162699E
:100E5000012101989047216A88470028F7D1411E57
:100E600062690198904700E0761CA1690B98884759
:100E7000216A88470028F7D1E1690B988847DBE7AA
:100E8000A1690B9888470746A84201D1761CD3E791
:100E9000E1690B9888477F1C02D1B8F1000F6FD031
:100EA00047E1002762693D463946019890472A2864
:100EB00004D162690121019890470125DFF88892E9
:100EC0006269012101989047A0F130010A290AD2F4
:100ED0004F45E5DC07EB870100EB4107303FDFD4EE
:100EE00045F01005ECE7E90601D46FF000476C28E7
:100EF0000AD04C2814D0682815D06A280DD0742840
:100F00001CD07A281AD01DE062690121019890470F
:100F10006C2802D045F0040514E045F002050DE010
:100F200045F020050AE06269012101989047682890
:100F300002D045F0080505E045F40065626901212D
:100F400001989047C4E9015765283DD019DC58281D
:100F50007AD00CDC452837D004DC252826D041285F
:100F600031D131E046282FD047282CD12CE05B2806
:100F700077D0612828D063287CD0642823D15AE018
:100F8000D1E06F2848D008DC66281DD067281BD028
:100F9000692821D06E2816D127E0702845D0732803
:100FA00068D0752847D078280DD14DE0A1690B98FD
:100FB0008847054625283FF469AFE1690B988847C3
:100FC0006D1C3FF46AAFB4E023466A466FF001003F
:100FD0000B99FFF75BFA9FE045F040006060A807BF
:100FE00023464FF0000236D43EE0E8077FF447AFD7
:100FF0002068011D21600068290501D506701BE7E6
:10100000290701D5068017E7A90703D5F117C0E91D
:10101000006111E706600FE745F040006060A80737
:1010200023464FF0080216D41EE040F60E0125EAD2
:101030000100606016E045F040006060A8072346AC
:101040004FF00A0207D40FE045F040006060A807A7
:1010500008D5234610226FF001000B99AFF30080F2
:101060005AE007E0234610226FF001000B99AFF31E
:10107000008051E04FF000094F464B46632802D0F4
:101080005B2807D041E02079C00601D40120A06090
:1010900001273AE062690121019890475E2805D155
:1010A0004FF001096269494601989047216939B9B1
:1010B00000210A46534643F82120491C0829FADB3F
:1010C000B0B3216969B9C11700EBD16253110AEBC2
:1010D000830122F01F02821A01200B689040034313
:1010E0000B6062690121019890475D28E8D1B9F150
:1010F000000F09D00020514651F82020D24341F87A
:101100002020401C0828F7DB02AB224600976FF036
:1011100001000B99AFF3008000280CDA401C08D1C5
:10112000BBF1000F05D04FF0FF300DB0BDE8F08FE0
:10113000FFE74046F9E7E90701D108F10108064455
:101140004FF0000B78E60000CCCCCC0C2DE9F05F22
:1011500082460078002715468B460AF10104B946FD
:10116000302801D09DB113E014F8010B0127782835
:1011700003D0582801D045B10AE00DB1102D07D198
:101180000027102514F8010B02E0082500E00A25CD
:101190000026B0460EE005FB080005FB06F101271E
:1011A00001EB10461FFA80F8B6F5803F00D3B94630
:1011B00014F8010B294600F04FF80028EBDABBF1D8
:1011C000000F05D00FB1641E00E05446CBF800407C
:1011D000B9F1000F06D006F02DFB02210160C81EF8
:1011E000BDE8F09F48EA0640FAE70029A8BF70472B
:1011F000401C490008BF20F00100704710B4B0FA4D
:1012000080FC00FA0CF050EA010404BF10BC7047E7
:1012100049B1CCF1200421FA04F411FA0CF118BF01
:10122000012121430843A3EB0C01CB1D4FEA0061D0
:101230004FEA102042BF002010BC704700EBC350A3
:1012400010440029A4BF10BC7047401C490008BFCF
:1012500020F0010010BC70473A2800D2303820F04E
:101260002002412A01D3A2F13700884201D34FF076
:10127000FF30704710B501F089FD0421002000F017
:101280005EF8322007F022FC0321002000F057F81E
:10129000002000F037F8032801D0012010BD002005
:1012A00010BD2DE9FC4190460D46064600246F46D0
:1012B00004F10A00C0B200F025F83855641CE4B20D
:1012C000062CF5D39DF800004FF00001020601D571
:1012D000318004E09DF8012062F39F003080BDF86A
:1012E0000220A8F800209DF80400420602D52980BB
:1012F000BDE8FC819DF8051001F03F0161F31F106E
:101300002880F5E710B5044601F0E8FD3C2001F027
:10131000B5FD01F023FE204601F0B0FD01F01EFEF8
:1013200001F0DCFD3D2001F0A9FD01F017FE0020D9
:1013300001F070FD044601F0F1FD204610BD70B5CE
:101340000C46054601F0CAFD3C2001F097FD01F076
:1013500005FE50B9284601F091FD01F0FFFD204641
:1013600001F08CFD01F0FAFD18B101F0D7FD01206C
:1013700070BD01F0D3FD002070BDFEE710B588B050
:101380000024164800940194029403940494059454
:10139000016841F00101016000684FF0804100F0F8
:1013A000010006900E48016041F29311C0E901145A
:1013B000611EC16001F030FA4FF480500090694620
:1013C000074801F052FA049404A90548059401F075
:1013D000FBF9034801F03CFA08B010BD4038024068
:1013E0001C0500207047000070B5B3F5804F05D094
:1013F0006FF0704140F82210002070BD50F822308C
:10140000084C2340D1E9004544EA05148D688E89D3
:101410002D0245EA064589692C430C431C4340F8DC
:101420002240E9E70000F0CFF0B50C6850F82450F6
:10143000194A1540D1E90123D1E903671A433E4314
:1014400032434E6932438E693243CE6932430E6A6B
:1014500032434E6A32438E6A3243CE6A3243CE6B97
:1014600032430E6B32434E6B32432A43082B01D179
:1014700042F0400240F824204A6BB2F5801F08D1A8
:101480000A6832B14FF480720A610449026811435C
:1014900001600020F0BD00008000E0FF00011000AE
:1014A000F0B500EB820253688E8903F04044D1E925
:1014B000003543EA05138D682D0245EA06452B43A6
:1014C0000E8A0D4D05EB065633430E7D6F0107EB7B
:1014D000066633438E693343234353600268D20266
:1014E00007D54268098A22F4700205EB01511143C5
:1014F00041600020F0BD00000000F0FF30B5D1E9F0
:1015000001231A43D1E9033423431A434B690D687D
:101510001A438B691A43D1E90734012D496A0568DA
:101520006FF30E0505D01A4322430A432A43026093
:1015300008E0234329430B43416803606FF30E0126
:101540000A434260002030BD426942EA41014161E4
:1015500000207047F8B514460546D1E90002104353
:101560008A686FF01F03C96803EB421242EA412107
:1015700008430090286100F04DF9064609E0601C20
:1015800007D024B100F046F9801BA04201D9032006
:10159000F8BDA8698006F2D40020F8BDF0B56FF060
:1015A0000F05D1E9003405EB04145B1E2E01234323
:1015B0008C682F0306EB04244FEA054C23430D8A65
:1015C0008E8ACC68097E4FF07F4E07EB05450CEB09
:1015D00006560EEB0161012A0CD082683F1107EB21
:1015E000043423432B43334302F070420B43134331
:1015F00083600FE0C2682B430B4302F070428168A6
:10160000134301F070422103A1F58051314311438E
:10161000C36081600020F0BD01480068406A7047E7
:101620001C0500202DE9F84FDFF8A091002209F1F8
:10163000040A0AF1040B4FF00F080BF1040E012607
:101640000B6896403340B34271D14C68022C01D0F4
:10165000122C11D1D40800EB84073D6A5407E40E24
:1016600008FA04FC25EA0C05D1F810C00CFA04FCB9
:101670004CEA050CC7F820C007685400032591F810
:1016800004C0A5400CF0030CAF430CFA04FC4CEA78
:10169000070CC0F800C04F68012F05D0022F03D0FF
:1016A000112F01D0122F11D18768D1F80CC0AF4390
:1016B0000CFA04FC4CEA070CC0F808C04768B743B2
:1016C0000E79C6F3001696403E434660C668AE43A8
:1016D0008D68A5403543C5604C68E4006FD53C4C2F
:1016E000256845F480452560246822F0030504F44C
:1016F00080440094374C2E19D6F808789407250FAB
:1017000008FA05F4A743344CA04201D100242EE08E
:10171000324CA04201D1012429E0314CA04201D138
:10172000022424E02F4CA04202D103241FE046E013
:101730002D4CA04201D1042419E02C4CA04201D12F
:10174000052414E02A4CA04201D106240FE0294CC4
:10175000A04201D107240AE0274CA04201D108246D
:1017600005E0264CA04201D1092400E00A24AC4047
:101770003C43C6F80848D9F800404D464E689C43A3
:10178000F60300D51C432C60DAF8004055464E683D
:101790009C43B60300D51C432C60DBF800405D463B
:1017A0004E689C43F60200D51C432C60DEF80040D6
:1017B00075464E689C43B60200D51C432C60521CF3
:1017C000102AFFF43CAFBDE8F88F0000003C014058
:1017D0004438024000300140000002400004024052
:1017E00000080240000C02400010024000140240B9
:1017F00000180240001C0240002002400024024069
:101800000069084000D0012070470AB1816170472B
:101810000904FBE70148006870470000440000200D
:1018200002480168491C0160704700004400002024
:101830000B4810B5016841F400710160016841F482
:1018400080610160016841F480710160052000F051
:10185000BFF90F2000F006F800F08AF9002010BD53
:10186000003C024010B5044600F060FC4FF47A7171
:10187000B0FBF1F000F094FF00222146501E00F072
:1018800087F9002010BD2DE9F041044690F8A00032
:1018900015460F4601281DD0012684F8A0600220BD
:1018A00084F8A10005EB850000EBC50004EB800087
:1018B00034223830FEF7F4FC2A463946204604F03C
:1018C000EFFF2068466284F8A160002084F8A00041
:1018D000BDE8F0810220FBE770B5040004D094F865
:1018E000A100002510B106E0012070BD84F8A050D1
:1018F000204600F06FF8022084F8A100206881697A
:1019000021F070418161D4E901100143D4E903025F
:101910001043014320688269114381612068826815
:101920002B490A408260A08A020420688368A66965
:101930003343134383602068C2680A40C260A08BAF
:1019400002042068C368266A33431343C3602068D7
:1019500002690A400261A08C020420680369A66A39
:10196000334313430361206842690A404261A08DFA
:10197000010420684269236B1A430A43426194F8C8
:101980003500020294F8360001042068C36A03F0AF
:101990007F43C3622068C36A94F8346011433343C1
:1019A0000B43C3622068416B41F00401416320682E
:1019B000416B41F0020141632068816941F00101FE
:1019C0008161C4F8A450012084F8A100002070BDFA
:1019D00000F800F030B5364887B00025016841F0C6
:1019E00080610160006800F0806005903048143824
:1019F000016841F400010160016801F400010591F2
:101A0000016841F002010160016801F002010591E5
:101A1000016841F020010160016801F02001059199
:101A2000016841F040010160016801F04001059149
:101A3000016841F080010160016801F080010591B9
:101A4000016841F4807101600068032400F4807033
:101A50000590202000900120CDE902040190694604
:101A60001448FFF7DFFD4FF4806000900220CDE9BD
:101A700001050E20CDE9034069460F48FFF7D2FD6E
:101A80004FF40C60009069460C48FFF7CBFD4FF413
:101A90007E40009069460A48FFF7C4FD40F2F760B7
:101AA000009069460748FFF7BDFD07B030BD000054
:101AB0004438024000040240001402400018024072
:101AC000001C02400020024070B5044690F8A000BF
:101AD0000E46012820D0012584F8A050022084F869
:101AE000A10003EB830000EBC30004EB800141F88D
:101AF000386F886A3044C1E90102C86A1044C8607E
:101B00001A46204604F0CCFE2068456284F8A150B5
:101B1000002084F8A00070BD022070BD2DE9F041C6
:101B2000044690F8A0000F4601281FD0012584F834
:101B3000A050022084F8A10003EB830000EBC30057
:101B400004EB80010026E1E90E672046C1E902624C
:101B5000C1E90A721A4604F0A3FE2068456284F8BF
:101B6000A15084F8A0600020BDE8F0810220FBE7CE
:101B700008B50020009008BD00F01F02012191402F
:101B80004009800000F1E020C0F80011704700001B
:101B9000F0B40E4B1B68C3F30223C3F10704042CFB
:101BA00000D904241D1D072D01D2002300E0DB1EF7
:101BB000012606FA04F56D1E0D409D409E40761EDE
:101BC000164045EA0601F0BC05F000BA0CED00E055
:101BD000064A00F0070110684FF6FF03184040EA7C
:101BE0000120034908431060704700000CED00E03D
:101BF0000000FA052DE9F8431D48016841F08051C5
:101C000001600068012700F080500090380490FACD
:101C1000A0F0DFF86080B0FA80F048F82070FFF79D
:101C2000F9FD04464FF47A75134E04E0FFF7F2FD18
:101C3000001BA84213D87068C003F7D54FF40030DA
:101C400090FAA0F0B0FA80F048F82070FFF7E2FDBB
:101C5000044607E0FFF7DEFD001BA84202D903207F
:101C6000BDE8F88370688003F4D50020F8E7000031
:101C70004038024000000E42007000402DE9F84F4D
:101C800004460068DFF878829E4DC10747F6C07AA7
:101C90004FF0E0464FF0010B4FF0000901D18007F3
:101CA0004BD59949C1F86890FFF7B4FD074604E0A9
:101CB000FFF7B0FDC01B64287ED828680001F7D468
:101CC00020789249C0070DD09AFAAAF26068B2FA59
:101CD00082F2904096FAA6F3A268B3FA83F39A4090
:101CE000104308602078800718D5086896FAA6F295
:101CF00000F0E040B2FA82F2D0406268237B9201A9
:101D000042EA036242EA00700860D8F80010E26913
:101D100021F01F01521E1143C8F800107A49C1F882
:101D200068B0FFF777FD074604E0FFF773FDC01BBF
:101D3000642841D828680001F7D52068410701D4FC
:101D4000000776D57049C1F87090FFF763FD07462C
:101D500004E0FFF75FFDC01B64282DD82868C0434E
:101D60008000F6D520786A4F40074FF0706C29D577
:101D7000386896FAA6F100F0E040B1FA81F1C84067
:101D80009AFAAAF22169B2FA82F291409CFAACF373
:101D90006269B3FA83F39A40114396FAA6F2B2FA53
:101DA00082F2904001433960D8F800106FF0FF03D1
:101DB00021F4F851226A00E079E003EB022211439A
:101DC000C8F800102078000723D538689CFAACF1D9
:101DD00000F07060B1FA81F1C8409AFAAAF2216964
:101DE000B2FA82F291409CFAACF2B2FA82F29040DE
:101DF000014396FAA6F2A069B2FA82F2904001433A
:101E00003960D8F80010626A21F440311143C8F8F3
:101E100000103D49C1F870B0FFF7FCFC064604E035
:101E2000FFF7F8FC801B642841D82868C043800075
:101E3000F6D42078800651D532484F4640300168AC
:101E400041F0805101600068324E00F080500090F7
:101E5000306840F480703060FFF7DCFC054604E039
:101E6000FFF7D8FC401B642821D83068C005F7D59F
:101E7000264E143E3068218D00F4407001F440710C
:101E800088422BD03068244920F44070C1F800B05B
:101E90000F603060800710D5FFF7BCFC054641F2AB
:101EA000883707E0FFF7B6FC401BB84202D9032091
:101EB000BDE8F88F30688007F4D5A06A1149C0F3F7
:101EC00001220831032A13D0086820F4F8100860B2
:101ED0003068218DC1F30B01084330602078C006C3
:101EE00004D50E4994F82C00C1F8E0010020DFE78A
:101EF0000A680B4B22F4F812184002430A60E7E725
:101F00008C380240003802400000474284380240CA
:101F10008838024000700040400E4742001047429F
:101F2000FFFCFF0F2DE9F05FDFF8F8A104460F4634
:101F3000DAF80000DFF8F08100F00F02C8B27A4949
:101F4000814641F2883608F10808BA4261D2024659
:101F50008AF80020DAF8000000F00F00B8427DD1C6
:101F60002078800707D5D8F80020A36822F0F00277
:101F70001A43C8F800202078C0072DD060680128D7
:101F80001AD002281BD0032819D009688907002914
:101F900064DAD8F80010474621F003010143C8F87D
:101FA0000010FFF737FC0546606801280FD00228B3
:101FB00018D003281CD027E009688903E7E70968DF
:101FC0008901E4E7FFF726FC401BB04258D8386887
:101FD000C0F381000128F5D188E0FFF71BFC401B0E
:101FE000B0424DD83868C0F381000228F5D17DE0B9
:101FF0003868FFF70FFC401BB042F9D940E0FFF70B
:1020000009FC401BB0423BD8386810F00C0FF6D1E9
:102010006CE02078800707D5D8F80020A36822F06C
:10202000F0021A43C8F800202078C0074CD060683E
:10203000012828D0022829D0032827D00968890739
:10204000002949DAD8F8002022F003020243C8F838
:102050000020FFF7DFFB0546606800E03CE0012858
:102060001DD0022829D0032838D0B3464646306810
:1020700010F00C0F28D0FFF7CDFB411B5945F6D9C6
:102080000320BDE8F09F09688903D9E70968890141
:10209000D6E7FFF7BFFB411B594502D9F0E7B3462E
:1020A00046463068C0F381000128F2D10CE0FFF70A
:1020B000B1FB411B594502D9E2E7B34646463068B9
:1020C000C0F381000228F2D18AF80090DAF800000B
:1020D00000F00F00B84209D00120D2E74446206842
:1020E000FFF798FB401BB042F9D9C9E720784007B9
:1020F00007D5D8F80010E26821F4E0511143C8F880
:1021000000102078000708D5D8F80010226921F4C3
:10211000604141EAC201C8F800100F20FFF7A2FB9E
:102120000020AEE7003C02400038024010B500F04D
:1021300043F808490968F02292FAA2F201F0F0018E
:10214000B2FA82F2D140044A515CC84003490860A7
:1021500010BD000008380240C4C100083000002053
:1021600010B5FFF7E3FF074909684FF4E05292FA10
:10217000A2F201F4E051B2FA82F2D140024A515C7B
:10218000C84010BD08380240C4C1000810B5FFF7B0
:10219000CDFF074909684FF4604292FAA2F201F4B8
:1021A0006041B2FA82F2D140024A515CC84010BD8F
:1021B00008380240C4C1000830B51948006810F062
:1021C0000C01184812D0184C04290ED008290DD142
:1021D000134A121F1168136801F03F015D0247F6B0
:1021E000C07304D5B4FBF1F003E0204630BDB0FB72
:1021F000F1F01168194093FAA3F3B3FA83F3D940CD
:10220000484311684FF4403292FAA2F201F440318F
:10221000B2FA82F2D140491C4900B0FBF1F030BD66
:10222000083802400024F40040787D012DE9F84F81
:1022300004460078DFF8FCA2BF4DC0074FF000064F
:1022400048D0DAF800105046C1F38101012908D0C6
:102250000068C0F3810002280AD1281D00684002EE
:1022600006D52868800335D56068002873D031E032
:10227000DFF8C49209F1020989F80060FFF7CAFA91
:10228000074641F2883804E0FFF7C4FAC11B414514
:102290007AD828688003F7D4207989F8000060682C
:1022A00060B1FFF7B7FA074604E0FFF7B3FAC11BC6
:1022B0004145EDD828688003F7D50BE0FFF7AAFA6F
:1022C000074604E0FFF7A6FAC11B4145E0D828689D
:1022D0008003F7D42078DFF86492800744D5DAF8D9
:1022E0000010504611F00C0F4FF0F80809D00068AC
:1022F000C0F3810002280BD18E48001F0068400205
:1023000006D42868800714D5E068012823D110E09E
:10231000E068D0B10120C9F80000FFF77BFA07465A
:1023200004E0FFF777FAC01B6428B1D8286880075B
:10233000F7D5286898FAA8F22169B2FA82F220F05B
:10234000F8009140084328600EE0C9F80060FFF7EC
:1023500061FA074605E0EAE0FFF75CFAC01B642873
:1023600012D828688007F7D42078000725D5DFF831
:10237000C4817348616908F16C0881B10121016071
:10238000FFF748FA074605E07EE0FFF743FAC01B77
:10239000642879D8D8F800008007F6D50DE00660EB
:1023A000FFF738FA074604E0FFF734FAC01B642849
:1023B0006AD8D8F800008007F6D42078400753D5B3
:1023C0005C483830016841F0805101600068DFF8F6
:1023D000748100F080500090D8F8001041F48071B2
:1023E000C8F80010FFF716FA074604E0FFF712FAE4
:1023F000C01B642848D8D8F80000C005F6D5DFF81F
:1024000034B10BF1680B8BF80060FFF703FA074655
:1024100041F2883804E0FFF7FDF9C11B41457ED841
:10242000DBF800008007F6D4207A8BF80000A06863
:1024300068B1FFF7EFF9074604E0FFF7EBF9C11BBE
:1024400041456CD8DBF800008007F6D50CE0FFF7BB
:10245000E1F9074604E0FFF7DDF9C11B41455ED80D
:10246000DBF800008007F6D4A069E8B3DAF80010C2
:10247000C1F3810102295AD0022806D0C9F8606050
:10248000FFF7C8F904464DE049E04F46C9F86060DF
:10249000FFF7C0F9064604E0FFF7BCF9801B64288B
:1024A0003DD828688001F7D4D4E90701084347F6EE
:1024B000C07191FAA1F1626AB1FA81F18A40A16A10
:1024C0004FF0FF3303EB51014FF4403393FAA3F382
:1024D000B3FA83F399400A4310434FF0706292FAC3
:1024E000A2F2B2FA82F200E01FE0E16A91400843F2
:1024F0001049091F086001203866FFF78BF9044670
:1025000004E0FFF787F9001B642808D828688001D9
:10251000F7D50AE0FFF77EF9001B642802D90320F3
:10252000BDE8F88F28688001F4D40020F8E7012086
:10253000F6E7000008380240003802400000474239
:10254000800E47420070004070B50D46040003D075
:1025500094F82C0010B107E0012070BD002084F831
:102560002D00204600F012F8022084F82C00211DD6
:102570002068FEF7C3FFD4E900022946FFF70EF8F2
:10258000012084F82C00002070BD0000304800B508
:10259000016887B041F001010160006800F00100AE
:1025A00005902B480838016841F00401016001687A
:1025B00001F004010591016841F008010160016822
:1025C00001F008010591016841F010010160016806
:1025D00001F010010591016841F0200101600168DE
:1025E00001F020010591016841F04001016000689F
:1025F000694600F0400005900D20009002200190F7
:1026000001200290032003900C2004901148FFF752
:1026100009F84CF20370009069460F48FFF702F882
:102620004FF68370009069460C48FEF7FBFF4FF6AB
:102630003F00009069460A48FEF7F4FF48F2371061
:10264000009069460748FEF7EDFF07B000BD0000A7
:102650003838024000080240000C024000100240DE
:10266000001402400018024010B5044690F82C00F7
:10267000022809D0022084F82C002068FEF764FFAD
:10268000012084F82C00002010BD70B5044690F89D
:102690002C000D4602280CD0022084F82C00206863
:1026A000FEF758FF2868022804D0012084F82C0087
:1026B000002070BD0520F9E770B515460E460400F0
:1026C00003D094F8490010B107E0012070BD00204C
:1026D00084F84800204600F01BF804F10801206847
:1026E000FEF7A2FE3146A2682068FEF7D9FED4E9C3
:1026F00001022946236BFEF777FEA168206850F897
:10270000212042F0010240F82120002070BD00008D
:102710001A4800B5016887B041F001010160006806
:1027200000F00100059015480838016841F00801E3
:102730000160016801F008010591016841F0100194
:1027400001600068694600F0100005904EF2B37019
:1027500000900220019001200290032003900C20A1
:1027600004900748FEF75EFF4FF6807000906946C0
:102770000448FEF757FF07B000BD0000383802409C
:10278000000C0240001002404FF0E02104280869CC
:1027900003D020F004000861704740F00400FAE71D
:1027A00010B5401EB0F1807F01D3012010BD4FF065
:1027B000E02460610F21601704F008FC0020A06194
:1027C00007202061002010BD30B590F83820012A84
:1027D00020D0012380F83830022280F839200268A6
:1027E000546824F070045460026854680D682C43E7
:1027F00054600268946824F08004946002689468CD
:1028000049680C43946080F83930002180F8381012
:10281000084630BD022030BD10B5040003D094F846
:10282000390010B107E0012010BD002084F8380005
:10283000204600F00CF8022084F83900211D2068A1
:1028400004F01EFD012084F83900002010BD7047FF
:10285000022180F8391001680A6842F001020A601A
:10286000012180F839100020704770B5044690F8B7
:102870003800012817D0012584F83850022084F848
:1028800039002068826822F0770222F47F42826059
:102890000868502836D00DDC202858D005DC80B3DD
:1028A000102840D150E0022070BD302852D040287E
:1028B00039D13EE060282DD070280BD0B0F5805F74
:1028C00003D0B0F5005F2ED110E02068816821F0C0
:1028D000070109E0CB68D1E90121206804F030FD4F
:1028E0002068816841F0770181601CE0CB68D1E904
:1028F0000121206804F024FD2068816841F48041B2
:10290000F2E71EE0CA684968206804F02BFD5021F8
:10291000206806E0CA684968206804F034FD602138
:10292000206804F017FD84F83950002084F838003E
:1029300070BDCA684968206804F014FD4021206811
:10294000EFE700212068ECE710212068E9E720216B
:102950002068E6E730212068E3E7704790F8390007
:10296000704738B5016804460868CA68C0F30000BB
:1029700002F4807238B132B1086848680090E06BA8
:1029800040F00100E06308684A69C0F3400002F0CB
:10299000010238B132B1086848680090E06B40F03D
:1029A0000400E06308684A69C0F3800002F0010295
:1029B00038B132B1086848680090E06B40F002001E
:1029C000E06308684A69C0F3C00002F0010238B150
:1029D00032B1086848680090E06B40F00800E0639E
:1029E0000868C968C0F3401001F0200118B111B1A6
:1029F000204604F0DAFC20680168C068C1F3C01109
:102A000000F0800019B110B1204604F0DBFD216810
:102A10000868CA68C0F3801002F04002012568B15E
:102A200062B1CA68204622F04002CA6094F83910A8
:102A300032290CD080F8395000F086F9E06B00287C
:102A400004D084F839502046FFF787FF38BD222193
:102A500080F83910F0E770B5040004D094F839001C
:102A6000002510B106E0012070BD84F838502046E2
:102A700000F020F8022084F839002068C16821F4B1
:102A80000051C160204604F0E3FC2068016921F494
:102A9000904101612068416921F02A01416120686B
:102AA000C16841F40051C160E563012084F8390038
:102AB000002070BD2DE9F04104463D4A0168002721
:102AC0003C4802250726DFF8F0808CB091422DD1DA
:102AD000016841F001010160006800F001000A9006
:102AE00034481430016841F010010160006805A904
:102AF00000F010000A905015CDE9050507AA012045
:102B000082E861004046FEF78DFD6902059105A946
:102B10004046FEF787FD2520FFF72EF803221146D9
:102B20002520FFF735F80CB0BDE8F081234A91422B
:102B3000F9D1016841F002010160016801F0020170
:102B40000A91016841F002010160006800F0020092
:102B50000A9018481030016841F4003101600068A3
:102B6000694600F400300A9004208DE8A100CDE908
:102B700003564046FEF756FD08208DE8A100CDE93A
:102B8000035669464046FEF74DFD002206212620E9
:102B9000FEF7FEFF2620FEF7EFFF2068C16841F038
:102BA0002001C1602068C16841F01001C160BAE72E
:102BB0000010014030380240000002400044004054
:102BC00090F83930012B01D0122B2BD131B32AB31D
:102BD00090F83830012B25D0012380F838308162FD
:102BE0008285C2850022C26390F83910122917D05D
:102BF000222180F839100168CB6843F48073CB60E0
:102C000001684B6943F001034B6180F8382000688C
:102C1000C16841F02001C160002070470120704769
:102C20003221E6E70220704730B50068114988423A
:102C30000CD1114A5088010408D411464404097883
:102C40004FF0000306D50A2901D0538030BD40F46F
:102C500000400DE00D2909D0C0F30D04074D401CC4
:102C600080B229555080C728EFD830BD40F480404D
:102C7000508030BD00100140500000205805002059
:102C80002DE9F047044690F8390099460D46012891
:102C900001D0222856D125B31AB394F83800012860
:102CA00050D0012684F838600027E76394F8390093
:102CB000222819D0122084F83900A284E2844FF42B
:102CC0008058E08C4B46401EE084A0684FF0000224
:102CD00040454FF08001204613D104F0A6FC08BB0C
:102CE00004E00120BDE8F0873220E4E7288821686D
:102CF000C0F308004860206908B16D1C08E0AD1CF5
:102D000006E004F092FC68B9216815F8010B4860F0
:102D1000E08C0028D5D14B4600224021204604F00B
:102D200084FC08B10320DDE794F83900322805D08F
:102D300084F8396084F838700020D3E7222084F8C2
:102D40003900F7E70220CDE77047FEE770B50D4C7C
:102D50000025C4F890520C48016821F440610160DC
:102D6000016841F480610160C4F89452022004F5C6
:102D7000247405F0C7FE01202060022005F0C2FE89
:102D8000256070BD00804342001C02400E4810B513
:102D9000016886B041F0800101600068012400F004
:102DA000800005903020CDE900040220CDE90240EA
:102DB00069460648FEF736FC0548C0F89442C0F85C
:102DC000904206B010BD000030380240001C0240A6
:102DD0000080434270B50D4C0026C4F890620C4848
:102DE000016821F440610160016841F48061016083
:102DF0000125C4F89452022004F5247405F082FEE3
:102E00002560022005F07EFE266070BD00804342F2
:102E1000001C02402DE9F047814616480024016855
:102E200021F44061016001680160134E2546274688
:102E30004FF00108C6F89072022005F063FEC6F854
:102E400090826006040ED6F8140208B1641CE4B245
:102E5000012005F057FE6D1CEDB2082DEAD3B9F143
:102E6000000F04D0FFF772FF2046BDE8F087FFF7A0
:102E7000B1FFF9E7001C0240008043422DE9F04118
:102E800005461448016821F440610160016841F47D
:102E900080610160104E0027C6F890723C464FF0EA
:102EA0000108E809C6F894026806050E022005F03C
:102EB00029FEC6F89082022005F024FEC6F8907222
:102EC000022005F01FFE641CE4B2082CE9D3BDE823
:102ED000F0810000001C02400080434270B50D48A4
:102EE000016821F440610160016841F48061016082
:102EF000094C0120C4F89402C4F89002042004F59F
:102F0000247405F0FFFD00256560042005F0FAFD3E
:102F1000256070BD001C02400080434270B50D4822
:102F2000016821F440610160016841F48061016041
:102F3000094C0020C4F89002C4F89402042004F55F
:102F4000247405F0DFFD01252560042005F0DAFD7D
:102F5000656070BD001C02400080434270B512489D
:102F60000024016821F440610160016801600F4D97
:102F70000126C5F89462304605F0C4FDC5F890629C
:102F8000012005F0BFFD07E0641CE4B2FA2C03D970
:102F9000FFF7C4FF012070BDD5F814020028F3D15B
:102FA000C5F8900270BD0000001C02400080434242
:102FB00070B51B4886B00025016841F00101016031
:102FC000016801F001010591016841F0040101600F
:102FD000016801F004010591016841F08001016080
:102FE0000068032400F08000059002200126CDE94E
:102FF0000204CDE9006569460A48FEF713FB700339
:1030000003948DE8610069460748FEF70BFB0C202E
:10301000009069460548FEF705FB06B070BD00004C
:10302000303802400000024000080240001C02400C
:103030002DE9F0470126304C7703DFF8C080DFF838
:10304000C090304D01281DD02078A0B1082128461D
:10305000FEF7D6FBC0B104212846FEF7D1FB98B19C
:1030600039464046FEF7CCFB70B101214846FEF7D9
:10307000C7FB012808D008212846FEF7C1FB01281C
:1030800026D037E02670E1E70A2005F01FFD00207A
:10309000207008212846FEF7B3FB80B104212846A2
:1030A000FEF7AEFB70B139464046FEF7A9FB58B1BA
:1030B00001214846FEF7A4FB012807D01AE00120B1
:1030C000BDE8F0870220FBE70320F9E70420F7E7DB
:1030D00004212846FEF794FB01280BD139464046CF
:1030E000FEF78EFB012805D101214846FEF788FB3B
:1030F00000B926700020E3E75800002000080240D5
:1031000000000240001C024070B50E490E4A0646FF
:1031100008881268002422B13046BDE8704003F0F0
:1031200073B94D8800214543084602F0D1FF03F0F2
:1031300033F9B1B2054801E00180641CAC42FBD315
:1031400070BD0000B00600209C0700200000086051
:103150002DE9F05F3E4C3F4DA071296839B103F075
:1031600073F9E88A2080288B6080BDE8F09F384999
:103170002C252B2689884FF0F00845F210594FF482
:10318000305A4FF4285B4FF42C5E2A274FF44873D3
:103190004FF4A07C4FF4F07260B1A4F800C0A4F822
:1031A0000280494532D1A4F808A0A4F80AB0A4F8D6
:1031B0000CE042E0A4F80080A4F802C0494506D122
:1031C000A4F808A0A4F80AB0A4F80CE011E0A1F556
:1031D000C850633825810AD06781A681A1F5A64031
:1031E000103809D0A1F5EE40963805D007E0668189
:1031F000A78122806380F1E7A4F800C06280A1F576
:10320000184006381FD1228063801CE0A1F5C85009
:1032100063380FD0A1F5184006380BD0258167819F
:10322000A681A1F5A64010380AD0A1F5EE40963847
:1032300006D008E025816781A68123806280F0E7BF
:103240002280A4F802C0BDE8F05F002002F06EBE4C
:10325000B00600209C0700202DE9F04104463448C8
:103260000D46006820B12046BDE8F04103F000B9EA
:10327000304E270A3046B1884089A1F5AA434FEA6B
:103280001528103B0FD0A1F5C853633B24D003F0A1
:1032900077F8384603F068F8E0B203F065F8B089D3
:1032A00003F06EF836E003F06BF8384603F05CF894
:1032B0007089401C80B203F063F8E0B203F054F868
:1032C000B08903F05DF8404603F04EF8B089401C29
:1032D00080B203F055F820E0B17919B93188091BA3
:1032E000491E8CB203F04CF8270A384603F03CF82C
:1032F000E0B203F039F8384603F036F8E0B203F0F4
:1033000033F8B08903F03CF8404603F02DF8E8B2FA
:1033100003F02AF8404603F027F8E8B203F024F857
:10332000054930890880881C0280BDE8F0810000D2
:103330009C070020B0060020FEFF07602DE9F8433F
:103340001F46144B804608981B6833B100903B46DB
:10335000404603F0ABF8BDE8F883A2EB0802521C2C
:1033600096B20C4685B2DFF830900FE02146404619
:1033700002F0AEFE03F010F80020494602E00D8096
:10338000401C80B2B042FAD3641CA4B2BC42EDD956
:10339000E1E700009C070020000008602DE9F04FE5
:1033A00095B003F021FAF84C47F2897545F21036D2
:1033B000A08045F2105947F2967849F6060A41F680
:1033C000631B18B103F0CCF802F03BBDEF480027B7
:1033D000016841F002010160006810A900F00200DC
:1033E0000090202010900120119012900320139043
:1033F000E748FEF717F9E4484FF02041503802AA99
:103400000160E449C0E901171021C760C0E90471F7
:1034100087610902C761C0E909718900C0E90B71C0
:1034200089014763C0E90E7146210B910F20CDE958
:103430000907CDE902070490D3480F9709A9089717
:103440005038FFF739F9322005F040FBD32002F065
:1034500097FF02F039FDA08002F036FDA08002F057
:1034600033FD4FF6FF7707EA0020A08002F02CFD25
:10347000A1880843A0F51341A08041397DD00420E4
:1034800002F07EFF02F020FDA08002F01DFDA08072
:1034900002F01AFD07EA0020A08002F015FDA188C5
:1034A0000843A0F50541A080523967D0A84264D0F6
:1034B000D42002F065FF02F007FDA08002F004FDB9
:1034C000A08002F001FD07EA0020A08002F0FCFCD1
:1034D000A1880843A080B04276D0D32002F050FFEC
:1034E00002F0F2FCA08002F0EFFCA08002F0ECFC05
:1034F00007EA0020A08002F0E7FCA1880843A08032
:10350000404561D055214FF4704002F04FFFAA2191
:103510004FF2010002F04AFF52214FF2020002F086
:1035200045FF08214FF2030002F040FF01214FF256
:10353000040002F03BFF4FF4454002F021FF02F08F
:10354000C3FC07EA0020A0804CF2015002F018FFF3
:1035500002F0BAFCA1880843A080052005F0B6FA65
:10356000A188494530D0D32002F00AFF02F0ACFC1C
:10357000A08002F0A9FCA08001E020E020E002F0A1
:10358000A3FC07EA0020A08002F09EFCA18808436B
:10359000A080504518D0A12002F0F2FE02F094FC69
:1035A000A08002F091FC07EA0020A08002F08CFCD1
:1035B000A1880843A0F5AE41A080613902D003E0A4
:1035C000A58001E0A4F804B0A18873A004F0FCF881
:1035D000A088A0F5134141397ED0A8427DD11120A9
:1035E00002F0CEFE782005F071FA362002F0C8FE17
:1035F000002002F0B9FE3A2002F0C2FE052002F0DF
:10360000B3FEB22002F0BCFE0C2002F0ADFE0C2096
:1036100002F0AAFE002002F0A7FE332002F0A4FE72
:10362000332002F0A1FEB72002F0AAFE352002F0FE
:103630009BFEBB2002F0A4FE322002F095FEC020CB
:1036400002F09EFE0C2002F08FFEC22002F098FED7
:10365000012002F089FEC32002F092FE102002F049
:1036600083FEC42002F08CFE202002F07DFEC620E6
:1036700002F086FE0F2002F077FED02002F080FEDE
:10368000A42002F071FEA12002F06EFEE02002F004
:1036900077FED02002F068FE002002F065FE0220D6
:1036A00002F062FE072002F05FFE0A2002F05CFEDC
:1036B000282002F059FE322002F056FE442002F08B
:1036C00053FE422002F050FE062002F04DFE0E2076
:1036D00002F04AFE122001E066E077E102F044FECB
:1036E000142002F041FE172002F03EFEE12002F01D
:1036F00047FED02002F038FE002002F035FE022006
:1037000002F032FE072002F02FFE0A2002F02CFE0B
:10371000282002F029FE312002F026FE542002F07B
:1037200023FE472002F020FE0E2002F01DFE1C208A
:1037300002F01AFE172002F017FE1B2002F014FE02
:103740001E2002F011FE2A2002F01AFE002002F0D4
:103750000BFE002002F008FE002002F005FEEF2024
:1037600002F002FE2B2002F00BFE002002F0FCFD16
:10377000002002F0F9FD012002F0F6FD3F2002F0EA
:10378000F3FD292002F0A0BAB00600203038024034
:1037900000040240040100A0204C43442049443A64
:1037A00025780D0A00000000CF2002F0E9FD00207E
:1037B00002F0DAFDC12002F0D7FD302002F0D4FD86
:1037C000ED2002F0DDFD642002F0CEFD032002F0CA
:1037D000CBFD122002F0C8FD812002F0C5FDE820DB
:1037E00002F0CEFD852002F0BFFD102002F0BCFDEE
:1037F0007A2002F0B9FDCB2002F0C2FD392002F0A0
:10380000B3FD2C2002F0B0FD002002F0ADFD34200D
:1038100002F0AAFD022002F0A7FDF72002F0B0FDA1
:10382000202002F0A1FDEA2002F0AAFD002002F013
:103830009BFD002002F098FDC02002F0A1FD1B209E
:1038400002F092FDC12002F09BFD012002F08CFDF0
:10385000C52002F095FD302002F086FD302002F0F8
:1038600083FDC72002F08CFDB72002F07DFD3620DD
:1038700002F086FD482002F077FD3A2002F080FD3C
:10388000552002F071FDB12002F07AFD002002F017
:103890006BFD1A2002F068FDB62002F071FD0A20CF
:1038A00002F062FDA22002F05FFDF22002F068FD4E
:1038B000002002F059FD262002F062FD012002F0F6
:1038C00053FDE02002F05CFD0F2002F04DFD2A20A8
:1038D00002F04AFD282002F047FD082002F044FDD6
:1038E0000E2002F041FD082002F03EFD542002F0BF
:1038F0003BFDA92002F038FD432002F035FD0A20EF
:1039000002F032FD0F2002F02FFD002002F02CFD0E
:10391000002002F029FD002002F026FD002002F028
:1039200023FDE12002F02CFD002002F01DFD1520FA
:1039300002F01AFD172002F017FD072002F014FD17
:10394000112002F011FD062002F00EFD2B2002F0E6
:103950000BFD562002F008FD3C2002F005FD05207D
:1039600002F002FD102002F0FFFC0F2002F0FCFC30
:103970003F2002F0F9FC3F2002F0F6FC0F2002F09D
:10398000F3FC2B2002F0FCFC002002F0EDFC0020F8
:1039900002F0EAFC012002F0E7FC3F2002F0E4FC28
:1039A0002A2002F0EDFC002002F0DEFC002002F0F4
:1039B000DBFC002002F0D8FCEF2002F0D5FC112047
:1039C00002F0DEFC782005F081F8DAE6B0427CD126
:1039D000ED2002F0D5FC012002F0C6FCFE2002F032
:1039E000C3FCEE2002F0CCFCDE2002F0BDFC212066
:1039F00002F0BAFCF12002F0C3FC012002F0B4FC9A
:103A0000DF2002F0BDFC102002F0AEFCC42002F06A
:103A1000B7FC8F2002F0A8FCC62002F0B1FC002009
:103A200002F0A2FCE22002F09FFCE22002F09CFCEB
:103A3000E22002F099FCBF2002F0A2FCAA2002F0D2
:103A400093FCB02002F09CFC0D2002F08DFC0020C5
:103A500002F08AFC0D2002F087FC002002F084FCBA
:103A6000112002F081FC002002F07EFC192002F0FF
:103A70007BFC002002F078FC212002F075FC002085
:103A800002F072FC2D2002F06FFC002002F06CFCB2
:103A90003D2002F069FC002002F066FC5D2002F08F
:103AA00063FC002002F060FC5D2002F05DFC002061
:103AB00002F05AFCB12002F063FC802002F054FCBA
:103AC000002002F051FC8B2000E0FCE302F04CFCF3
:103AD000002002F049FC962002F046FC002002F093
:103AE00043FCB22002F04CFC002002F03DFC002020
:103AF00002F03AFC022002F037FC002002F034FC15
:103B0000032002F031FC002002F02EFCB32002F072
:103B100037FC002002F028FC002002F025FC0020E9
:103B200002F022FC002002F01FFC002002F01CFC2E
:103B3000002002F019FC002002F016FC002002F028
:103B400013FC002002F010FC002002F00DFC00200D
:103B500002F00AFC002002F007FC002002F004FC46
:103B6000002002F001FC002002F0FEFB002002F029
:103B7000FBFB002002F0F8FB002002F0F5FB002028
:103B800002F0F2FB002002F0EFFB002002F0ECFB61
:103B9000002002F0E9FB002002F0E6FB002002F02A
:103BA000E3FBB42002F0ECFB8B2002F0DDFB0020F5
:103BB00002F0DAFB962002F0D7FB002002F0D4FBE3
:103BC000A12002F0D1FB002002F0CEFBB52002F0D4
:103BD000D7FB022002F0C8FB002002F0C5FB032047
:103BE00002F0C2FB002002F0BFFB042002F0BCFB8D
:103BF000002002F0B9FBB62002F0C2FB002002F068
:103C0000B3FB002002F0B0FBB72002F0B9FB0020AC
:103C100002F0AAFB002002F0A7FB3F2002F0A4FB69
:103C2000002002F0A1FB5E2002F09EFB002002F0CB
:103C30009BFB642002F098FB002002F095FB8C2097
:103C400002F092FB002002F08FFBAC2002F08CFB14
:103C5000002002F089FBDC2002F086FB002002F04D
:103C600083FB702002F080FB002002F07DFB90209F
:103C700002F07AFB002002F077FBEB2002F074FBED
:103C8000002002F071FBDC2002F06EFB002002F04D
:103C90006BFBB82002F074FB002002F065FB0020F3
:103CA00002F062FB002002F05FFB002002F05CFBF0
:103CB000002002F059FB002002F056FB002002F029
:103CC00053FB002002F050FBBA2002F059FB2420E5
:103CD00002F04AFB002002F047FB002002F044FB08
:103CE000002002F041FBC12002F04AFB202002F03C
:103CF0003BFB002002F038FB542002F035FB002093
:103D000002F032FBFF2002F02FFB002002F02CFB20
:103D1000C22002F035FB0A2002F026FB002002F050
:103D200023FB042002F020FB002002F01DFBC32037
:103D300002F026FB3C2002F017FB002002F014FBEF
:103D40003A2002F011FB002002F00EFB392002F0B5
:103D50000BFB002002F008FB372002F005FB0020DF
:103D600002F002FB3C2002F0FFFA002002F0FCFA15
:103D7000362002F0F9FA002002F0F6FA322002F0C2
:103D8000F3FA002002F0F0FA2F2002F0EDFA002002
:103D900002F0EAFA2C2002F0E7FA002002F0E4FA3E
:103DA000292002F0E1FA002002F0DEFA262002F0DB
:103DB000DBFA002002F0D8FA242002F0D5FA002025
:103DC00002F0D2FA242002F0CFFA002002F0CCFA5E
:103DD000232002F0C9FA002002F0C6FA3C2002F0CB
:103DE000C3FA002002F0C0FA362002F0BDFA00202B
:103DF00002F0BAFA322002F0B7FA002002F0B4FA68
:103E00002F2002F0B1FA002002F0AEFA2C2002F0CE
:103E1000ABFA002002F0A8FA292002F0A5FA00204F
:103E200002F0A2FA262002F09FFA002002F09CFA8B
:103E3000242002F099FA002002F096FA242002F0E1
:103E400093FA002002F090FA232002F08DFA00206D
:103E500002F08AFAC42002F093FA622002F084FA97
:103E6000002002F081FA052002F07EFA002002F024
:103E70007BFA842002F078FA002002F075FAF02034
:103E800002F072FA002002F06FFA182002F06CFAC9
:103E9000002002F069FAA42002F066FA002002F085
:103EA00063FA182002F060FA002002F05DFA502058
:103EB00002F05AFA002002F057FA0C2002F054FAED
:103EC000002002F051FA172002F04EFA002002F012
:103ED0004BFA952002F048FA002002F045FAF32050
:103EE00002F042FA002002F03FFAE62002F03CFA2B
:103EF000002002F039FAC52002F042FA322002F026
:103F000033FA002002F030FA442002F02DFA0020AB
:103F100002F02AFA652002F027FA002002F024FAC3
:103F2000762002F021FA002002F01EFA882002F02A
:103F30001BFA002002F018FAC62002F021FA202015
:103F400002F012FA002002F00FFA172002F00CFA29
:103F5000002002F009FA012002F006FA002002F027
:103F600003FAC72002F00CFA002002F0FDF900204D
:103F700002F0FAF9002002F0F7F9002002F0F4F95B
:103F8000C82002F0FDF9002002F0EEF9002002F056
:103F9000EBF9002002F0E8F9002002F0E5F9C92071
:103FA00002F0EEF9002002F0DFF9002002F0DCF967
:103FB000002002F0D9F9002002F0D6F9002002F02A
:103FC000D3F9002002F0D0F9002002F0CDF9002052
:103FD00002F0CAF9002002F0C7F9002002F0C4F98B
:103FE000002002F0C1F9002002F0BEF9002002F02A
:103FF000BBF9002002F0B8F9002002F0B5F900206A
:1040000002F0B2F9E02002F0BBF9162002F0ACF9A0
:10401000002002F0A9F91C2002F0A6F9002002F00D
:10402000A3F9212002F0A0F9002002F09DF936202A
:1040300002F09AF9002002F097F9462002F094F974
:10404000002002F091F9522002F08EF9002002F0D7
:104050008BF9642002F088F9002002F085F97A20BB
:1040600002F082F9002002F07FF98B2002F07CF947
:10407000002002F079F9992002F076F9002002F090
:1040800073F9A82002F070F9002002F06DF9B92050
:1040900002F06AF9002002F067F9C42002F064F926
:1040A000002002F061F9CA2002F05EF9002002F05F
:1040B0005BF9D22002F058F9002002F055F9D9201E
:1040C00002F052F9002002F04FF9E02002F04CF922
:1040D000002002F049F9F32002F046F9002002F036
:1040E00043F9E12002F04CF9162002F03DF90020DE
:1040F00002F03AF91C2002F037F9002002F034F9FE
:10410000222002F031F9002002F02EF9362002F0D0
:104110002BF9002002F028F9452002F025F90020B3
:1041200002F022F9522002F01FF9002002F01CF9DF
:10413000642002F019F9002002F016F97A2002F04A
:1041400013F9002002F010F98B2002F00DF9002085
:1041500002F00AF9992002F007F9002002F004F9B0
:10416000A82002F001F9002002F0FEF8B92002F0C8
:10417000FBF8002002F0F8F8C42002F0F5F8002067
:1041800002F0F2F8CA2002F0EFF8002002F0ECF89A
:10419000D22002F0E9F8002002F0E6F8D82002F080
:1041A000E3F8002002F0E0F8E02002F0DDF8002063
:1041B00002F0DAF8F32002F0D7F8002002F0D4F889
:1041C000E22002F0DDF8052002F0CEF8002002F037
:1041D000CBF80B2002F0C8F8002002F0C5F81B2035
:1041E00002F0C2F8002002F0BFF8342002F0BCF860
:1041F000002002F0B9F8442002F0B6F8002002F0E6
:10420000B3F84F2002F0B0F8002002F0ADF86120C2
:1042100002F0AAF8002002F0A7F8792002F0A4F832
:10422000002002F0A1F8882002F09EF8002002F0A1
:104230009BF8972002F098F8002002F095F8A6204D
:1042400002F092F8002002F08FF8B72002F08CF80C
:10425000002002F089F8C22002F086F8002002F067
:1042600083F8C72002F080F8002002F07DF8D1200A
:1042700002F07AF8002002F077F8D62002F074F805
:10428000002002F071F8DD2002F06EF8002002F04C
:104290006BF8F32002F068F8002002F065F8E320E4
:1042A00002F06EF8052002F05FF8002002F05CF8E2
:1042B0000A2002F059F8002002F056F81C2002F003
:1042C00053F8002000E0FDE202F04EF8332002F047
:1042D0004BF8002002F048F8442002F045F8002096
:1042E00002F042F8502002F03FF8002002F03CF8C3
:1042F000622002F039F8002002F036F8782002F04F
:1043000033F8002002F030F8882002F02DF8002069
:1043100002F02AF8972002F027F8002002F024F893
:10432000A62002F021F8002002F01EF8B72002F0CB
:104330001BF8002002F018F8C22002F015F8002047
:1043400002F012F8C72002F00FF8002002F00CF87B
:10435000D12002F009F8002002F006F8D52002F082
:1043600003F8002002F000F8DD2001F0FDFF00203E
:1043700001F0FAFFF32001F0F7FF002001F0F4FF55
:10438000E42001F0FDFF012001F0EEFF002001F02C
:10439000EBFF012001F0E8FF002001F0E5FF022023
:1043A00001F0E2FF002001F0DFFF2A2001F0DCFF36
:1043B000002001F0D9FF3C2001F0D6FF002001F0E1
:1043C000D3FF4B2001F0D0FF002001F0CDFF5D2096
:1043D00001F0CAFF002001F0C7FF742001F0C4FF04
:1043E000002001F0C1FF842001F0BEFF002001F099
:1043F000BBFF932001F0B8FF002001F0B5FFA22021
:1044000001F0B2FF002001F0AFFFB32001F0ACFFDC
:10441000002001F0A9FFBE2001F0A6FF002001F05E
:10442000A3FFC42001F0A0FF002001F09DFFCD20DC
:1044300001F09AFF002001F097FFD32001F094FFD4
:10444000002001F091FFDD2001F08EFF002001F03F
:104450008BFFF32001F088FF002001F085FFE520AD
:1044600001F08EFF002001F07FFF002001F07CFFB3
:10447000002001F079FF002001F076FF022001F01A
:1044800073FF002001F070FF292001F06DFF002074
:1044900001F06AFF3C2001F067FF002001F064FF9B
:1044A0004B2001F061FF002001F05EFF5D2001F074
:1044B0005BFF002001F058FF742001F055FF002041
:1044C00001F052FF842001F04FFF002001F04CFF6B
:1044D000932001F049FF002001F046FFA22001F0E7
:1044E00043FF002001F040FFB32001F03DFF00201A
:1044F00001F03AFFBE2001F037FF002001F034FF49
:10450000C42001F031FF002001F02EFFCD2001F08A
:104510002BFF002001F028FFD32001F025FF002011
:1045200001F022FFDC2001F01FFF002001F01CFF42
:10453000F32001F019FF002001F016FFE62001F042
:104540001FFF112001F010FF002001F00DFF3420AB
:1045500001F00AFF002001F007FF562001F004FFE0
:10456000002001F001FF762001F0FEFE002001F0A6
:10457000FBFE772001F0F8FE002001F0F5FE66203A
:1045800001F0F2FE002001F0EFFE882001F0ECFEC9
:10459000002001F0E9FE992001F0E6FE002001F084
:1045A000E3FEBB2001F0E0FE002001F0DDFE9920DB
:1045B00001F0DAFE002001F0D7FE662001F0D4FE03
:1045C000002001F0D1FE552001F0CEFE002001F0C8
:1045D000CBFE552001F0C8FE002001F0C5FE4520AD
:1045E00001F0C2FE002001F0BFFE432001F0BCFE3E
:1045F000002001F0B9FE442001F0B6FE002001F0D9
:10460000B3FEE72001F0BCFE322001F0ADFE002039
:1046100001F0AAFE552001F0A7FE002001F0A4FE43
:10462000762001F0A1FE002001F09EFE662001F040
:104630009BFE002001F098FE672001F095FE00200F
:1046400001F092FE672001F08FFE002001F08CFE49
:10465000872001F089FE002001F086FE992001F0FC
:1046600083FE002001F080FEBB2001F07DFE0020D3
:1046700001F07AFE992001F077FE002001F074FE2F
:10468000772001F071FE002001F06EFE442001F061
:104690006BFE002001F068FE562001F065FE002050
:1046A00001F062FE232001F05FFE002001F05CFEBD
:1046B000332001F059FE002001F056FE452001F0A4
:1046C00053FE002001F050FEE82001F059FE0020CA
:1046D00001F04AFE002001F047FE992001F044FE5F
:1046E000002001F041FE872001F03EFE002001F095
:1046F0003BFE882001F038FE002001F035FE7720D7
:1047000001F032FE002001F02FFE662001F02CFEA9
:10471000002001F029FE882001F026FE002001F093
:1047200023FEAA2001F020FE002001F01DFEBB2088
:1047300001F01AFE002001F017FE992001F014FE8E
:10474000002001F011FE662001F00EFE002001F0B5
:104750000BFE552001F008FE002001F005FE55205B
:1047600001F002FE002001F0FFFD442001F0FCFDFD
:10477000002001F0F9FD442001F0F6FD002001F0D9
:10478000F3FD552001F0F0FD002001F0EDFDE920E2
:1047900001F0F6FDAA2001F0E7FD002001F0E4FDA4
:1047A000002001F0E1FD002001F0DEFD002001F01D
:1047B000E7FDAA2001F0D8FDCF2001F0E1FD0020A7
:1047C00001F0D2FD002001F0CFFD002001F0CCFD72
:1047D000002001F0C9FD002001F0C6FD002001F01D
:1047E000C3FD002001F0C0FD002001F0BDFD002050
:1047F00001F0BAFD002001F0B7FD002001F0B4FD8A
:10480000002001F0B1FD002001F0AEFD002001F01C
:10481000ABFD002001F0A8FD002001F0A5FD002067
:1048200001F0A2FDF02001F0ABFD002001F09CFDA5
:10483000502001F099FD002001F096FD002001F0CC
:1048400093FD002001F090FDF32001F099FD002080
:1048500001F08AFDF92001F093FD062001F084FDAE
:10486000102001F081FD292001F07EFD002001F0E3
:104870007BFD3A2001F084FD552001F075FD1120EB
:1048800001F07EFD642004F021F9292001F078FD7B
:10489000352001F075FD002001F066FD512001F08A
:1048A0006FFDFF2001F060FD532001F069FD2C2019
:1048B00001F05AFD552001F063FD822001F054FD06
:1048C00001F001BA48457DD155214FF4704001F007
:1048D0006DFDAA214FF2010001F068FD52214FF257
:1048E000020001F063FD4FF203030821184601F0B6
:1048F0005DFD4FF204070121384601F057FD0D21FF
:104900004FF4304001F052FD0D214BF2010001F057
:104910004DFD0D214BF2020001F048FD34214FF412
:10492000364001F043FD34214BF2016001F03EFDC1
:1049300034214BF2026001F039FD0D214FF431407A
:1049400001F034FD0D214BF2011001F02FFD0D217E
:104950004BF2021001F02AFD34214FF4374001F0F0
:1049600025FD34214BF2017001F020FD34214BF282
:10497000027001F01BFD00214FF4324001F016FDE2
:1049800000214BF2012001F011FD00214BF2022029
:1049900001F00CFD24214FF4384001F007FD2421E3
:1049A0004BF6010001F002FD24214BF6020001F05C
:1049B000FDFC01214FF43F4001F0F8FC0F214FF4C2
:1049C000334000E0FEE301F0F1FC0F214BF2013037
:1049D00001F0ECFC0F214BF2023001F0E7FC342136
:1049E0004FF4394001F0E2FC34214BF6011001F0A4
:1049F000DDFC34214BF6021001F0D8FC08214FF405
:104A0000354001F0D3FC08214BF2015001F0CEFCFF
:104A100008214BF2025001F0C9FC03214FF442403F
:104A200001F0C4FC24214FF43A4001F0BFFC2421E2
:104A30004BF6012001F0BAFC24214BF6022001F0D4
:104A4000B5FC00214FF43C4001F0B0FC78214BF65E
:104A5000014001F0ABFC00214BF6024001F0A6FC46
:104A600000214FF43D4001F0A1FC78214BF60150AC
:104A700001F09CFC00214BF6025001F097FC002154
:104A80004FF43E4001F092FC64214BF6016001F0CE
:104A90008DFC00214FF4514001F088FC33214DF290
:104AA000011001F083FC00214DF2021001F07EFCA8
:104AB00034214DF2031001F079FC00214DF2041075
:104AC00001F074FC3A214DF2051001F06FFC002159
:104AD0004DF2061001F06AFC4A214DF2071001F078
:104AE00065FC00214DF2081001F060FC5C214DF2E4
:104AF000091001F05BFC00214DF20A1001F056FC98
:104B000081214DF20B1001F051FC00214DF20C10EF
:104B100001F04CFCA6214DF20D1001F047FC0021E4
:104B20004DF20E1001F042FCE5214DF20F1001F0A4
:104B30003DFC01214DF2101001F038FC13214DF223
:104B4000111001F033FC01214DF2121001F02EFC86
:104B500054214DF2131001F029FC01214DF21410E3
:104B600001F024FC82214DF2151001F01FFC0121FF
:104B70004DF2161001F01AFCCA214DF2171001F087
:104B800015FC02214DF2181001F010FC00214DF22D
:104B9000191001F00BFC02214DF21A1001F006FC75
:104BA00001214DF21B1001F001FC02214DF21C10FD
:104BB00001F0FCFB34214DF21D1001F0F7FB022146
:104BC0004DF21E1001F0F2FB67214DF21F1001F0B3
:104BD000EDFB02214DF2201001F0E8FB84214DF2A3
:104BE000211001F0E3FB02214DF2221001F0DEFB67
:104BF000A4214DF2231001F0D9FB02214DF2241023
:104C000001F0D4FBB7214DF2251001F0CFFB0221BA
:104C10004DF2261001F0CAFBCF214DF2271001F012
:104C2000C5FB02214DF2281001F0C0FBDE214DF240
:104C3000291001F0BBFB02214DF22A1001F0B6FB56
:104C4000F2214DF22B1001F0B1FB02214DF22C109C
:104C500001F0ACFBFE214DF22D1001F0A7FB03216A
:104C60004DF22E1001F0A2FB10214DF22F1001F099
:104C70009DFB03214DF2301001F098FB33214DF2E2
:104C8000311001F093FB03214DF2321001F08EFB45
:104C90006D214DF2331001F089FB00214FF4524099
:104CA00001F084FB33214DF2012001F07FFB002154
:104CB0004DF2022001F07AFB34214DF2032001F085
:104CC00075FB00214DF2042001F070FB3A214DF2FA
:104CD000052001F06BFB00214DF2062001F066FB80
:104CE0004A214DF2072001F061FB00214DF208201E
:104CF00001F05CFB5C214DF2092001F057FB002123
:104D00004DF20A2001F052FB81214DF20B2001F0FF
:104D10004DFB00214DF20C2001F048FBA6214DF285
:104D20000D2001F043FB00214DF20E2001F03EFB6F
:104D3000E5214DF20F2001F039FB01214DF2102049
:104D400001F034FB13214DF2112001F02FFB012162
:104D50004DF2122001F02AFB54214DF2132001F0F4
:104D600025FB01214DF2142001F020FB82214DF2A0
:104D7000152001F01BFB01214DF2162001F016FB5E
:104D8000CA214DF2172001F011FB02214DF218202B
:104D900001F00CFB00214DF2192001F007FB02216C
:104DA0004DF21A2001F002FB01214DF21B2001F00F
:104DB000FDFA02214DF21C2001F0F8FA34214DF2E7
:104DC0001D2001F0F3FA02214DF21E2001F0EEFA4F
:104DD00067214DF21F2001F0E9FA02214DF2202057
:104DE00001F0E4FA84214DF2212001F0DFFA0221E2
:104DF0004DF2222001F0DAFAA4214DF2232001F035
:104E0000D5FA02214DF2242001F0D0FAB7214DF25B
:104E1000252001F0CBFA02214DF2262001F0C6FA3E
:104E2000CF214DF2272001F0C1FA02214DF22820B6
:104E300001F0BCFADE214DF2292001F0B7FA02217F
:104E40004DF22A2001F0B2FAF2214DF22B2001F0AE
:104E5000ADFA02214DF22C2001F0A8FAFE214DF20C
:104E60002D2001F0A3FA03214DF22E2001F09EFA2D
:104E700010214DF22F2001F099FA03214DF230203C
:104E800001F094FA33214DF2312001F08FFA032121
:104E90004DF2322001F08AFA6D214DF2332001F0FB
:104EA00085FA00214FF4534001F080FA33214DF28E
:104EB000013001F07BFA00214DF2023001F076FA68
:104EC00034214DF2033001F071FA00214DF204302B
:104ED00001F06CFA3A214DF2053001F067FA002139
:104EE0004DF2063001F062FA4A214DF2073001F02E
:104EF0005DFA00214DF2083001F058FA5C214DF2C4
:104F0000093001F053FA00214DF20A3001F04EFA57
:104F100081214DF20B3001F049FA00214DF20C30A5
:104F200001F044FAA6214DF20D3001F03FFA0021C4
:104F30004DF20E3001F03AFAE5214DF20F3001F05A
:104F400035FA01214DF2103001F030FA13214DF203
:104F5000113001F02BFA01214DF2123001F026FA46
:104F600054214DF2133001F021FA01214DF2143099
:104F700001F01CFA82214DF2153001F017FA0121DF
:104F80004DF2163001F012FACA214DF2173001F03D
:104F90000DFA02214DF2183001F008FA00214DF20D
:104FA000193001F003FA02214DF21A3001F0FEF936
:104FB00001214DF21B3001F0F9F902214DF21C30B4
:104FC00001F0F4F934214DF21D3001F0EFF9022126
:104FD0004DF21E3001F0EAF967214DF21F3001F069
:104FE000E5F902214DF2203001F0E0F984214DF283
:104FF000213001F0DBF902214DF2223001F0D6F927
:10500000A4214DF2233001F0D1F902214DF22430D8
:1050100001F0CCF9B7214DF2253001F0C7F902219A
:105020004DF2263001F0C2F9CF214DF2273001F0C8
:10503000BDF902214DF2283001F0B8F9DE214DF220
:10504000293001F0B3F902214DF22A3001F0AEF916
:10505000F2214DF22B3001F0A9F902214DF22C3052
:1050600001F0A4F9FE214DF22D3001F09FF903214A
:105070004DF22E3001F09AF910214DF22F3001F04F
:1050800095F903214DF2303001F090F933214DF2C2
:10509000313001F08BF903214DF2323001F086F905
:1050A0006D214DF2333001F081F900214FF454406D
:1050B00001F07CF933214DF2014001F077F9002134
:1050C0004DF2024001F072F934214DF2034001F03B
:1050D0006DF900214DF2044001F068F93A214DF2DA
:1050E000054001F063F900214DF2064001F05EF940
:1050F0004A214DF2074001F059F900214DF20840D4
:1051000001F054F95C214DF2094001F04FF9002102
:105110004DF20A4001F04AF981214DF20B4001F0B5
:1051200045F900214DF20C4001F040F9A6214DF265
:105130000D4001F03BF900214DF20E4001F036F92F
:10514000E5214DF20F4001F031F901214DF21040FF
:1051500001F02CF913214DF2114001F027F9012142
:105160004DF2124001F022F954214DF2134001F0AA
:105170001DF901214DF2144001F018F982214DF280
:10518000154001F013F901214DF2164001F00EF91E
:10519000CA214DF2174001F009F902214DF21840E1
:1051A00001F004F900214DF2194001F0FFF802214D
:1051B0004DF21A4001F0FAF801214DF21B4001F0C6
:1051C000F5F800E0FCE202214DF21C4001F0EEF89F
:1051D00034214DF21D4001F0E9F802214DF21E404C
:1051E00001F0E4F867214DF21F4001F0DFF80221E1
:1051F0004DF2204001F0DAF884214DF2214001F017
:10520000D5F802214DF2224001F0D0F8A4214DF250
:10521000234001F0CBF802214DF2244001F0C6F802
:10522000B7214DF2254001F0C1F802214DF2264090
:1052300001F0BCF8CF214DF2274001F0B7F8022170
:105240004DF2284001F0B2F8DE214DF2294001F084
:10525000ADF802214DF22A4001F0A8F8F2214DF2FA
:105260002B4001F0A3F802214DF22C4001F09EF8F2
:10527000FE214DF22D4001F099F803214DF22E4010
:1052800001F094F810214DF22F4001F08FF8032126
:105290004DF2304001F08AF833214DF2314001F0F7
:1052A00085F803214DF2324001F080F86D214DF276
:1052B000334001F07BF800214FF4554001F076F8BF
:1052C00033214DF2015001F071F800214DF20250EE
:1052D00001F06CF834214DF2035001F067F8002121
:1052E0004DF2045001F062F83A214DF2055001F000
:1052F0005DF800214DF2065001F058F84A214DF2B8
:10530000075001F053F800214DF2085001F04EF81B
:105310005C214DF2095001F049F800214DF20A508C
:1053200001F044F881214DF20B5001F03FF80021CB
:105330004DF20C5001F03AF8A6214DF20D5001F05B
:1053400035F800214DF20E5001F030F8E5214DF214
:105350000F5001F02BF801214DF2105001F026F80A
:1053600013214DF2115001F021F801214DF212509C
:1053700001F01CF854214DF2135001F017F80121EF
:105380004DF2145001F012F882214DF2155001F047
:105390000DF801214DF2165001F008F8CA214DF226
:1053A000175001F003F802214DF2185000F0FEFFF3
:1053B00000214DF2195000F0F9FF02214DF21A5070
:1053C00000F0F4FF01214DF21B5000F0EFFF02212D
:1053D0004DF21C5000F0EAFF34214DF21D5000F058
:1053E000E5FF02214DF21E5000F0E0FF67214DF273
:1053F0001F5000F0DBFF02214DF2205000F0D6FFDD
:1054000084214DF2215000F0D1FF02214DF22250B3
:1054100000F0CCFFA4214DF2235000F0C7FF022181
:105420004DF2245000F0C2FFB7214DF2255000F09C
:10543000BDFF02214DF2265000F0B8FFCF214DF202
:10544000275000F0B3FF02214DF2285000F0AEFFCC
:10545000DE214DF2295000F0A9FF02214DF22A5021
:1054600000F0A4FFF2214DF22B5000F09FFF02212B
:105470004DF22C5000F09AFFFE214DF22D5000F01D
:1054800095FF03214DF22E5000F090FF10214DF2B8
:105490002F5000F08BFF03214DF2305000F086FFBB
:1054A00033214DF2315000F081FF03214DF2325093
:1054B00000F07CFF6D214DF2335000F077FF0021AA
:1054C0004FF4564000F072FF33214DF2016000F0BE
:1054D0006DFF00214DF2026000F068FF34214DF2B3
:1054E000036000F063FF00214DF2046000F05EFFF6
:1054F0003A214DF2056000F059FF00214DF206609F
:1055000000F054FF4A214DF2076000F04FFF0021E8
:105510004DF2086000F04AFF5C214DF2096000F096
:1055200045FF00214DF20A6000F040FF81214DF25D
:105530000B6000F03BFF00214DF20C6000F036FFE5
:10554000A6214DF20D6000F031FF00214DF20E60FA
:1055500000F02CFFE5214DF20F6000F027FF012144
:105560004DF2106000F022FF13214DF2116000F0A7
:105570001DFF01214DF2126000F018FF54214DF281
:10558000136000F013FF01214DF2146000F00EFFD4
:1055900082214DF2156000F009FF01214DF21660E5
:1055A00000F004FFCA214DF2176000F0FFFE022157
:1055B0004DF2186000F0FAFE00214DF2196000F083
:1055C000F5FE02214DF21A6000F0F0FE01214DF2CD
:1055D0001B6000F0EBFE02214DF21C6000F0E6FEC5
:1055E00034214DF21D6000F0E1FE02214DF21E60FB
:1055F00000F0DCFE67214DF21F6000F0D7FE0221B3
:105600004DF2206000F0D2FE84214DF2216000F0C6
:10561000CDFE02214DF2226000F0C8FEA4214DF221
:10562000236000F0C3FE02214DF2246000F0BEFEB4
:10563000B7214DF2256000F0B9FE02214DF226603F
:1056400000F0B4FECF214DF2276000F0AFFE022142
:105650004DF2286000F0AAFEDE214DF2296000F034
:10566000A5FE02214DF22A6000F0A0FEF2214DF2CB
:105670002B6000F09BFE02214DF22C6000F096FEA4
:10568000FE214DF22D6000F091FE03214DF22E60BF
:1056900000F08CFE10214DF22F6000F087FE0321F8
:1056A0004DF2306000F082FE33214DF2316000F0A7
:1056B0007DFE03214DF2326000F078FE6D214DF247
:1056C000336000F073FE5521381F00F06FFEAA21F1
:1056D000F81E00F06BFE5221B81E00F067FE082194
:1056E000184600F063FE0021384600F05FFECC2132
:1056F0004FF4314000F05AFE00214BF2011000F04F
:1057000055FE05214FF4364000F050FE70214FF455
:10571000374000F04BFE70214BF2017000F046FE66
:1057200001214FF4384000F041FE03214BF6010007
:1057300000F03CFE03214BF6020000F037FE03218F
:105740004BF6030000F032FE02214FF43C4000F023
:105750002DFE00214BF6014000F028FE00214BF603
:10576000024000F023FED0214FF4494000F01EFE1D
:1057700002214CF6011000F019FE50214CF60210E7
:1057800000F014FE50214CF6031000F00FFE5021E3
:105790004CF6041000F00AFE00214FF4545000F0C3
:1057A00005FE55214FF4685000F000FE4FF488507C
:1057B00000F0E6FD782003F0A5F94FF4245083E2D1
:1057C00040457CD1112000F0DBFD782003F07EF90C
:1057D000362000F0D5FD482000F0C6FD3A2000F04C
:1057E000CFFD552000F0C0FDF02000F0C9FDC32022
:1057F00000F0BAFDF02000F0C3FD962000F0B4FDEB
:10580000B42000F0BDFD012000F0AEFDB62000F098
:10581000B7FD0A2000F0A8FDA22000F0A5FDB720EA
:1058200000F0AEFDC62000F09FFDB92000F0A8FDFD
:10583000022000F099FDE02000F096FDC02000F06D
:105840009FFD802000F090FD162000F08DFDC1200E
:1058500000F096FD192000F087FDC22000F090FDB9
:10586000A72000F081FDC52000F08AFD162000F081
:105870007BFDE82000F084FD402000F075FD8A20CB
:1058800000F072FD002000F06FFD002000F06CFDC4
:10589000292000F069FD192000F066FDA52000F028
:1058A00063FD332000F060FDE02000F069FDF02092
:1058B00000F05AFD072000F057FD0D2000E063E0E6
:1058C00000F052FD042000F04FFD052000F04CFDDB
:1058D000142000F049FD362000F046FD542000F071
:1058E00043FD4C2000F040FD382000F03DFD13202A
:1058F00000F03AFD142000F037FD2E2000F034FDBA
:10590000342000F031FDE12000F03AFDF02000F0FD
:105910002BFD102000F028FD142000F025FD0E20A6
:1059200000F022FD0C2000F01FFD082000F01CFDFF
:10593000352000F019FD442000F016FD4C2000F049
:1059400013FD262000F010FD102000F00DFD1220A8
:1059500000F00AFD2C2000F007FD322000F004FDCD
:10596000F02000F00DFD3C2000F0FEFCF02000F0E7
:1059700007FD692000F0F8FC782003F0A7F821204B
:1059800000F0FEFCFDF7FDBE50457CD1FF2000F08D
:10599000F7FCFF2000F0E8FC982000F0E5FC062072
:1059A00000F0E2FCBC2000F0EBFC012000F0DCFC8D
:1059B0000F2000F0D9FC612000F0D6FCFF2000F0A1
:1059C000D3FC012000F0D0FC012000F0CDFC0B2026
:1059D00000F0CAFC102000F0C7FC372000F0C4FC27
:1059E000632000F0C1FCFF2000F0BEFCFF2000F0AF
:1059F000BBFC012000F0B8FC012000F0B5FC002049
:105A000000F0B2FC002000F0AFFCFF2000F0ACFC86
:105A1000522000F0A9FC012000F0A6FC002000F0BC
:105A2000A3FC402000F0A0FCBD2000F0A9FC012058
:105A300000F09AFC232000F097FC452000F094FC35
:105A4000672000F091FC012000F08EFC232000F084
:105A50008BFC452000F088FC672000F085FCBE2010
:105A600000F08EFC002000F07FFC012000F07CFCA8
:105A7000AB2000F079FC602000F076FC222000F0E2
:105A800073FC222000E022E100F06EFC222000F0F6
:105A90006BFC222000F068FC222000F065FCC7208F
:105AA00000F06EFC362000F05FFCED2000F068FC9A
:105AB0007F2000F059FC0F2000F056FCC02000F0C1
:105AC0005FFC0F2000F050FC0B2000F04DFC0A2082
:105AD00000F04AFCFC2000F053FC082000F044FCDD
